{
  "_format": "hh-sol-artifact-1",
  "contractName": "AccreditorContract",
  "sourceName": "contracts/AccreditorContract.sol",
  "abi": [
    {
      "inputs": [
        {
          "internalType": "address",
          "name": "_accreditor",
          "type": "address"
        },
        {
          "internalType": "address",
          "name": "_authority",
          "type": "address"
        }
      ],
      "stateMutability": "nonpayable",
      "type": "constructor"
    },
    {
      "anonymous": false,
      "inputs": [
        {
          "indexed": true,
          "internalType": "bytes32",
          "name": "_certID",
          "type": "bytes32"
        },
        {
          "indexed": true,
          "internalType": "uint64",
          "name": "_validFrom",
          "type": "uint64"
        },
        {
          "indexed": true,
          "internalType": "uint64",
          "name": "_validTo",
          "type": "uint64"
        }
      ],
      "name": "CertificateRegistered",
      "type": "event"
    },
    {
      "anonymous": false,
      "inputs": [
        {
          "indexed": true,
          "internalType": "bytes32",
          "name": "_certID",
          "type": "bytes32"
        },
        {
          "indexed": true,
          "internalType": "uint64",
          "name": "_validTo",
          "type": "uint64"
        }
      ],
      "name": "CertificateRevoked",
      "type": "event"
    },
    {
      "anonymous": false,
      "inputs": [
        {
          "indexed": true,
          "internalType": "address",
          "name": "delegate",
          "type": "address"
        }
      ],
      "name": "DelegateRegistered",
      "type": "event"
    },
    {
      "anonymous": false,
      "inputs": [
        {
          "indexed": true,
          "internalType": "address",
          "name": "delegate",
          "type": "address"
        }
      ],
      "name": "DelegateUnregistered",
      "type": "event"
    },
    {
      "anonymous": false,
      "inputs": [
        {
          "indexed": true,
          "internalType": "bytes32",
          "name": "role",
          "type": "bytes32"
        },
        {
          "indexed": true,
          "internalType": "bytes32",
          "name": "previousAdminRole",
          "type": "bytes32"
        },
        {
          "indexed": true,
          "internalType": "bytes32",
          "name": "newAdminRole",
          "type": "bytes32"
        }
      ],
      "name": "RoleAdminChanged",
      "type": "event"
    },
    {
      "anonymous": false,
      "inputs": [
        {
          "indexed": true,
          "internalType": "bytes32",
          "name": "role",
          "type": "bytes32"
        },
        {
          "indexed": true,
          "internalType": "address",
          "name": "account",
          "type": "address"
        },
        {
          "indexed": true,
          "internalType": "address",
          "name": "sender",
          "type": "address"
        }
      ],
      "name": "RoleGranted",
      "type": "event"
    },
    {
      "anonymous": false,
      "inputs": [
        {
          "indexed": true,
          "internalType": "bytes32",
          "name": "role",
          "type": "bytes32"
        },
        {
          "indexed": true,
          "internalType": "address",
          "name": "account",
          "type": "address"
        },
        {
          "indexed": true,
          "internalType": "address",
          "name": "sender",
          "type": "address"
        }
      ],
      "name": "RoleRevoked",
      "type": "event"
    },
    {
      "inputs": [],
      "name": "AUTHORITY",
      "outputs": [
        {
          "internalType": "bytes32",
          "name": "",
          "type": "bytes32"
        }
      ],
      "stateMutability": "view",
      "type": "function"
    },
    {
      "inputs": [],
      "name": "DEFAULT_ADMIN_ROLE",
      "outputs": [
        {
          "internalType": "bytes32",
          "name": "",
          "type": "bytes32"
        }
      ],
      "stateMutability": "view",
      "type": "function"
    },
    {
      "inputs": [],
      "name": "DELEGATE",
      "outputs": [
        {
          "internalType": "bytes32",
          "name": "",
          "type": "bytes32"
        }
      ],
      "stateMutability": "view",
      "type": "function"
    },
    {
      "inputs": [],
      "name": "OWNER",
      "outputs": [
        {
          "internalType": "bytes32",
          "name": "",
          "type": "bytes32"
        }
      ],
      "stateMutability": "view",
      "type": "function"
    },
    {
      "inputs": [
        {
          "internalType": "address",
          "name": "_labID",
          "type": "address"
        },
        {
          "internalType": "bytes32",
          "name": "_certificateLacation",
          "type": "bytes32"
        },
        {
          "internalType": "uint64",
          "name": "_validTo",
          "type": "uint64"
        },
        {
          "components": [
            {
              "internalType": "bytes32",
              "name": "AccreditationID",
              "type": "bytes32"
            },
            {
              "internalType": "enum Enum.SIunit[]",
              "name": "units",
              "type": "uint8[]"
            },
            {
              "internalType": "int32[]",
              "name": "exponents",
              "type": "int32[]"
            },
            {
              "internalType": "enum Enum.Category",
              "name": "category",
              "type": "uint8"
            },
            {
              "internalType": "bytes32",
              "name": "lowerRange",
              "type": "bytes32"
            },
            {
              "internalType": "bytes32",
              "name": "upperRange",
              "type": "bytes32"
            },
            {
              "internalType": "enum Enum.Prefix",
              "name": "prefixMeasure",
              "type": "uint8"
            },
            {
              "internalType": "bytes32",
              "name": "fixedUncertainty",
              "type": "bytes32"
            },
            {
              "internalType": "bytes32",
              "name": "measurandCoefficientUncertainty",
              "type": "bytes32"
            },
            {
              "internalType": "enum Enum.Prefix",
              "name": "prefixUncertainty",
              "type": "uint8"
            }
          ],
          "internalType": "struct Structs.AccreditationScope[]",
          "name": "_scopes",
          "type": "tuple[]"
        }
      ],
      "name": "accredit",
      "outputs": [],
      "stateMutability": "nonpayable",
      "type": "function"
    },
    {
      "inputs": [],
      "name": "authority",
      "outputs": [
        {
          "internalType": "address",
          "name": "",
          "type": "address"
        }
      ],
      "stateMutability": "view",
      "type": "function"
    },
    {
      "inputs": [
        {
          "internalType": "bytes32",
          "name": "_ID",
          "type": "bytes32"
        }
      ],
      "name": "getCertificateById",
      "outputs": [
        {
          "components": [
            {
              "internalType": "address",
              "name": "laboratory",
              "type": "address"
            },
            {
              "internalType": "address",
              "name": "responsible",
              "type": "address"
            },
            {
              "components": [
                {
                  "internalType": "bytes32",
                  "name": "AccreditationID",
                  "type": "bytes32"
                },
                {
                  "internalType": "enum Enum.SIunit[]",
                  "name": "units",
                  "type": "uint8[]"
                },
                {
                  "internalType": "int32[]",
                  "name": "exponents",
                  "type": "int32[]"
                },
                {
                  "internalType": "enum Enum.Category",
                  "name": "category",
                  "type": "uint8"
                },
                {
                  "internalType": "bytes32",
                  "name": "lowerRange",
                  "type": "bytes32"
                },
                {
                  "internalType": "bytes32",
                  "name": "upperRange",
                  "type": "bytes32"
                },
                {
                  "internalType": "enum Enum.Prefix",
                  "name": "prefixMeasure",
                  "type": "uint8"
                },
                {
                  "internalType": "bytes32",
                  "name": "fixedUncertainty",
                  "type": "bytes32"
                },
                {
                  "internalType": "bytes32",
                  "name": "measurandCoefficientUncertainty",
                  "type": "bytes32"
                },
                {
                  "internalType": "enum Enum.Prefix",
                  "name": "prefixUncertainty",
                  "type": "uint8"
                }
              ],
              "internalType": "struct Structs.AccreditationScope[]",
              "name": "scopes",
              "type": "tuple[]"
            },
            {
              "internalType": "bytes32",
              "name": "certificateLacation",
              "type": "bytes32"
            },
            {
              "internalType": "uint64",
              "name": "validFrom",
              "type": "uint64"
            },
            {
              "internalType": "uint64",
              "name": "validTo",
              "type": "uint64"
            },
            {
              "internalType": "bool",
              "name": "revoked",
              "type": "bool"
            },
            {
              "internalType": "bool",
              "name": "registered",
              "type": "bool"
            }
          ],
          "internalType": "struct Structs.AccreditationCertificate",
          "name": "",
          "type": "tuple"
        }
      ],
      "stateMutability": "view",
      "type": "function"
    },
    {
      "inputs": [
        {
          "internalType": "uint256",
          "name": "_index",
          "type": "uint256"
        }
      ],
      "name": "getCertificateByIndex",
      "outputs": [
        {
          "components": [
            {
              "internalType": "address",
              "name": "laboratory",
              "type": "address"
            },
            {
              "internalType": "address",
              "name": "responsible",
              "type": "address"
            },
            {
              "components": [
                {
                  "internalType": "bytes32",
                  "name": "AccreditationID",
                  "type": "bytes32"
                },
                {
                  "internalType": "enum Enum.SIunit[]",
                  "name": "units",
                  "type": "uint8[]"
                },
                {
                  "internalType": "int32[]",
                  "name": "exponents",
                  "type": "int32[]"
                },
                {
                  "internalType": "enum Enum.Category",
                  "name": "category",
                  "type": "uint8"
                },
                {
                  "internalType": "bytes32",
                  "name": "lowerRange",
                  "type": "bytes32"
                },
                {
                  "internalType": "bytes32",
                  "name": "upperRange",
                  "type": "bytes32"
                },
                {
                  "internalType": "enum Enum.Prefix",
                  "name": "prefixMeasure",
                  "type": "uint8"
                },
                {
                  "internalType": "bytes32",
                  "name": "fixedUncertainty",
                  "type": "bytes32"
                },
                {
                  "internalType": "bytes32",
                  "name": "measurandCoefficientUncertainty",
                  "type": "bytes32"
                },
                {
                  "internalType": "enum Enum.Prefix",
                  "name": "prefixUncertainty",
                  "type": "uint8"
                }
              ],
              "internalType": "struct Structs.AccreditationScope[]",
              "name": "scopes",
              "type": "tuple[]"
            },
            {
              "internalType": "bytes32",
              "name": "certificateLacation",
              "type": "bytes32"
            },
            {
              "internalType": "uint64",
              "name": "validFrom",
              "type": "uint64"
            },
            {
              "internalType": "uint64",
              "name": "validTo",
              "type": "uint64"
            },
            {
              "internalType": "bool",
              "name": "revoked",
              "type": "bool"
            },
            {
              "internalType": "bool",
              "name": "registered",
              "type": "bool"
            }
          ],
          "internalType": "struct Structs.AccreditationCertificate",
          "name": "",
          "type": "tuple"
        }
      ],
      "stateMutability": "view",
      "type": "function"
    },
    {
      "inputs": [],
      "name": "getCertificateCount",
      "outputs": [
        {
          "internalType": "uint256",
          "name": "",
          "type": "uint256"
        }
      ],
      "stateMutability": "view",
      "type": "function"
    },
    {
      "inputs": [
        {
          "internalType": "bytes32",
          "name": "role",
          "type": "bytes32"
        }
      ],
      "name": "getRoleAdmin",
      "outputs": [
        {
          "internalType": "bytes32",
          "name": "",
          "type": "bytes32"
        }
      ],
      "stateMutability": "view",
      "type": "function"
    },
    {
      "inputs": [
        {
          "internalType": "bytes32",
          "name": "role",
          "type": "bytes32"
        },
        {
          "internalType": "address",
          "name": "account",
          "type": "address"
        }
      ],
      "name": "grantRole",
      "outputs": [],
      "stateMutability": "nonpayable",
      "type": "function"
    },
    {
      "inputs": [
        {
          "internalType": "bytes32",
          "name": "role",
          "type": "bytes32"
        },
        {
          "internalType": "address",
          "name": "account",
          "type": "address"
        }
      ],
      "name": "hasRole",
      "outputs": [
        {
          "internalType": "bool",
          "name": "",
          "type": "bool"
        }
      ],
      "stateMutability": "view",
      "type": "function"
    },
    {
      "inputs": [
        {
          "internalType": "address",
          "name": "_delegate",
          "type": "address"
        },
        {
          "internalType": "bytes32",
          "name": "_name",
          "type": "bytes32"
        },
        {
          "internalType": "bytes32",
          "name": "_email",
          "type": "bytes32"
        },
        {
          "internalType": "bytes32",
          "name": "_title",
          "type": "bytes32"
        }
      ],
      "name": "registerDelegate",
      "outputs": [],
      "stateMutability": "nonpayable",
      "type": "function"
    },
    {
      "inputs": [
        {
          "internalType": "bytes32",
          "name": "role",
          "type": "bytes32"
        },
        {
          "internalType": "address",
          "name": "account",
          "type": "address"
        }
      ],
      "name": "renounceRole",
      "outputs": [],
      "stateMutability": "nonpayable",
      "type": "function"
    },
    {
      "inputs": [
        {
          "internalType": "bytes32",
          "name": "_certID",
          "type": "bytes32"
        }
      ],
      "name": "revokeAccreditation",
      "outputs": [],
      "stateMutability": "nonpayable",
      "type": "function"
    },
    {
      "inputs": [
        {
          "internalType": "bytes32",
          "name": "role",
          "type": "bytes32"
        },
        {
          "internalType": "address",
          "name": "account",
          "type": "address"
        }
      ],
      "name": "revokeRole",
      "outputs": [],
      "stateMutability": "nonpayable",
      "type": "function"
    },
    {
      "inputs": [
        {
          "internalType": "bytes4",
          "name": "interfaceId",
          "type": "bytes4"
        }
      ],
      "name": "supportsInterface",
      "outputs": [
        {
          "internalType": "bool",
          "name": "",
          "type": "bool"
        }
      ],
      "stateMutability": "view",
      "type": "function"
    },
    {
      "inputs": [
        {
          "internalType": "address",
          "name": "_delegate",
          "type": "address"
        }
      ],
      "name": "unregisterDelegate",
      "outputs": [],
      "stateMutability": "nonpayable",
      "type": "function"
    }
  ],
  "bytecode": "0x60806040523480156200001157600080fd5b506040516200405738038062004057833981810160405281019062000037919062000779565b80600160006101000a81548173ffffffffffffffffffffffffffffffffffffffff021916908373ffffffffffffffffffffffffffffffffffffffff1602179055506200008d6000801b826200014b60201b60201c565b620000bf7f843b48dccc6ff192f9330133622b0536f7b94feca0cf36e7e46fc50060b6f882826200016160201b60201c565b620000f17f6270edb7c868f86fda4adedba75108201087268ea345934db8bad688e1feb91b836200016160201b60201c565b620001437fc7ddcf4441a1bb01353b38db832023115117943d28ad05b882de4ad99e94b8fc7f6270edb7c868f86fda4adedba75108201087268ea345934db8bad688e1feb91b620001aa60201b60201c565b505062000b62565b6200015d82826200020d60201b60201c565b5050565b6200017282620002fe60201b60201c565b6200019381620001876200031d60201b60201c565b6200032560201b60201c565b620001a583836200020d60201b60201c565b505050565b6000620001bd83620002fe60201b60201c565b905081600080858152602001908152602001600020600101819055508181847fbd79b86ffe0ab8e8776151514217cd7cacd52c909f66475c3af44e129f0b00ff60405160405180910390a4505050565b6200021f8282620003e960201b60201c565b620002fa57600160008084815260200190815260200160002060000160008373ffffffffffffffffffffffffffffffffffffffff1673ffffffffffffffffffffffffffffffffffffffff16815260200190815260200160002060006101000a81548160ff0219169083151502179055506200029f6200031d60201b60201c565b73ffffffffffffffffffffffffffffffffffffffff168173ffffffffffffffffffffffffffffffffffffffff16837f2f8788117e7eff1d82e926ec794901d17c78024a50270940304540a733656f0d60405160405180910390a45b5050565b6000806000838152602001908152602001600020600101549050919050565b600033905090565b620003378282620003e960201b60201c565b620003e5576200036a8173ffffffffffffffffffffffffffffffffffffffff1660146200045360201b6200195b1760201c565b620003858360001c60206200045360201b6200195b1760201c565b60405160200162000398929190620008f8565b6040516020818303038152906040526040517f08c379a0000000000000000000000000000000000000000000000000000000008152600401620003dc91906200093a565b60405180910390fd5b5050565b600080600084815260200190815260200160002060000160008373ffffffffffffffffffffffffffffffffffffffff1673ffffffffffffffffffffffffffffffffffffffff16815260200190815260200160002060009054906101000a900460ff16905092915050565b60606000600283600262000468919062000a04565b620004749190620009a7565b67ffffffffffffffff811115620004b4577f4e487b7100000000000000000000000000000000000000000000000000000000600052604160045260246000fd5b6040519080825280601f01601f191660200182016040528015620004e75781602001600182028036833780820191505090505b5090507f30000000000000000000000000000000000000000000000000000000000000008160008151811062000546577f4e487b7100000000000000000000000000000000000000000000000000000000600052603260045260246000fd5b60200101907effffffffffffffffffffffffffffffffffffffffffffffffffffffffffffff1916908160001a9053507f780000000000000000000000000000000000000000000000000000000000000081600181518110620005d1577f4e487b7100000000000000000000000000000000000000000000000000000000600052603260045260246000fd5b60200101907effffffffffffffffffffffffffffffffffffffffffffffffffffffffffffff1916908160001a9053506000600184600262000613919062000a04565b6200061f9190620009a7565b90505b600181111562000711577f3031323334353637383961626364656600000000000000000000000000000000600f86166010811062000689577f4e487b7100000000000000000000000000000000000000000000000000000000600052603260045260246000fd5b1a60f81b828281518110620006c7577f4e487b7100000000000000000000000000000000000000000000000000000000600052603260045260246000fd5b60200101907effffffffffffffffffffffffffffffffffffffffffffffffffffffffffffff1916908160001a905350600485901c945080620007099062000ad9565b905062000622565b506000841462000758576040517f08c379a00000000000000000000000000000000000000000000000000000000081526004016200074f906200095e565b60405180910390fd5b8091505092915050565b600081519050620007738162000b48565b92915050565b600080604083850312156200078d57600080fd5b60006200079d8582860162000762565b9250506020620007b08582860162000762565b9150509250929050565b6000620007c78262000980565b620007d381856200098b565b9350620007e581856020860162000aa3565b620007f08162000b37565b840191505092915050565b6000620008088262000980565b6200081481856200099c565b93506200082681856020860162000aa3565b80840191505092915050565b6000620008416020836200098b565b91507f537472696e67733a20686578206c656e67746820696e73756666696369656e746000830152602082019050919050565b6000620008836017836200099c565b91507f416363657373436f6e74726f6c3a206163636f756e74200000000000000000006000830152601782019050919050565b6000620008c56011836200099c565b91507f206973206d697373696e6720726f6c65200000000000000000000000000000006000830152601182019050919050565b6000620009058262000874565b9150620009138285620007fb565b91506200092082620008b6565b91506200092e8284620007fb565b91508190509392505050565b60006020820190508181036000830152620009568184620007ba565b905092915050565b60006020820190508181036000830152620009798162000832565b9050919050565b600081519050919050565b600082825260208201905092915050565b600081905092915050565b6000620009b48262000a99565b9150620009c18362000a99565b9250827fffffffffffffffffffffffffffffffffffffffffffffffffffffffffffffffff03821115620009f957620009f862000b08565b5b828201905092915050565b600062000a118262000a99565b915062000a1e8362000a99565b9250817fffffffffffffffffffffffffffffffffffffffffffffffffffffffffffffffff048311821515161562000a5a5762000a5962000b08565b5b828202905092915050565b600062000a728262000a79565b9050919050565b600073ffffffffffffffffffffffffffffffffffffffff82169050919050565b6000819050919050565b60005b8381101562000ac357808201518184015260208101905062000aa6565b8381111562000ad3576000848401525b50505050565b600062000ae68262000a99565b9150600082141562000afd5762000afc62000b08565b5b600182039050919050565b7f4e487b7100000000000000000000000000000000000000000000000000000000600052601160045260246000fd5b6000601f19601f8301169050919050565b62000b538162000a65565b811462000b5f57600080fd5b50565b6134e58062000b726000396000f3fe608060405234801561001057600080fd5b50600436106101165760003560e01c80637680637f116100a257806391d148541161007157806391d14854146102cb578063a217fddf146102fb578063bbd3a66d14610319578063bf7e214f14610349578063d547741f1461036757610116565b80637680637f146102575780638376e5ae146102735780638809f7271461028f57806389fcd796146102ad57610116565b80632f2ff15d116100e95780632f2ff15d146101c957806336568abe146101e55780634a2d5c9d14610201578063547ff0761461021f578063641fae3c1461023b57610116565b806301ffc9a71461011b5780630a28e90c1461014b578063117803e31461017b578063248a9ca314610199575b600080fd5b6101356004803603810190610130919061265b565b610383565b6040516101429190612dac565b60405180910390f35b61016560048036038101906101609190612684565b6103fd565b6040516101729190612e84565b60405180910390f35b610183610934565b6040516101909190612dc7565b60405180910390f35b6101b360048036038101906101ae91906125f6565b610958565b6040516101c09190612dc7565b60405180910390f35b6101e360048036038101906101de919061261f565b610977565b005b6101ff60048036038101906101fa919061261f565b6109a0565b005b610209610a23565b6040516102169190612dc7565b60405180910390f35b6102396004803603810190610234919061257b565b610a47565b005b61025560048036038101906102509190612518565b610fda565b005b610271600480360381019061026c91906125f6565b6111a3565b005b61028d600480360381019061028891906124ef565b611324565b005b610297611394565b6040516102a49190612ea6565b60405180910390f35b6102b56113a1565b6040516102c29190612dc7565b60405180910390f35b6102e560048036038101906102e0919061261f565b6113c5565b6040516102f29190612dac565b60405180910390f35b61030361142f565b6040516103109190612dc7565b60405180910390f35b610333600480360381019061032e91906125f6565b611436565b6040516103409190612e84565b60405180910390f35b61035161190c565b60405161035e9190612d68565b60405180910390f35b610381600480360381019061037c919061261f565b611932565b005b60007f7965db0b000000000000000000000000000000000000000000000000000000007bffffffffffffffffffffffffffffffffffffffffffffffffffffffff1916827bffffffffffffffffffffffffffffffffffffffffffffffffffffffff191614806103f657506103f582611c55565b5b9050919050565b610405611f25565b600160038054905061041791906130f8565b821061042257600080fd5b6002600060038481548110610460577f4e487b7100000000000000000000000000000000000000000000000000000000600052603260045260246000fd5b90600052602060002001548152602001908152602001600020604051806101000160405290816000820160009054906101000a900473ffffffffffffffffffffffffffffffffffffffff1673ffffffffffffffffffffffffffffffffffffffff1673ffffffffffffffffffffffffffffffffffffffff1681526020016001820160009054906101000a900473ffffffffffffffffffffffffffffffffffffffff1673ffffffffffffffffffffffffffffffffffffffff1673ffffffffffffffffffffffffffffffffffffffff16815260200160028201805480602002602001604051908101604052809291908181526020016000905b8282101561088157838290600052602060002090600a020160405180610140016040529081600082015481526020016001820180548060200260200160405190810160405280929190818152602001828054801561062e57602002820191906000526020600020906000905b82829054906101000a900460ff166006811115610608577f4e487b7100000000000000000000000000000000000000000000000000000000600052602160045260246000fd5b815260200190600101906020826000010492830192600103820291508084116105c25790505b50505050508152602001600282018054806020026020016040519081016040528092919081815260200182805480156106ac57602002820191906000526020600020906000905b82829054906101000a900460030b60030b815260200190600401906020826003010492830192600103820291508084116106755790505b505050505081526020016003820160009054906101000a900460ff166001811115610700577f4e487b7100000000000000000000000000000000000000000000000000000000600052602160045260246000fd5b6001811115610738577f4e487b7100000000000000000000000000000000000000000000000000000000600052602160045260246000fd5b815260200160048201548152602001600582015481526020016006820160009054906101000a900460ff16601381111561079b577f4e487b7100000000000000000000000000000000000000000000000000000000600052602160045260246000fd5b60138111156107d3577f4e487b7100000000000000000000000000000000000000000000000000000000600052602160045260246000fd5b815260200160078201548152602001600882015481526020016009820160009054906101000a900460ff166013811115610836577f4e487b7100000000000000000000000000000000000000000000000000000000600052602160045260246000fd5b601381111561086e577f4e487b7100000000000000000000000000000000000000000000000000000000600052602160045260246000fd5b8152505081526020019060010190610556565b505050508152602001600382015481526020016004820160009054906101000a900467ffffffffffffffff1667ffffffffffffffff1667ffffffffffffffff1681526020016004820160089054906101000a900467ffffffffffffffff1667ffffffffffffffff1667ffffffffffffffff1681526020016004820160109054906101000a900460ff161515151581526020016004820160119054906101000a900460ff1615151515815250509050919050565b7f6270edb7c868f86fda4adedba75108201087268ea345934db8bad688e1feb91b81565b6000806000838152602001908152602001600020600101549050919050565b61098082610958565b6109918161098c611cbf565b611cc7565b61099b8383611d64565b505050565b6109a8611cbf565b73ffffffffffffffffffffffffffffffffffffffff168173ffffffffffffffffffffffffffffffffffffffff1614610a15576040517f08c379a0000000000000000000000000000000000000000000000000000000008152600401610a0c90612e64565b60405180910390fd5b610a1f8282611e44565b5050565b7fc7ddcf4441a1bb01353b38db832023115117943d28ad05b882de4ad99e94b8fc81565b610a717f6270edb7c868f86fda4adedba75108201087268ea345934db8bad688e1feb91b326113c5565b80610aa25750610aa17fc7ddcf4441a1bb01353b38db832023115117943d28ad05b882de4ad99e94b8fc326113c5565b5b80610ab65750610ab56000801b336113c5565b5b610abf57600080fd5b6000843042604051602001610ad693929190612cf1565b6040516020818303038152906040528051906020012090506002600082815260200190815260200160002060040160119054906101000a900460ff1615610b52576040517f08c379a0000000000000000000000000000000000000000000000000000000008152600401610b4990612e44565b60405180910390fd5b846002600083815260200190815260200160002060000160006101000a81548173ffffffffffffffffffffffffffffffffffffffff021916908373ffffffffffffffffffffffffffffffffffffffff160217905550326002600083815260200190815260200160002060010160006101000a81548173ffffffffffffffffffffffffffffffffffffffff021916908373ffffffffffffffffffffffffffffffffffffffff160217905550426002600083815260200190815260200160002060040160006101000a81548167ffffffffffffffff021916908367ffffffffffffffff160217905550826002600083815260200190815260200160002060040160086101000a81548167ffffffffffffffff021916908367ffffffffffffffff16021790555083600260008381526020019081526020016000206003018190555060016002600083815260200190815260200160002060040160116101000a81548160ff021916908315150217905550600381908060018154018082558091505060019003906000526020600020016000909190919091505560005b8251811015610efa5760026000838152602001908152602001600020600201838281518110610d44577f4e487b7100000000000000000000000000000000000000000000000000000000600052603260045260246000fd5b602002602001015190806001815401808255809150506001900390600052602060002090600a0201600090919091909150600082015181600001556020820151816001019080519060200190610d9b929190611fb1565b506040820151816002019080519060200190610db892919061208d565b5060608201518160030160006101000a81548160ff02191690836001811115610e0a577f4e487b7100000000000000000000000000000000000000000000000000000000600052602160045260246000fd5b02179055506080820151816004015560a0820151816005015560c08201518160060160006101000a81548160ff02191690836013811115610e74577f4e487b7100000000000000000000000000000000000000000000000000000000600052602160045260246000fd5b021790555060e0820151816007015561010082015181600801556101208201518160090160006101000a81548160ff02191690836013811115610ee0577f4e487b7100000000000000000000000000000000000000000000000000000000600052602160045260246000fd5b021790555050508080610ef290613297565b915050610cec565b506000600160009054906101000a900473ffffffffffffffffffffffffffffffffffffffff1690508073ffffffffffffffffffffffffffffffffffffffff1663d2e0fd7c87846040518363ffffffff1660e01b8152600401610f5d929190612d83565b600060405180830381600087803b158015610f7757600080fd5b505af1158015610f8b573d6000803e3d6000fd5b505050508367ffffffffffffffff164267ffffffffffffffff16837f7ab6d57493e9d536fc2ebb574b840bcfa129a10f9df628610fce44f2aa26fec860405160405180910390a4505050505050565b6110047fc7ddcf4441a1bb01353b38db832023115117943d28ad05b882de4ad99e94b8fc85610977565b30600460008673ffffffffffffffffffffffffffffffffffffffff1673ffffffffffffffffffffffffffffffffffffffff16815260200190815260200160002060000160006101000a81548173ffffffffffffffffffffffffffffffffffffffff021916908373ffffffffffffffffffffffffffffffffffffffff16021790555082600460008673ffffffffffffffffffffffffffffffffffffffff1673ffffffffffffffffffffffffffffffffffffffff1681526020019081526020016000206001018190555081600460008673ffffffffffffffffffffffffffffffffffffffff1673ffffffffffffffffffffffffffffffffffffffff1681526020019081526020016000206002018190555080600460008673ffffffffffffffffffffffffffffffffffffffff1673ffffffffffffffffffffffffffffffffffffffff168152602001908152602001600020600301819055508373ffffffffffffffffffffffffffffffffffffffff167ff0f7d8c5ce42f07387388b98c5bc129be0d2092a62b3f97a797caecb2461aeb760405160405180910390a250505050565b6111cd7f6270edb7c868f86fda4adedba75108201087268ea345934db8bad688e1feb91b326113c5565b806111fe57506111fd7fc7ddcf4441a1bb01353b38db832023115117943d28ad05b882de4ad99e94b8fc326113c5565b5b8061121257506112116000801b336113c5565b5b61121b57600080fd5b60006002600083815260200190815260200160002090508060040160119054906101000a900460ff16801561125f57508060040160109054906101000a900460ff16155b61129e576040517f08c379a000000000000000000000000000000000000000000000000000000000815260040161129590612e24565b60405180910390fd5b60018160040160106101000a81548160ff0219169083151502179055504263ffffffff168160040160086101000a81548167ffffffffffffffff021916908367ffffffffffffffff1602179055504263ffffffff16827fdfb16e680b89bb363b97cbc4b6ef42b95dba995e00034252becd4f9168cecc8860405160405180910390a35050565b61134e7fc7ddcf4441a1bb01353b38db832023115117943d28ad05b882de4ad99e94b8fc82611932565b8073ffffffffffffffffffffffffffffffffffffffff167f98561cbe7c9c0b90726130c8409b307d4c9698c9e7ee2797aea68659cad1049460405160405180910390a250565b6000600380549050905090565b7f843b48dccc6ff192f9330133622b0536f7b94feca0cf36e7e46fc50060b6f88281565b600080600084815260200190815260200160002060000160008373ffffffffffffffffffffffffffffffffffffffff1673ffffffffffffffffffffffffffffffffffffffff16815260200190815260200160002060009054906101000a900460ff16905092915050565b6000801b81565b61143e611f25565b60026000838152602001908152602001600020604051806101000160405290816000820160009054906101000a900473ffffffffffffffffffffffffffffffffffffffff1673ffffffffffffffffffffffffffffffffffffffff1673ffffffffffffffffffffffffffffffffffffffff1681526020016001820160009054906101000a900473ffffffffffffffffffffffffffffffffffffffff1673ffffffffffffffffffffffffffffffffffffffff1673ffffffffffffffffffffffffffffffffffffffff16815260200160028201805480602002602001604051908101604052809291908181526020016000905b8282101561185957838290600052602060002090600a020160405180610140016040529081600082015481526020016001820180548060200260200160405190810160405280929190818152602001828054801561160657602002820191906000526020600020906000905b82829054906101000a900460ff1660068111156115e0577f4e487b7100000000000000000000000000000000000000000000000000000000600052602160045260246000fd5b8152602001906001019060208260000104928301926001038202915080841161159a5790505b505050505081526020016002820180548060200260200160405190810160405280929190818152602001828054801561168457602002820191906000526020600020906000905b82829054906101000a900460030b60030b8152602001906004019060208260030104928301926001038202915080841161164d5790505b505050505081526020016003820160009054906101000a900460ff1660018111156116d8577f4e487b7100000000000000000000000000000000000000000000000000000000600052602160045260246000fd5b6001811115611710577f4e487b7100000000000000000000000000000000000000000000000000000000600052602160045260246000fd5b815260200160048201548152602001600582015481526020016006820160009054906101000a900460ff166013811115611773577f4e487b7100000000000000000000000000000000000000000000000000000000600052602160045260246000fd5b60138111156117ab577f4e487b7100000000000000000000000000000000000000000000000000000000600052602160045260246000fd5b815260200160078201548152602001600882015481526020016009820160009054906101000a900460ff16601381111561180e577f4e487b7100000000000000000000000000000000000000000000000000000000600052602160045260246000fd5b6013811115611846577f4e487b7100000000000000000000000000000000000000000000000000000000600052602160045260246000fd5b815250508152602001906001019061152e565b505050508152602001600382015481526020016004820160009054906101000a900467ffffffffffffffff1667ffffffffffffffff1667ffffffffffffffff1681526020016004820160089054906101000a900467ffffffffffffffff1667ffffffffffffffff1667ffffffffffffffff1681526020016004820160109054906101000a900460ff161515151581526020016004820160119054906101000a900460ff1615151515815250509050919050565b600160009054906101000a900473ffffffffffffffffffffffffffffffffffffffff1681565b61193b82610958565b61194c81611947611cbf565b611cc7565b6119568383611e44565b505050565b60606000600283600261196e919061309e565b6119789190613048565b67ffffffffffffffff8111156119b7577f4e487b7100000000000000000000000000000000000000000000000000000000600052604160045260246000fd5b6040519080825280601f01601f1916602001820160405280156119e95781602001600182028036833780820191505090505b5090507f300000000000000000000000000000000000000000000000000000000000000081600081518110611a47577f4e487b7100000000000000000000000000000000000000000000000000000000600052603260045260246000fd5b60200101907effffffffffffffffffffffffffffffffffffffffffffffffffffffffffffff1916908160001a9053507f780000000000000000000000000000000000000000000000000000000000000081600181518110611ad1577f4e487b7100000000000000000000000000000000000000000000000000000000600052603260045260246000fd5b60200101907effffffffffffffffffffffffffffffffffffffffffffffffffffffffffffff1916908160001a90535060006001846002611b11919061309e565b611b1b9190613048565b90505b6001811115611c07577f3031323334353637383961626364656600000000000000000000000000000000600f861660108110611b83577f4e487b7100000000000000000000000000000000000000000000000000000000600052603260045260246000fd5b1a60f81b828281518110611bc0577f4e487b7100000000000000000000000000000000000000000000000000000000600052603260045260246000fd5b60200101907effffffffffffffffffffffffffffffffffffffffffffffffffffffffffffff1916908160001a905350600485901c945080611c009061326d565b9050611b1e565b5060008414611c4b576040517f08c379a0000000000000000000000000000000000000000000000000000000008152600401611c4290612e04565b60405180910390fd5b8091505092915050565b60007f01ffc9a7000000000000000000000000000000000000000000000000000000007bffffffffffffffffffffffffffffffffffffffffffffffffffffffff1916827bffffffffffffffffffffffffffffffffffffffffffffffffffffffff1916149050919050565b600033905090565b611cd182826113c5565b611d6057611cf68173ffffffffffffffffffffffffffffffffffffffff16601461195b565b611d048360001c602061195b565b604051602001611d15929190612d2e565b6040516020818303038152906040526040517f08c379a0000000000000000000000000000000000000000000000000000000008152600401611d579190612de2565b60405180910390fd5b5050565b611d6e82826113c5565b611e4057600160008084815260200190815260200160002060000160008373ffffffffffffffffffffffffffffffffffffffff1673ffffffffffffffffffffffffffffffffffffffff16815260200190815260200160002060006101000a81548160ff021916908315150217905550611de5611cbf565b73ffffffffffffffffffffffffffffffffffffffff168173ffffffffffffffffffffffffffffffffffffffff16837f2f8788117e7eff1d82e926ec794901d17c78024a50270940304540a733656f0d60405160405180910390a45b5050565b611e4e82826113c5565b15611f2157600080600084815260200190815260200160002060000160008373ffffffffffffffffffffffffffffffffffffffff1673ffffffffffffffffffffffffffffffffffffffff16815260200190815260200160002060006101000a81548160ff021916908315150217905550611ec6611cbf565b73ffffffffffffffffffffffffffffffffffffffff168173ffffffffffffffffffffffffffffffffffffffff16837ff6391f5c32d9c69d2a47ea670b442974b53935d1edc7fd64eb21e047a839171b60405160405180910390a45b5050565b604051806101000160405280600073ffffffffffffffffffffffffffffffffffffffff168152602001600073ffffffffffffffffffffffffffffffffffffffff1681526020016060815260200160008019168152602001600067ffffffffffffffff168152602001600067ffffffffffffffff1681526020016000151581526020016000151581525090565b82805482825590600052602060002090601f0160209004810192821561207c5791602002820160005b8382111561204d57835183826101000a81548160ff0219169083600681111561202c577f4e487b7100000000000000000000000000000000000000000000000000000000600052602160045260246000fd5b02179055509260200192600101602081600001049283019260010302611fda565b801561207a5782816101000a81549060ff021916905560010160208160000104928301926001030261204d565b505b5090506120899190612140565b5090565b8280548282559060005260206000209060070160089004810192821561212f5791602002820160005b838211156120fd57835183826101000a81548163ffffffff021916908360030b63ffffffff16021790555092602001926004016020816003010492830192600103026120b6565b801561212d5782816101000a81549063ffffffff02191690556004016020816003010492830192600103026120fd565b505b50905061213c9190612140565b5090565b5b80821115612159576000816000905550600101612141565b5090565b600061217061216b84612ef2565b612ec1565b9050808382526020820190508285602086028201111561218f57600080fd5b60005b858110156121bf57816121a58882612379565b845260208401935060208301925050600181019050612192565b5050509392505050565b60006121dc6121d784612f1e565b612ec1565b905080838252602082019050828560208602820111156121fb57600080fd5b60005b8581101561222b5781612211888261238e565b8452602084019350602083019250506001810190506121fe565b5050509392505050565b600061224861224384612f4a565b612ec1565b9050808382526020820190508260005b85811015612288578135850161226e88826123a3565b845260208401935060208301925050600181019050612258565b5050509392505050565b6000813590506122a1816133f5565b92915050565b600082601f8301126122b857600080fd5b81356122c884826020860161215d565b91505092915050565b600082601f8301126122e257600080fd5b81356122f28482602086016121c9565b91505092915050565b600082601f83011261230c57600080fd5b813561231c848260208601612235565b91505092915050565b6000813590506123348161340c565b92915050565b60008135905061234981613423565b92915050565b60008135905061235e8161343a565b92915050565b6000813590506123738161344a565b92915050565b6000813590506123888161345a565b92915050565b60008135905061239d8161346a565b92915050565b600061014082840312156123b657600080fd5b6123c1610140612ec1565b905060006123d184828501612325565b600083015250602082013567ffffffffffffffff8111156123f157600080fd5b6123fd848285016122a7565b602083015250604082013567ffffffffffffffff81111561241d57600080fd5b612429848285016122d1565b604083015250606061243d8482850161234f565b606083015250608061245184828501612325565b60808301525060a061246584828501612325565b60a08301525060c061247984828501612364565b60c08301525060e061248d84828501612325565b60e0830152506101006124a284828501612325565b610100830152506101206124b884828501612364565b6101208301525092915050565b6000813590506124d481613481565b92915050565b6000813590506124e981613498565b92915050565b60006020828403121561250157600080fd5b600061250f84828501612292565b91505092915050565b6000806000806080858703121561252e57600080fd5b600061253c87828801612292565b945050602061254d87828801612325565b935050604061255e87828801612325565b925050606061256f87828801612325565b91505092959194509250565b6000806000806080858703121561259157600080fd5b600061259f87828801612292565b94505060206125b087828801612325565b93505060406125c1878288016124da565b925050606085013567ffffffffffffffff8111156125de57600080fd5b6125ea878288016122fb565b91505092959194509250565b60006020828403121561260857600080fd5b600061261684828501612325565b91505092915050565b6000806040838503121561263257600080fd5b600061264085828601612325565b925050602061265185828601612292565b9150509250929050565b60006020828403121561266d57600080fd5b600061267b8482850161233a565b91505092915050565b60006020828403121561269657600080fd5b60006126a4848285016124c5565b91505092915050565b60006126b983836128b1565b60208301905092915050565b60006126d183836128c0565b60208301905092915050565b60006126e98383612bdb565b905092915050565b6126fa8161312c565b82525050565b6127098161312c565b82525050565b61272061271b8261312c565b6132e0565b82525050565b600061273182612fa6565b61273b818561301b565b935061274683612f76565b8060005b8381101561277757815161275e88826126ad565b975061276983612fd2565b92505060018101905061274a565b5085935050505092915050565b600061278f82612fb1565b6127998185612ff9565b93506127a483612f86565b8060005b838110156127d55781516127bc88826126c5565b97506127c783612fdf565b9250506001810190506127a8565b5085935050505092915050565b60006127ed82612fbc565b6127f7818561300a565b93508360208202850161280985612f96565b8060005b85811015612845578484038952815161282685826126dd565b945061283183612fec565b925060208a0199505060018101905061280d565b50829750879550505050505092915050565b6128608161313e565b82525050565b61286f8161313e565b82525050565b61287e8161314a565b82525050565b61288d8161314a565b82525050565b61289c81613204565b82525050565b6128ab81613216565b82525050565b6128ba81613228565b82525050565b6128c9816131b9565b82525050565b60006128da82612fc7565b6128e4818561302c565b93506128f481856020860161323a565b6128fd8161339b565b840191505092915050565b600061291382612fc7565b61291d818561303d565b935061292d81856020860161323a565b80840191505092915050565b600061294660208361302c565b91507f537472696e67733a20686578206c656e67746820696e73756666696369656e746000830152602082019050919050565b6000612986602d8361302c565b91507f41206365727469666963617465206d757374206265207265676973746572656460008301527f20746f6265207265766f6b6564000000000000000000000000000000000000006020830152604082019050919050565b60006129ec60178361303d565b91507f416363657373436f6e74726f6c3a206163636f756e74200000000000000000006000830152601782019050919050565b6000612a2c60268361302c565b91507f5468697320636572746966696361746520697320616c7265616479207265676960008301527f73746572656400000000000000000000000000000000000000000000000000006020830152604082019050919050565b6000612a9260118361303d565b91507f206973206d697373696e6720726f6c65200000000000000000000000000000006000830152601182019050919050565b6000612ad2602f8361302c565b91507f416363657373436f6e74726f6c3a2063616e206f6e6c792072656e6f756e636560008301527f20726f6c657320666f722073656c6600000000000000000000000000000000006020830152604082019050919050565b600061010083016000830151612b4460008601826126f1565b506020830151612b5760208601826126f1565b5060408301518482036040860152612b6f82826127e2565b9150506060830151612b846060860182612875565b506080830151612b976080860182612ce2565b5060a0830151612baa60a0860182612ce2565b5060c0830151612bbd60c0860182612857565b5060e0830151612bd060e0860182612857565b508091505092915050565b600061014083016000830151612bf46000860182612875565b5060208301518482036020860152612c0c8282612726565b91505060408301518482036040860152612c268282612784565b9150506060830151612c3b6060860182612893565b506080830151612c4e6080860182612875565b5060a0830151612c6160a0860182612875565b5060c0830151612c7460c08601826128a2565b5060e0830151612c8760e0860182612875565b50610100830151612c9c610100860182612875565b50610120830151612cb16101208601826128a2565b508091505092915050565b612cc5816131e6565b82525050565b612cdc612cd7826131e6565b613304565b82525050565b612ceb816131f0565b82525050565b6000612cfd828661270f565b601482019150612d0d828561270f565b601482019150612d1d8284612ccb565b602082019150819050949350505050565b6000612d39826129df565b9150612d458285612908565b9150612d5082612a85565b9150612d5c8284612908565b91508190509392505050565b6000602082019050612d7d6000830184612700565b92915050565b6000604082019050612d986000830185612700565b612da56020830184612884565b9392505050565b6000602082019050612dc16000830184612866565b92915050565b6000602082019050612ddc6000830184612884565b92915050565b60006020820190508181036000830152612dfc81846128cf565b905092915050565b60006020820190508181036000830152612e1d81612939565b9050919050565b60006020820190508181036000830152612e3d81612979565b9050919050565b60006020820190508181036000830152612e5d81612a1f565b9050919050565b60006020820190508181036000830152612e7d81612ac5565b9050919050565b60006020820190508181036000830152612e9e8184612b2b565b905092915050565b6000602082019050612ebb6000830184612cbc565b92915050565b6000604051905081810181811067ffffffffffffffff82111715612ee857612ee761336c565b5b8060405250919050565b600067ffffffffffffffff821115612f0d57612f0c61336c565b5b602082029050602081019050919050565b600067ffffffffffffffff821115612f3957612f3861336c565b5b602082029050602081019050919050565b600067ffffffffffffffff821115612f6557612f6461336c565b5b602082029050602081019050919050565b6000819050602082019050919050565b6000819050602082019050919050565b6000819050602082019050919050565b600081519050919050565b600081519050919050565b600081519050919050565b600081519050919050565b6000602082019050919050565b6000602082019050919050565b6000602082019050919050565b600082825260208201905092915050565b600082825260208201905092915050565b600082825260208201905092915050565b600082825260208201905092915050565b600081905092915050565b6000613053826131e6565b915061305e836131e6565b9250827fffffffffffffffffffffffffffffffffffffffffffffffffffffffffffffffff038211156130935761309261330e565b5b828201905092915050565b60006130a9826131e6565b91506130b4836131e6565b9250817fffffffffffffffffffffffffffffffffffffffffffffffffffffffffffffffff04831182151516156130ed576130ec61330e565b5b828202905092915050565b6000613103826131e6565b915061310e836131e6565b9250828210156131215761312061330e565b5b828203905092915050565b6000613137826131c6565b9050919050565b60008115159050919050565b6000819050919050565b60007fffffffff0000000000000000000000000000000000000000000000000000000082169050919050565b600081905061318e826133b9565b919050565b60008190506131a1826133cd565b919050565b60008190506131b4826133e1565b919050565b60008160030b9050919050565b600073ffffffffffffffffffffffffffffffffffffffff82169050919050565b6000819050919050565b600067ffffffffffffffff82169050919050565b600061320f82613180565b9050919050565b600061322182613193565b9050919050565b6000613233826131a6565b9050919050565b60005b8381101561325857808201518184015260208101905061323d565b83811115613267576000848401525b50505050565b6000613278826131e6565b9150600082141561328c5761328b61330e565b5b600182039050919050565b60006132a2826131e6565b91507fffffffffffffffffffffffffffffffffffffffffffffffffffffffffffffffff8214156132d5576132d461330e565b5b600182019050919050565b60006132eb826132f2565b9050919050565b60006132fd826133ac565b9050919050565b6000819050919050565b7f4e487b7100000000000000000000000000000000000000000000000000000000600052601160045260246000fd5b7f4e487b7100000000000000000000000000000000000000000000000000000000600052602160045260246000fd5b7f4e487b7100000000000000000000000000000000000000000000000000000000600052604160045260246000fd5b6000601f19601f8301169050919050565b60008160601b9050919050565b600281106133ca576133c961333d565b5b50565b601481106133de576133dd61333d565b5b50565b600781106133f2576133f161333d565b5b50565b6133fe8161312c565b811461340957600080fd5b50565b6134158161314a565b811461342057600080fd5b50565b61342c81613154565b811461343757600080fd5b50565b6002811061344757600080fd5b50565b6014811061345757600080fd5b50565b6007811061346757600080fd5b50565b613473816131b9565b811461347e57600080fd5b50565b61348a816131e6565b811461349557600080fd5b50565b6134a1816131f0565b81146134ac57600080fd5b5056fea264697066735822122067557290d812f9f1302381e458395edc473502f38e94ce9838be60880cefff5464736f6c63430008000033",
  "linkReferences": {},
  "deployedLinkReferences": {}
}