{
  "_format": "hh-sol-artifact-1",
  "contractName": "ManufacturerFactory",
  "sourceName": "contracts/ManufacturerFactory.sol",
  "abi": [
    {
      "anonymous": false,
      "inputs": [
        {
          "indexed": true,
          "internalType": "address",
          "name": "previousOwner",
          "type": "address"
        },
        {
          "indexed": true,
          "internalType": "address",
          "name": "newOwner",
          "type": "address"
        }
      ],
      "name": "OwnershipTransferred",
      "type": "event"
    },
    {
      "inputs": [
        {
          "internalType": "address",
          "name": "",
          "type": "address"
        }
      ],
      "name": "contracts",
      "outputs": [
        {
          "internalType": "bool",
          "name": "",
          "type": "bool"
        }
      ],
      "stateMutability": "view",
      "type": "function"
    },
    {
      "inputs": [
        {
          "internalType": "address",
          "name": "_manufacturer",
          "type": "address"
        }
      ],
      "name": "createManufacturerContract",
      "outputs": [
        {
          "internalType": "contract ManufacturerContract",
          "name": "",
          "type": "address"
        }
      ],
      "stateMutability": "nonpayable",
      "type": "function"
    },
    {
      "inputs": [],
      "name": "owner",
      "outputs": [
        {
          "internalType": "address",
          "name": "",
          "type": "address"
        }
      ],
      "stateMutability": "view",
      "type": "function"
    },
    {
      "inputs": [],
      "name": "renounceOwnership",
      "outputs": [],
      "stateMutability": "nonpayable",
      "type": "function"
    },
    {
      "inputs": [
        {
          "internalType": "address",
          "name": "newOwner",
          "type": "address"
        }
      ],
      "name": "transferOwnership",
      "outputs": [],
      "stateMutability": "nonpayable",
      "type": "function"
    }
  ],
  "bytecode": "0x608060405234801561001057600080fd5b5061002d61002261003260201b60201c565b61003a60201b60201c565b6100fe565b600033905090565b60008060009054906101000a900473ffffffffffffffffffffffffffffffffffffffff169050816000806101000a81548173ffffffffffffffffffffffffffffffffffffffff021916908373ffffffffffffffffffffffffffffffffffffffff1602179055508173ffffffffffffffffffffffffffffffffffffffff168173ffffffffffffffffffffffffffffffffffffffff167f8be0079c531659141344cd1fd0a4f28419497f9722a3daafe3b4186f6b6457e060405160405180910390a35050565b6136788061010d6000396000f3fe60806040523480156200001157600080fd5b50600436106200005e5760003560e01c80633af89c46146200006357806369dc9ff31462000099578063715018a614620000cf5780638da5cb5b14620000db578063f2fde38b14620000fd575b600080fd5b6200008160048036038101906200007b919062000510565b6200011d565b60405162000090919062000680565b60405180910390f35b620000b76004803603810190620000b1919062000510565b62000241565b604051620000c6919062000663565b60405180910390f35b620000d962000261565b005b620000e5620002f2565b604051620000f4919062000619565b60405180910390f35b6200011b600480360381019062000115919062000510565b6200031b565b005b6000620001296200041f565b73ffffffffffffffffffffffffffffffffffffffff1662000149620002f2565b73ffffffffffffffffffffffffffffffffffffffff1614620001a2576040517f08c379a00000000000000000000000000000000000000000000000000000000081526004016200019990620006bf565b60405180910390fd5b60008233604051620001b490620004eb565b620001c192919062000636565b604051809103906000f080158015620001de573d6000803e3d6000fd5b50905060018060008373ffffffffffffffffffffffffffffffffffffffff1673ffffffffffffffffffffffffffffffffffffffff16815260200190815260200160002060006101000a81548160ff02191690831515021790555080915050919050565b60016020528060005260406000206000915054906101000a900460ff1681565b6200026b6200041f565b73ffffffffffffffffffffffffffffffffffffffff166200028b620002f2565b73ffffffffffffffffffffffffffffffffffffffff1614620002e4576040517f08c379a0000000000000000000000000000000000000000000000000000000008152600401620002db90620006bf565b60405180910390fd5b620002f0600062000427565b565b60008060009054906101000a900473ffffffffffffffffffffffffffffffffffffffff16905090565b620003256200041f565b73ffffffffffffffffffffffffffffffffffffffff1662000345620002f2565b73ffffffffffffffffffffffffffffffffffffffff16146200039e576040517f08c379a00000000000000000000000000000000000000000000000000000000081526004016200039590620006bf565b60405180910390fd5b600073ffffffffffffffffffffffffffffffffffffffff168173ffffffffffffffffffffffffffffffffffffffff16141562000411576040517f08c379a000000000000000000000000000000000000000000000000000000000815260040162000408906200069d565b60405180910390fd5b6200041c8162000427565b50565b600033905090565b60008060009054906101000a900473ffffffffffffffffffffffffffffffffffffffff169050816000806101000a81548173ffffffffffffffffffffffffffffffffffffffff021916908373ffffffffffffffffffffffffffffffffffffffff1602179055508173ffffffffffffffffffffffffffffffffffffffff168173ffffffffffffffffffffffffffffffffffffffff167f8be0079c531659141344cd1fd0a4f28419497f9722a3daafe3b4186f6b6457e060405160405180910390a35050565b612ece806200077583390190565b6000813590506200050a816200075a565b92915050565b6000602082840312156200052357600080fd5b60006200053384828501620004f9565b91505092915050565b6200054781620006f2565b82525050565b620005588162000706565b82525050565b620005698162000732565b82525050565b60006200057e602683620006e1565b91507f4f776e61626c653a206e6577206f776e657220697320746865207a65726f206160008301527f64647265737300000000000000000000000000000000000000000000000000006020830152604082019050919050565b6000620005e6602083620006e1565b91507f4f776e61626c653a2063616c6c6572206973206e6f7420746865206f776e65726000830152602082019050919050565b60006020820190506200063060008301846200053c565b92915050565b60006040820190506200064d60008301856200053c565b6200065c60208301846200053c565b9392505050565b60006020820190506200067a60008301846200054d565b92915050565b60006020820190506200069760008301846200055e565b92915050565b60006020820190508181036000830152620006b8816200056f565b9050919050565b60006020820190508181036000830152620006da81620005d7565b9050919050565b600082825260208201905092915050565b6000620006ff8262000712565b9050919050565b60008115159050919050565b600073ffffffffffffffffffffffffffffffffffffffff82169050919050565b60006200073f8262000746565b9050919050565b6000620007538262000712565b9050919050565b6200076581620006f2565b81146200077157600080fd5b5056fe60806040523480156200001157600080fd5b5060405162002ece38038062002ece833981810160405281019062000037919062000779565b80600160006101000a81548173ffffffffffffffffffffffffffffffffffffffff021916908373ffffffffffffffffffffffffffffffffffffffff1602179055506200008d6000801b826200014b60201b60201c565b620000bf7f843b48dccc6ff192f9330133622b0536f7b94feca0cf36e7e46fc50060b6f882826200016160201b60201c565b620000f17f6270edb7c868f86fda4adedba75108201087268ea345934db8bad688e1feb91b836200016160201b60201c565b620001437fc7ddcf4441a1bb01353b38db832023115117943d28ad05b882de4ad99e94b8fc7f6270edb7c868f86fda4adedba75108201087268ea345934db8bad688e1feb91b620001aa60201b60201c565b505062000b62565b6200015d82826200020d60201b60201c565b5050565b6200017282620002fe60201b60201c565b6200019381620001876200031d60201b60201c565b6200032560201b60201c565b620001a583836200020d60201b60201c565b505050565b6000620001bd83620002fe60201b60201c565b905081600080858152602001908152602001600020600101819055508181847fbd79b86ffe0ab8e8776151514217cd7cacd52c909f66475c3af44e129f0b00ff60405160405180910390a4505050565b6200021f8282620003e960201b60201c565b620002fa57600160008084815260200190815260200160002060000160008373ffffffffffffffffffffffffffffffffffffffff1673ffffffffffffffffffffffffffffffffffffffff16815260200190815260200160002060006101000a81548160ff0219169083151502179055506200029f6200031d60201b60201c565b73ffffffffffffffffffffffffffffffffffffffff168173ffffffffffffffffffffffffffffffffffffffff16837f2f8788117e7eff1d82e926ec794901d17c78024a50270940304540a733656f0d60405160405180910390a45b5050565b6000806000838152602001908152602001600020600101549050919050565b600033905090565b620003378282620003e960201b60201c565b620003e5576200036a8173ffffffffffffffffffffffffffffffffffffffff1660146200045360201b620012081760201c565b620003858360001c60206200045360201b620012081760201c565b60405160200162000398929190620008f8565b6040516020818303038152906040526040517f08c379a0000000000000000000000000000000000000000000000000000000008152600401620003dc91906200093a565b60405180910390fd5b5050565b600080600084815260200190815260200160002060000160008373ffffffffffffffffffffffffffffffffffffffff1673ffffffffffffffffffffffffffffffffffffffff16815260200190815260200160002060009054906101000a900460ff16905092915050565b60606000600283600262000468919062000a04565b620004749190620009a7565b67ffffffffffffffff811115620004b4577f4e487b7100000000000000000000000000000000000000000000000000000000600052604160045260246000fd5b6040519080825280601f01601f191660200182016040528015620004e75781602001600182028036833780820191505090505b5090507f30000000000000000000000000000000000000000000000000000000000000008160008151811062000546577f4e487b7100000000000000000000000000000000000000000000000000000000600052603260045260246000fd5b60200101907effffffffffffffffffffffffffffffffffffffffffffffffffffffffffffff1916908160001a9053507f780000000000000000000000000000000000000000000000000000000000000081600181518110620005d1577f4e487b7100000000000000000000000000000000000000000000000000000000600052603260045260246000fd5b60200101907effffffffffffffffffffffffffffffffffffffffffffffffffffffffffffff1916908160001a9053506000600184600262000613919062000a04565b6200061f9190620009a7565b90505b600181111562000711577f3031323334353637383961626364656600000000000000000000000000000000600f86166010811062000689577f4e487b7100000000000000000000000000000000000000000000000000000000600052603260045260246000fd5b1a60f81b828281518110620006c7577f4e487b7100000000000000000000000000000000000000000000000000000000600052603260045260246000fd5b60200101907effffffffffffffffffffffffffffffffffffffffffffffffffffffffffffff1916908160001a905350600485901c945080620007099062000ad9565b905062000622565b506000841462000758576040517f08c379a00000000000000000000000000000000000000000000000000000000081526004016200074f906200095e565b60405180910390fd5b8091505092915050565b600081519050620007738162000b48565b92915050565b600080604083850312156200078d57600080fd5b60006200079d8582860162000762565b9250506020620007b08582860162000762565b9150509250929050565b6000620007c78262000980565b620007d381856200098b565b9350620007e581856020860162000aa3565b620007f08162000b37565b840191505092915050565b6000620008088262000980565b6200081481856200099c565b93506200082681856020860162000aa3565b80840191505092915050565b6000620008416020836200098b565b91507f537472696e67733a20686578206c656e67746820696e73756666696369656e746000830152602082019050919050565b6000620008836017836200099c565b91507f416363657373436f6e74726f6c3a206163636f756e74200000000000000000006000830152601782019050919050565b6000620008c56011836200099c565b91507f206973206d697373696e6720726f6c65200000000000000000000000000000006000830152601182019050919050565b6000620009058262000874565b9150620009138285620007fb565b91506200092082620008b6565b91506200092e8284620007fb565b91508190509392505050565b60006020820190508181036000830152620009568184620007ba565b905092915050565b60006020820190508181036000830152620009798162000832565b9050919050565b600081519050919050565b600082825260208201905092915050565b600081905092915050565b6000620009b48262000a99565b9150620009c18362000a99565b9250827fffffffffffffffffffffffffffffffffffffffffffffffffffffffffffffffff03821115620009f957620009f862000b08565b5b828201905092915050565b600062000a118262000a99565b915062000a1e8362000a99565b9250817fffffffffffffffffffffffffffffffffffffffffffffffffffffffffffffffff048311821515161562000a5a5762000a5962000b08565b5b828202905092915050565b600062000a728262000a79565b9050919050565b600073ffffffffffffffffffffffffffffffffffffffff82169050919050565b6000819050919050565b60005b8381101562000ac357808201518184015260208101905062000aa6565b8381111562000ad3576000848401525b50505050565b600062000ae68262000a99565b9150600082141562000afd5762000afc62000b08565b5b600182039050919050565b7f4e487b7100000000000000000000000000000000000000000000000000000000600052601160045260246000fd5b6000601f19601f8301169050919050565b62000b538162000a65565b811462000b5f57600080fd5b50565b61235c8062000b726000396000f3fe608060405234801561001057600080fd5b50600436106101375760003560e01c806379dd18c4116100b8578063bf7e214f1161007c578063bf7e214f1461033a578063c075820714610358578063c5c400de14610388578063d547741f146103bd578063e1f653b1146103d9578063f8ada5b31461040957610137565b806379dd18c4146102965780638376e5ae146102b257806389fcd796146102ce57806391d14854146102ec578063a217fddf1461031c57610137565b806330425cc4116100ff57806330425cc4146101f257806336568abe1461022257806337a0701a1461023e5780634a2d5c9d1461025c578063641fae3c1461027a57610137565b806301ffc9a71461013c578063117803e31461016c578063156648801461018a578063248a9ca3146101a65780632f2ff15d146101d6575b600080fd5b610156600480360381019061015191906119ae565b610425565b6040516101639190611ea6565b60405180910390f35b61017461049f565b6040516101819190611ec1565b60405180910390f35b6101a4600480360381019061019f919061190d565b6104c3565b005b6101c060048036038101906101bb919061190d565b610683565b6040516101cd9190611ec1565b60405180910390f35b6101f060048036038101906101eb9190611936565b6106a2565b005b61020c600480360381019061020791906119d7565b6106cb565b6040516102199190611ec1565b60405180910390f35b61023c60048036038101906102379190611936565b6106ef565b005b610246610772565b6040516102539190612001565b60405180910390f35b61026461077f565b6040516102719190611ec1565b60405180910390f35b610294600480360381019061028f91906118aa565b6107a3565b005b6102b060048036038101906102ab9190611972565b61096c565b005b6102cc60048036038101906102c79190611881565b6109e0565b005b6102d6610a50565b6040516102e39190611ec1565b60405180910390f35b61030660048036038101906103019190611936565b610a74565b6040516103139190611ea6565b60405180910390f35b610324610ade565b6040516103319190611ec1565b60405180910390f35b610342610ae5565b60405161034f9190611e8b565b60405180910390f35b610372600480360381019061036d919061190d565b610b0b565b60405161037f9190611fdf565b60405180910390f35b6103a2600480360381019061039d919061190d565b610c3e565b6040516103b496959493929190611edc565b60405180910390f35b6103d760048036038101906103d29190611936565b610cbc565b005b6103f360048036038101906103ee91906119d7565b610ce5565b6040516104009190611fdf565b60405180910390f35b610423600480360381019061041e9190611972565b610e79565b005b60007f7965db0b000000000000000000000000000000000000000000000000000000007bffffffffffffffffffffffffffffffffffffffffffffffffffffffff1916827bffffffffffffffffffffffffffffffffffffffffffffffffffffffff19161480610498575061049782611502565b5b9050919050565b7f6270edb7c868f86fda4adedba75108201087268ea345934db8bad688e1feb91b81565b6104ed7f6270edb7c868f86fda4adedba75108201087268ea345934db8bad688e1feb91b32610a74565b8061051e575061051d7fc7ddcf4441a1bb01353b38db832023115117943d28ad05b882de4ad99e94b8fc32610a74565b5b8061053257506105316000801b33610a74565b5b61053b57600080fd5b60006002600083815260200190815260200160002090508060030160119054906101000a900460ff16801561057f57508060030160109054906101000a900460ff16155b6105be576040517f08c379a00000000000000000000000000000000000000000000000000000000081526004016105b590611f9f565b60405180910390fd5b60018160030160106101000a81548160ff0219169083151502179055504263ffffffff168160030160086101000a81548167ffffffffffffffff021916908367ffffffffffffffff1602179055508060030160089054906101000a900467ffffffffffffffff1667ffffffffffffffff168160030160009054906101000a900467ffffffffffffffff1667ffffffffffffffff16837f31940a9e4e849a80c49b2a1b09c40b679fd4a48f332c12abb3864c3905ef12dc60405160405180910390a45050565b6000806000838152602001908152602001600020600101549050919050565b6106ab82610683565b6106bc816106b761156c565b611574565b6106c68383611611565b505050565b600381815481106106db57600080fd5b906000526020600020016000915090505481565b6106f761156c565b73ffffffffffffffffffffffffffffffffffffffff168173ffffffffffffffffffffffffffffffffffffffff1614610764576040517f08c379a000000000000000000000000000000000000000000000000000000000815260040161075b90611fbf565b60405180910390fd5b61076e82826116f1565b5050565b6000600380549050905090565b7fc7ddcf4441a1bb01353b38db832023115117943d28ad05b882de4ad99e94b8fc81565b6107cd7fc7ddcf4441a1bb01353b38db832023115117943d28ad05b882de4ad99e94b8fc856106a2565b30600460008673ffffffffffffffffffffffffffffffffffffffff1673ffffffffffffffffffffffffffffffffffffffff16815260200190815260200160002060000160006101000a81548173ffffffffffffffffffffffffffffffffffffffff021916908373ffffffffffffffffffffffffffffffffffffffff16021790555082600460008673ffffffffffffffffffffffffffffffffffffffff1673ffffffffffffffffffffffffffffffffffffffff1681526020019081526020016000206001018190555081600460008673ffffffffffffffffffffffffffffffffffffffff1673ffffffffffffffffffffffffffffffffffffffff1681526020019081526020016000206002018190555080600460008673ffffffffffffffffffffffffffffffffffffffff1673ffffffffffffffffffffffffffffffffffffffff168152602001908152602001600020600301819055508373ffffffffffffffffffffffffffffffffffffffff167ff0f7d8c5ce42f07387388b98c5bc129be0d2092a62b3f97a797caecb2461aeb760405160405180910390a250505050565b6109967f843b48dccc6ff192f9330133622b0536f7b94feca0cf36e7e46fc50060b6f88233610a74565b61099f57600080fd5b600260008381526020019081526020016000206002018190806001815401808255809150506001900390600052602060002001600090919091909150555050565b610a0a7fc7ddcf4441a1bb01353b38db832023115117943d28ad05b882de4ad99e94b8fc82610cbc565b8073ffffffffffffffffffffffffffffffffffffffff167f98561cbe7c9c0b90726130c8409b307d4c9698c9e7ee2797aea68659cad1049460405160405180910390a250565b7f843b48dccc6ff192f9330133622b0536f7b94feca0cf36e7e46fc50060b6f88281565b600080600084815260200190815260200160002060000160008373ffffffffffffffffffffffffffffffffffffffff1673ffffffffffffffffffffffffffffffffffffffff16815260200190815260200160002060009054906101000a900460ff16905092915050565b6000801b81565b600160009054906101000a900473ffffffffffffffffffffffffffffffffffffffff1681565b610b136117d2565b600260008381526020019081526020016000206040518060e0016040529081600082015481526020016001820154815260200160028201805480602002602001604051908101604052809291908181526020018280548015610b9457602002820191906000526020600020905b815481526020019060010190808311610b80575b505050505081526020016003820160009054906101000a900467ffffffffffffffff1667ffffffffffffffff1667ffffffffffffffff1681526020016003820160089054906101000a900467ffffffffffffffff1667ffffffffffffffff1667ffffffffffffffff1681526020016003820160109054906101000a900460ff161515151581526020016003820160119054906101000a900460ff1615151515815250509050919050565b60026020528060005260406000206000915090508060000154908060010154908060030160009054906101000a900467ffffffffffffffff16908060030160089054906101000a900467ffffffffffffffff16908060030160109054906101000a900460ff16908060030160119054906101000a900460ff16905086565b610cc582610683565b610cd681610cd161156c565b611574565b610ce083836116f1565b505050565b610ced6117d2565b6001600380549050610cff919061212c565b8210610d0a57600080fd5b6002600060038481548110610d48577f4e487b7100000000000000000000000000000000000000000000000000000000600052603260045260246000fd5b906000526020600020015481526020019081526020016000206040518060e0016040529081600082015481526020016001820154815260200160028201805480602002602001604051908101604052809291908181526020018280548015610dcf57602002820191906000526020600020905b815481526020019060010190808311610dbb575b505050505081526020016003820160009054906101000a900467ffffffffffffffff1667ffffffffffffffff1667ffffffffffffffff1681526020016003820160089054906101000a900467ffffffffffffffff1667ffffffffffffffff1667ffffffffffffffff1681526020016003820160109054906101000a900460ff161515151581526020016003820160119054906101000a900460ff1615151515815250509050919050565b610ea37f6270edb7c868f86fda4adedba75108201087268ea345934db8bad688e1feb91b32610a74565b80610ed45750610ed37fc7ddcf4441a1bb01353b38db832023115117943d28ad05b882de4ad99e94b8fc32610a74565b5b80610ee85750610ee76000801b33610a74565b5b610ef157600080fd5b6000308383604051602001610f0893929190611e14565b6040516020818303038152906040528051906020012090506002600082815260200190815260200160002060030160119054906101000a900460ff161580610f7057506002600082815260200190815260200160002060030160109054906101000a900460ff165b610faf576040517f08c379a0000000000000000000000000000000000000000000000000000000008152600401610fa690611f7f565b60405180910390fd5b6002600082815260200190815260200160002060030160109054906101000a900460ff161561103b5760006002600083815260200190815260200160002060030160106101000a81548160ff02191690831515021790555060016002600083815260200190815260200160002060030160116101000a81548160ff0219169083151502179055506111cf565b8260026000838152602001908152602001600020600001819055508160026000838152602001908152602001600020600101819055504263ffffffff166002600083815260200190815260200160002060030160006101000a81548167ffffffffffffffff021916908367ffffffffffffffff16021790555060016002600083815260200190815260200160002060030160116101000a81548160ff02191690831515021790555060006002600083815260200190815260200160002060030160106101000a81548160ff02191690831515021790555060038190806001815401808255809150506001900390600052602060002001600090919091909150556000600160009054906101000a900473ffffffffffffffffffffffffffffffffffffffff1690508073ffffffffffffffffffffffffffffffffffffffff16632a819728836040518263ffffffff1660e01b815260040161119b9190611ec1565b600060405180830381600087803b1580156111b557600080fd5b505af11580156111c9573d6000803e3d6000fd5b50505050505b4263ffffffff16817f5d4e445d8e086772582b5f180734d62a0ec5a5c52e3f0a65f0f843e5996e8ef460405160405180910390a3505050565b60606000600283600261121b91906120d2565b611225919061207c565b67ffffffffffffffff811115611264577f4e487b7100000000000000000000000000000000000000000000000000000000600052604160045260246000fd5b6040519080825280601f01601f1916602001820160405280156112965781602001600182028036833780820191505090505b5090507f3000000000000000000000000000000000000000000000000000000000000000816000815181106112f4577f4e487b7100000000000000000000000000000000000000000000000000000000600052603260045260246000fd5b60200101907effffffffffffffffffffffffffffffffffffffffffffffffffffffffffffff1916908160001a9053507f78000000000000000000000000000000000000000000000000000000000000008160018151811061137e577f4e487b7100000000000000000000000000000000000000000000000000000000600052603260045260246000fd5b60200101907effffffffffffffffffffffffffffffffffffffffffffffffffffffffffffff1916908160001a905350600060018460026113be91906120d2565b6113c8919061207c565b90505b60018111156114b4577f3031323334353637383961626364656600000000000000000000000000000000600f861660108110611430577f4e487b7100000000000000000000000000000000000000000000000000000000600052603260045260246000fd5b1a60f81b82828151811061146d577f4e487b7100000000000000000000000000000000000000000000000000000000600052603260045260246000fd5b60200101907effffffffffffffffffffffffffffffffffffffffffffffffffffffffffffff1916908160001a905350600485901c9450806114ad90612225565b90506113cb565b50600084146114f8576040517f08c379a00000000000000000000000000000000000000000000000000000000081526004016114ef90611f5f565b60405180910390fd5b8091505092915050565b60007f01ffc9a7000000000000000000000000000000000000000000000000000000007bffffffffffffffffffffffffffffffffffffffffffffffffffffffff1916827bffffffffffffffffffffffffffffffffffffffffffffffffffffffff1916149050919050565b600033905090565b61157e8282610a74565b61160d576115a38173ffffffffffffffffffffffffffffffffffffffff166014611208565b6115b18360001c6020611208565b6040516020016115c2929190611e51565b6040516020818303038152906040526040517f08c379a00000000000000000000000000000000000000000000000000000000081526004016116049190611f3d565b60405180910390fd5b5050565b61161b8282610a74565b6116ed57600160008084815260200190815260200160002060000160008373ffffffffffffffffffffffffffffffffffffffff1673ffffffffffffffffffffffffffffffffffffffff16815260200190815260200160002060006101000a81548160ff02191690831515021790555061169261156c565b73ffffffffffffffffffffffffffffffffffffffff168173ffffffffffffffffffffffffffffffffffffffff16837f2f8788117e7eff1d82e926ec794901d17c78024a50270940304540a733656f0d60405160405180910390a45b5050565b6116fb8282610a74565b156117ce57600080600084815260200190815260200160002060000160008373ffffffffffffffffffffffffffffffffffffffff1673ffffffffffffffffffffffffffffffffffffffff16815260200190815260200160002060006101000a81548160ff02191690831515021790555061177361156c565b73ffffffffffffffffffffffffffffffffffffffff168173ffffffffffffffffffffffffffffffffffffffff16837ff6391f5c32d9c69d2a47ea670b442974b53935d1edc7fd64eb21e047a839171b60405160405180910390a45b5050565b6040518060e00160405280600080191681526020016000801916815260200160608152602001600067ffffffffffffffff168152602001600067ffffffffffffffff1681526020016000151581526020016000151581525090565b60008135905061183c816122ca565b92915050565b600081359050611851816122e1565b92915050565b600081359050611866816122f8565b92915050565b60008135905061187b8161230f565b92915050565b60006020828403121561189357600080fd5b60006118a18482850161182d565b91505092915050565b600080600080608085870312156118c057600080fd5b60006118ce8782880161182d565b94505060206118df87828801611842565b93505060406118f087828801611842565b925050606061190187828801611842565b91505092959194509250565b60006020828403121561191f57600080fd5b600061192d84828501611842565b91505092915050565b6000806040838503121561194957600080fd5b600061195785828601611842565b92505060206119688582860161182d565b9150509250929050565b6000806040838503121561198557600080fd5b600061199385828601611842565b92505060206119a485828601611842565b9150509250929050565b6000602082840312156119c057600080fd5b60006119ce84828501611857565b91505092915050565b6000602082840312156119e957600080fd5b60006119f78482850161186c565b91505092915050565b6000611a0c8383611aba565b60208301905092915050565b611a2181612160565b82525050565b611a38611a3382612160565b61224f565b82525050565b6000611a498261202c565b611a53818561204f565b9350611a5e8361201c565b8060005b83811015611a8f578151611a768882611a00565b9750611a8183612042565b925050600181019050611a62565b5085935050505092915050565b611aa581612172565b82525050565b611ab481612172565b82525050565b611ac38161217e565b82525050565b611ad28161217e565b82525050565b611ae9611ae48261217e565b612261565b82525050565b6000611afa82612037565b611b048185612060565b9350611b148185602086016121f2565b611b1d816122ac565b840191505092915050565b6000611b3382612037565b611b3d8185612071565b9350611b4d8185602086016121f2565b80840191505092915050565b6000611b66602083612060565b91507f537472696e67733a20686578206c656e67746820696e73756666696369656e746000830152602082019050919050565b6000611ba6602183612060565b91507f546869732064657669636520697320616c72656164792072656769737465726560008301527f64000000000000000000000000000000000000000000000000000000000000006020830152604082019050919050565b6000611c0c602d83612060565b91507f4120646576696365206d757374206265207265676973746572656420746f207560008301527f6e2d7265676973746572206974000000000000000000000000000000000000006020830152604082019050919050565b6000611c72601783612071565b91507f416363657373436f6e74726f6c3a206163636f756e74200000000000000000006000830152601782019050919050565b6000611cb2601183612071565b91507f206973206d697373696e6720726f6c65200000000000000000000000000000006000830152601182019050919050565b6000611cf2602f83612060565b91507f416363657373436f6e74726f6c3a2063616e206f6e6c792072656e6f756e636560008301527f20726f6c657320666f722073656c6600000000000000000000000000000000006020830152604082019050919050565b600060e083016000830151611d636000860182611aba565b506020830151611d766020860182611aba565b5060408301518482036040860152611d8e8282611a3e565b9150506060830151611da36060860182611df6565b506080830151611db66080860182611df6565b5060a0830151611dc960a0860182611a9c565b5060c0830151611ddc60c0860182611a9c565b508091505092915050565b611df0816121d4565b82525050565b611dff816121de565b82525050565b611e0e816121de565b82525050565b6000611e208286611a27565b601482019150611e308285611ad8565b602082019150611e408284611ad8565b602082019150819050949350505050565b6000611e5c82611c65565b9150611e688285611b28565b9150611e7382611ca5565b9150611e7f8284611b28565b91508190509392505050565b6000602082019050611ea06000830184611a18565b92915050565b6000602082019050611ebb6000830184611aab565b92915050565b6000602082019050611ed66000830184611ac9565b92915050565b600060c082019050611ef16000830189611ac9565b611efe6020830188611ac9565b611f0b6040830187611e05565b611f186060830186611e05565b611f256080830185611aab565b611f3260a0830184611aab565b979650505050505050565b60006020820190508181036000830152611f578184611aef565b905092915050565b60006020820190508181036000830152611f7881611b59565b9050919050565b60006020820190508181036000830152611f9881611b99565b9050919050565b60006020820190508181036000830152611fb881611bff565b9050919050565b60006020820190508181036000830152611fd881611ce5565b9050919050565b60006020820190508181036000830152611ff98184611d4b565b905092915050565b60006020820190506120166000830184611de7565b92915050565b6000819050602082019050919050565b600081519050919050565b600081519050919050565b6000602082019050919050565b600082825260208201905092915050565b600082825260208201905092915050565b600081905092915050565b6000612087826121d4565b9150612092836121d4565b9250827fffffffffffffffffffffffffffffffffffffffffffffffffffffffffffffffff038211156120c7576120c661227d565b5b828201905092915050565b60006120dd826121d4565b91506120e8836121d4565b9250817fffffffffffffffffffffffffffffffffffffffffffffffffffffffffffffffff04831182151516156121215761212061227d565b5b828202905092915050565b6000612137826121d4565b9150612142836121d4565b9250828210156121555761215461227d565b5b828203905092915050565b600061216b826121b4565b9050919050565b60008115159050919050565b6000819050919050565b60007fffffffff0000000000000000000000000000000000000000000000000000000082169050919050565b600073ffffffffffffffffffffffffffffffffffffffff82169050919050565b6000819050919050565b600067ffffffffffffffff82169050919050565b60005b838110156122105780820151818401526020810190506121f5565b8381111561221f576000848401525b50505050565b6000612230826121d4565b915060008214156122445761224361227d565b5b600182039050919050565b600061225a8261226b565b9050919050565b6000819050919050565b6000612276826122bd565b9050919050565b7f4e487b7100000000000000000000000000000000000000000000000000000000600052601160045260246000fd5b6000601f19601f8301169050919050565b60008160601b9050919050565b6122d381612160565b81146122de57600080fd5b50565b6122ea8161217e565b81146122f557600080fd5b50565b61230181612188565b811461230c57600080fd5b50565b612318816121d4565b811461232357600080fd5b5056fea26469706673582212207a6e58661412d526693afb27e3adece641480a9aa0186710063fb4e3fc013d2064736f6c63430008000033a264697066735822122096bc719c4b39ec7b7b11195915b1223a1cedcc67638097b87b47976a7677909e64736f6c63430008000033",
  "linkReferences": {},
  "deployedLinkReferences": {}
}