{
  "_format": "hh-sol-artifact-1",
  "contractName": "LaboratoryContract",
  "sourceName": "contracts/LaboratoryContract.sol",
  "abi": [
    {
      "inputs": [
        {
          "internalType": "address",
          "name": "_laboratory",
          "type": "address"
        },
        {
          "internalType": "address",
          "name": "_authority",
          "type": "address"
        }
      ],
      "stateMutability": "nonpayable",
      "type": "constructor"
    },
    {
      "anonymous": false,
      "inputs": [
        {
          "indexed": true,
          "internalType": "bytes32",
          "name": "_certID",
          "type": "bytes32"
        },
        {
          "indexed": true,
          "internalType": "uint64",
          "name": "_validFrom",
          "type": "uint64"
        },
        {
          "indexed": true,
          "internalType": "uint64",
          "name": "_validTo",
          "type": "uint64"
        }
      ],
      "name": "CertificateRegistered",
      "type": "event"
    },
    {
      "anonymous": false,
      "inputs": [
        {
          "indexed": true,
          "internalType": "bytes32",
          "name": "_certID",
          "type": "bytes32"
        },
        {
          "indexed": true,
          "internalType": "uint64",
          "name": "_validTo",
          "type": "uint64"
        }
      ],
      "name": "CertificateRevoked",
      "type": "event"
    },
    {
      "anonymous": false,
      "inputs": [
        {
          "indexed": true,
          "internalType": "address",
          "name": "delegate",
          "type": "address"
        }
      ],
      "name": "DelegateRegistered",
      "type": "event"
    },
    {
      "anonymous": false,
      "inputs": [
        {
          "indexed": true,
          "internalType": "address",
          "name": "delegate",
          "type": "address"
        }
      ],
      "name": "DelegateUnregistered",
      "type": "event"
    },
    {
      "anonymous": false,
      "inputs": [
        {
          "indexed": true,
          "internalType": "bytes32",
          "name": "_devID",
          "type": "bytes32"
        },
        {
          "indexed": true,
          "internalType": "uint64",
          "name": "_validFrom",
          "type": "uint64"
        },
        {
          "indexed": true,
          "internalType": "uint64",
          "name": "_validTo",
          "type": "uint64"
        }
      ],
      "name": "EquipmentRegistered",
      "type": "event"
    },
    {
      "anonymous": false,
      "inputs": [
        {
          "indexed": true,
          "internalType": "bytes32",
          "name": "_devID",
          "type": "bytes32"
        },
        {
          "indexed": true,
          "internalType": "uint64",
          "name": "_validFrom",
          "type": "uint64"
        },
        {
          "indexed": true,
          "internalType": "uint64",
          "name": "_validTo",
          "type": "uint64"
        }
      ],
      "name": "EquipmentUnregistered",
      "type": "event"
    },
    {
      "anonymous": false,
      "inputs": [
        {
          "indexed": true,
          "internalType": "bytes32",
          "name": "role",
          "type": "bytes32"
        },
        {
          "indexed": true,
          "internalType": "bytes32",
          "name": "previousAdminRole",
          "type": "bytes32"
        },
        {
          "indexed": true,
          "internalType": "bytes32",
          "name": "newAdminRole",
          "type": "bytes32"
        }
      ],
      "name": "RoleAdminChanged",
      "type": "event"
    },
    {
      "anonymous": false,
      "inputs": [
        {
          "indexed": true,
          "internalType": "bytes32",
          "name": "role",
          "type": "bytes32"
        },
        {
          "indexed": true,
          "internalType": "address",
          "name": "account",
          "type": "address"
        },
        {
          "indexed": true,
          "internalType": "address",
          "name": "sender",
          "type": "address"
        }
      ],
      "name": "RoleGranted",
      "type": "event"
    },
    {
      "anonymous": false,
      "inputs": [
        {
          "indexed": true,
          "internalType": "bytes32",
          "name": "role",
          "type": "bytes32"
        },
        {
          "indexed": true,
          "internalType": "address",
          "name": "account",
          "type": "address"
        },
        {
          "indexed": true,
          "internalType": "address",
          "name": "sender",
          "type": "address"
        }
      ],
      "name": "RoleRevoked",
      "type": "event"
    },
    {
      "inputs": [],
      "name": "AUTHORITY",
      "outputs": [
        {
          "internalType": "bytes32",
          "name": "",
          "type": "bytes32"
        }
      ],
      "stateMutability": "view",
      "type": "function"
    },
    {
      "inputs": [],
      "name": "DEFAULT_ADMIN_ROLE",
      "outputs": [
        {
          "internalType": "bytes32",
          "name": "",
          "type": "bytes32"
        }
      ],
      "stateMutability": "view",
      "type": "function"
    },
    {
      "inputs": [],
      "name": "DELEGATE",
      "outputs": [
        {
          "internalType": "bytes32",
          "name": "",
          "type": "bytes32"
        }
      ],
      "stateMutability": "view",
      "type": "function"
    },
    {
      "inputs": [],
      "name": "OWNER",
      "outputs": [
        {
          "internalType": "bytes32",
          "name": "",
          "type": "bytes32"
        }
      ],
      "stateMutability": "view",
      "type": "function"
    },
    {
      "inputs": [],
      "name": "authority",
      "outputs": [
        {
          "internalType": "address",
          "name": "",
          "type": "address"
        }
      ],
      "stateMutability": "view",
      "type": "function"
    },
    {
      "inputs": [
        {
          "internalType": "bytes32",
          "name": "_devID",
          "type": "bytes32"
        },
        {
          "internalType": "bytes32[]",
          "name": "_EquipmentIDs",
          "type": "bytes32[]"
        },
        {
          "internalType": "bytes32",
          "name": "_certificateLacation",
          "type": "bytes32"
        },
        {
          "internalType": "uint64",
          "name": "_validTo",
          "type": "uint64"
        }
      ],
      "name": "certify",
      "outputs": [],
      "stateMutability": "nonpayable",
      "type": "function"
    },
    {
      "inputs": [
        {
          "internalType": "bytes32",
          "name": "_ID",
          "type": "bytes32"
        }
      ],
      "name": "getCertificateById",
      "outputs": [
        {
          "components": [
            {
              "internalType": "bytes32",
              "name": "devId",
              "type": "bytes32"
            },
            {
              "internalType": "address",
              "name": "responsible",
              "type": "address"
            },
            {
              "internalType": "bytes32[]",
              "name": "equipments",
              "type": "bytes32[]"
            },
            {
              "internalType": "bytes32",
              "name": "certificateLacation",
              "type": "bytes32"
            },
            {
              "internalType": "uint64",
              "name": "validFrom",
              "type": "uint64"
            },
            {
              "internalType": "uint64",
              "name": "validTo",
              "type": "uint64"
            },
            {
              "internalType": "bool",
              "name": "revoked",
              "type": "bool"
            },
            {
              "internalType": "bool",
              "name": "registered",
              "type": "bool"
            }
          ],
          "internalType": "struct Structs.CalibrationCertificate",
          "name": "",
          "type": "tuple"
        }
      ],
      "stateMutability": "view",
      "type": "function"
    },
    {
      "inputs": [
        {
          "internalType": "uint256",
          "name": "_index",
          "type": "uint256"
        }
      ],
      "name": "getCertificateByIndex",
      "outputs": [
        {
          "components": [
            {
              "internalType": "bytes32",
              "name": "devId",
              "type": "bytes32"
            },
            {
              "internalType": "address",
              "name": "responsible",
              "type": "address"
            },
            {
              "internalType": "bytes32[]",
              "name": "equipments",
              "type": "bytes32[]"
            },
            {
              "internalType": "bytes32",
              "name": "certificateLacation",
              "type": "bytes32"
            },
            {
              "internalType": "uint64",
              "name": "validFrom",
              "type": "uint64"
            },
            {
              "internalType": "uint64",
              "name": "validTo",
              "type": "uint64"
            },
            {
              "internalType": "bool",
              "name": "revoked",
              "type": "bool"
            },
            {
              "internalType": "bool",
              "name": "registered",
              "type": "bool"
            }
          ],
          "internalType": "struct Structs.CalibrationCertificate",
          "name": "",
          "type": "tuple"
        }
      ],
      "stateMutability": "view",
      "type": "function"
    },
    {
      "inputs": [],
      "name": "getCertificateCount",
      "outputs": [
        {
          "internalType": "uint256",
          "name": "",
          "type": "uint256"
        }
      ],
      "stateMutability": "view",
      "type": "function"
    },
    {
      "inputs": [
        {
          "internalType": "bytes32",
          "name": "_ID",
          "type": "bytes32"
        }
      ],
      "name": "getEquipmentById",
      "outputs": [
        {
          "components": [
            {
              "internalType": "address",
              "name": "propretary",
              "type": "address"
            },
            {
              "internalType": "bool",
              "name": "rented",
              "type": "bool"
            },
            {
              "internalType": "uint64",
              "name": "validFrom",
              "type": "uint64"
            },
            {
              "internalType": "uint64",
              "name": "validTo",
              "type": "uint64"
            },
            {
              "internalType": "bool",
              "name": "active",
              "type": "bool"
            }
          ],
          "internalType": "struct Structs.Equipment",
          "name": "",
          "type": "tuple"
        }
      ],
      "stateMutability": "view",
      "type": "function"
    },
    {
      "inputs": [],
      "name": "getEquipmentCount",
      "outputs": [
        {
          "internalType": "uint256",
          "name": "",
          "type": "uint256"
        }
      ],
      "stateMutability": "view",
      "type": "function"
    },
    {
      "inputs": [
        {
          "internalType": "uint256",
          "name": "_index",
          "type": "uint256"
        }
      ],
      "name": "getEquipmentbyIndex",
      "outputs": [
        {
          "components": [
            {
              "internalType": "address",
              "name": "propretary",
              "type": "address"
            },
            {
              "internalType": "bool",
              "name": "rented",
              "type": "bool"
            },
            {
              "internalType": "uint64",
              "name": "validFrom",
              "type": "uint64"
            },
            {
              "internalType": "uint64",
              "name": "validTo",
              "type": "uint64"
            },
            {
              "internalType": "bool",
              "name": "active",
              "type": "bool"
            }
          ],
          "internalType": "struct Structs.Equipment",
          "name": "",
          "type": "tuple"
        }
      ],
      "stateMutability": "view",
      "type": "function"
    },
    {
      "inputs": [
        {
          "internalType": "bytes32",
          "name": "role",
          "type": "bytes32"
        }
      ],
      "name": "getRoleAdmin",
      "outputs": [
        {
          "internalType": "bytes32",
          "name": "",
          "type": "bytes32"
        }
      ],
      "stateMutability": "view",
      "type": "function"
    },
    {
      "inputs": [
        {
          "internalType": "bytes32",
          "name": "role",
          "type": "bytes32"
        },
        {
          "internalType": "address",
          "name": "account",
          "type": "address"
        }
      ],
      "name": "grantRole",
      "outputs": [],
      "stateMutability": "nonpayable",
      "type": "function"
    },
    {
      "inputs": [
        {
          "internalType": "bytes32",
          "name": "role",
          "type": "bytes32"
        },
        {
          "internalType": "address",
          "name": "account",
          "type": "address"
        }
      ],
      "name": "hasRole",
      "outputs": [
        {
          "internalType": "bool",
          "name": "",
          "type": "bool"
        }
      ],
      "stateMutability": "view",
      "type": "function"
    },
    {
      "inputs": [
        {
          "internalType": "address",
          "name": "_delegate",
          "type": "address"
        },
        {
          "internalType": "bytes32",
          "name": "_name",
          "type": "bytes32"
        },
        {
          "internalType": "bytes32",
          "name": "_email",
          "type": "bytes32"
        },
        {
          "internalType": "bytes32",
          "name": "_title",
          "type": "bytes32"
        }
      ],
      "name": "registerDelegate",
      "outputs": [],
      "stateMutability": "nonpayable",
      "type": "function"
    },
    {
      "inputs": [
        {
          "internalType": "bytes32",
          "name": "_devID",
          "type": "bytes32"
        },
        {
          "internalType": "address",
          "name": "_propretary",
          "type": "address"
        },
        {
          "internalType": "bool",
          "name": "_rented",
          "type": "bool"
        },
        {
          "internalType": "uint64",
          "name": "_validTo",
          "type": "uint64"
        }
      ],
      "name": "registerEquipment",
      "outputs": [],
      "stateMutability": "nonpayable",
      "type": "function"
    },
    {
      "inputs": [
        {
          "internalType": "bytes32",
          "name": "role",
          "type": "bytes32"
        },
        {
          "internalType": "address",
          "name": "account",
          "type": "address"
        }
      ],
      "name": "renounceRole",
      "outputs": [],
      "stateMutability": "nonpayable",
      "type": "function"
    },
    {
      "inputs": [
        {
          "internalType": "bytes32",
          "name": "_certID",
          "type": "bytes32"
        }
      ],
      "name": "revokeCertificate",
      "outputs": [],
      "stateMutability": "nonpayable",
      "type": "function"
    },
    {
      "inputs": [
        {
          "internalType": "bytes32",
          "name": "role",
          "type": "bytes32"
        },
        {
          "internalType": "address",
          "name": "account",
          "type": "address"
        }
      ],
      "name": "revokeRole",
      "outputs": [],
      "stateMutability": "nonpayable",
      "type": "function"
    },
    {
      "inputs": [
        {
          "internalType": "bytes4",
          "name": "interfaceId",
          "type": "bytes4"
        }
      ],
      "name": "supportsInterface",
      "outputs": [
        {
          "internalType": "bool",
          "name": "",
          "type": "bool"
        }
      ],
      "stateMutability": "view",
      "type": "function"
    },
    {
      "inputs": [
        {
          "internalType": "address",
          "name": "_delegate",
          "type": "address"
        }
      ],
      "name": "unregisterDelegate",
      "outputs": [],
      "stateMutability": "nonpayable",
      "type": "function"
    },
    {
      "inputs": [
        {
          "internalType": "bytes32",
          "name": "_devID",
          "type": "bytes32"
        }
      ],
      "name": "unregisterEquipment",
      "outputs": [],
      "stateMutability": "nonpayable",
      "type": "function"
    }
  ],
  "bytecode": "0x60806040523480156200001157600080fd5b50604051620039da380380620039da833981810160405281019062000037919062000779565b80600160006101000a81548173ffffffffffffffffffffffffffffffffffffffff021916908373ffffffffffffffffffffffffffffffffffffffff1602179055506200008d6000801b826200014b60201b60201c565b620000bf7f843b48dccc6ff192f9330133622b0536f7b94feca0cf36e7e46fc50060b6f882826200016160201b60201c565b620000f17f6270edb7c868f86fda4adedba75108201087268ea345934db8bad688e1feb91b836200016160201b60201c565b620001437fc7ddcf4441a1bb01353b38db832023115117943d28ad05b882de4ad99e94b8fc7f6270edb7c868f86fda4adedba75108201087268ea345934db8bad688e1feb91b620001aa60201b60201c565b505062000b62565b6200015d82826200020d60201b60201c565b5050565b6200017282620002fe60201b60201c565b6200019381620001876200031d60201b60201c565b6200032560201b60201c565b620001a583836200020d60201b60201c565b505050565b6000620001bd83620002fe60201b60201c565b905081600080858152602001908152602001600020600101819055508181847fbd79b86ffe0ab8e8776151514217cd7cacd52c909f66475c3af44e129f0b00ff60405160405180910390a4505050565b6200021f8282620003e960201b60201c565b620002fa57600160008084815260200190815260200160002060000160008373ffffffffffffffffffffffffffffffffffffffff1673ffffffffffffffffffffffffffffffffffffffff16815260200190815260200160002060006101000a81548160ff0219169083151502179055506200029f6200031d60201b60201c565b73ffffffffffffffffffffffffffffffffffffffff168173ffffffffffffffffffffffffffffffffffffffff16837f2f8788117e7eff1d82e926ec794901d17c78024a50270940304540a733656f0d60405160405180910390a45b5050565b6000806000838152602001908152602001600020600101549050919050565b600033905090565b620003378282620003e960201b60201c565b620003e5576200036a8173ffffffffffffffffffffffffffffffffffffffff1660146200045360201b620019e01760201c565b620003858360001c60206200045360201b620019e01760201c565b60405160200162000398929190620008f8565b6040516020818303038152906040526040517f08c379a0000000000000000000000000000000000000000000000000000000008152600401620003dc91906200093a565b60405180910390fd5b5050565b600080600084815260200190815260200160002060000160008373ffffffffffffffffffffffffffffffffffffffff1673ffffffffffffffffffffffffffffffffffffffff16815260200190815260200160002060009054906101000a900460ff16905092915050565b60606000600283600262000468919062000a04565b620004749190620009a7565b67ffffffffffffffff811115620004b4577f4e487b7100000000000000000000000000000000000000000000000000000000600052604160045260246000fd5b6040519080825280601f01601f191660200182016040528015620004e75781602001600182028036833780820191505090505b5090507f30000000000000000000000000000000000000000000000000000000000000008160008151811062000546577f4e487b7100000000000000000000000000000000000000000000000000000000600052603260045260246000fd5b60200101907effffffffffffffffffffffffffffffffffffffffffffffffffffffffffffff1916908160001a9053507f780000000000000000000000000000000000000000000000000000000000000081600181518110620005d1577f4e487b7100000000000000000000000000000000000000000000000000000000600052603260045260246000fd5b60200101907effffffffffffffffffffffffffffffffffffffffffffffffffffffffffffff1916908160001a9053506000600184600262000613919062000a04565b6200061f9190620009a7565b90505b600181111562000711577f3031323334353637383961626364656600000000000000000000000000000000600f86166010811062000689577f4e487b7100000000000000000000000000000000000000000000000000000000600052603260045260246000fd5b1a60f81b828281518110620006c7577f4e487b7100000000000000000000000000000000000000000000000000000000600052603260045260246000fd5b60200101907effffffffffffffffffffffffffffffffffffffffffffffffffffffffffffff1916908160001a905350600485901c945080620007099062000ad9565b905062000622565b506000841462000758576040517f08c379a00000000000000000000000000000000000000000000000000000000081526004016200074f906200095e565b60405180910390fd5b8091505092915050565b600081519050620007738162000b48565b92915050565b600080604083850312156200078d57600080fd5b60006200079d8582860162000762565b9250506020620007b08582860162000762565b9150509250929050565b6000620007c78262000980565b620007d381856200098b565b9350620007e581856020860162000aa3565b620007f08162000b37565b840191505092915050565b6000620008088262000980565b6200081481856200099c565b93506200082681856020860162000aa3565b80840191505092915050565b6000620008416020836200098b565b91507f537472696e67733a20686578206c656e67746820696e73756666696369656e746000830152602082019050919050565b6000620008836017836200099c565b91507f416363657373436f6e74726f6c3a206163636f756e74200000000000000000006000830152601782019050919050565b6000620008c56011836200099c565b91507f206973206d697373696e6720726f6c65200000000000000000000000000000006000830152601182019050919050565b6000620009058262000874565b9150620009138285620007fb565b91506200092082620008b6565b91506200092e8284620007fb565b91508190509392505050565b60006020820190508181036000830152620009568184620007ba565b905092915050565b60006020820190508181036000830152620009798162000832565b9050919050565b600081519050919050565b600082825260208201905092915050565b600081905092915050565b6000620009b48262000a99565b9150620009c18362000a99565b9250827fffffffffffffffffffffffffffffffffffffffffffffffffffffffffffffffff03821115620009f957620009f862000b08565b5b828201905092915050565b600062000a118262000a99565b915062000a1e8362000a99565b9250817fffffffffffffffffffffffffffffffffffffffffffffffffffffffffffffffff048311821515161562000a5a5762000a5962000b08565b5b828202905092915050565b600062000a728262000a79565b9050919050565b600073ffffffffffffffffffffffffffffffffffffffff82169050919050565b6000819050919050565b60005b8381101562000ac357808201518184015260208101905062000aa6565b8381111562000ad3576000848401525b50505050565b600062000ae68262000a99565b9150600082141562000afd5762000afc62000b08565b5b600182039050919050565b7f4e487b7100000000000000000000000000000000000000000000000000000000600052601160045260246000fd5b6000601f19601f8301169050919050565b62000b538162000a65565b811462000b5f57600080fd5b50565b612e688062000b726000396000f3fe608060405234801561001057600080fd5b506004361061014d5760003560e01c806391d14854116100c3578063c17a4fd81161007c578063c17a4fd8146103b2578063c6cbc52a146103ce578063d41afcaa146103ea578063d547741f1461041a578063e7cc4bc214610436578063ff67dada146104525761014d565b806391d14854146102ca578063990a4ae9146102fa578063a217fddf14610316578063b0b6234c14610334578063bbd3a66d14610364578063bf7e214f146103945761014d565b806336568abe1161011557806336568abe1461021c5780634a2d5c9d14610238578063641fae3c146102565780638376e5ae146102725780638809f7271461028e57806389fcd796146102ac5761014d565b806301ffc9a7146101525780630a28e90c14610182578063117803e3146101b2578063248a9ca3146101d05780632f2ff15d14610200575b600080fd5b61016c60048036038101906101679190612386565b610470565b6040516101799190612977565b60405180910390f35b61019c600480360381019061019791906123af565b6104ea565b6040516101a99190612a98565b60405180910390f35b6101ba6106d5565b6040516101c79190612992565b60405180910390f35b6101ea60048036038101906101e5919061223e565b6106f9565b6040516101f79190612992565b60405180910390f35b61021a60048036038101906102159190612267565b610718565b005b61023660048036038101906102319190612267565b610741565b005b6102406107c4565b60405161024d9190612992565b60405180910390f35b610270600480360381019061026b91906121db565b6107e8565b005b61028c600480360381019061028791906121b2565b6109b1565b005b610296610a21565b6040516102a39190612ad5565b60405180910390f35b6102b4610a2e565b6040516102c19190612992565b60405180910390f35b6102e460048036038101906102df9190612267565b610a52565b6040516102f19190612977565b60405180910390f35b610314600480360381019061030f919061223e565b610abc565b005b61031e610cdd565b60405161032b9190612992565b60405180910390f35b61034e6004803603810190610349919061223e565b610ce4565b60405161035b9190612aba565b60405180910390f35b61037e6004803603810190610379919061223e565b610e01565b60405161038b9190612a98565b60405180910390f35b61039c610f8b565b6040516103a9919061295c565b60405180910390f35b6103cc60048036038101906103c79190612306565b610fb1565b005b6103e860048036038101906103e3919061223e565b61131f565b005b61040460048036038101906103ff91906123af565b6114a0565b6040516104119190612aba565b60405180910390f35b610434600480360381019061042f9190612267565b61161e565b005b610450600480360381019061044b91906122a3565b611647565b005b61045a6119d3565b6040516104679190612ad5565b60405180910390f35b60007f7965db0b000000000000000000000000000000000000000000000000000000007bffffffffffffffffffffffffffffffffffffffffffffffffffffffff1916827bffffffffffffffffffffffffffffffffffffffffffffffffffffffff191614806104e357506104e282611cda565b5b9050919050565b6104f2611faa565b60016005805490506105049190612c00565b821061050f57600080fd5b600460006005848154811061054d577f4e487b7100000000000000000000000000000000000000000000000000000000600052603260045260246000fd5b9060005260206000200154815260200190815260200160002060405180610100016040529081600082015481526020016001820160009054906101000a900473ffffffffffffffffffffffffffffffffffffffff1673ffffffffffffffffffffffffffffffffffffffff1673ffffffffffffffffffffffffffffffffffffffff1681526020016002820180548060200260200160405190810160405280929190818152602001828054801561062157602002820191906000526020600020905b81548152602001906001019080831161060d575b50505050508152602001600382015481526020016004820160009054906101000a900467ffffffffffffffff1667ffffffffffffffff1667ffffffffffffffff1681526020016004820160089054906101000a900467ffffffffffffffff1667ffffffffffffffff1667ffffffffffffffff1681526020016004820160109054906101000a900460ff161515151581526020016004820160119054906101000a900460ff1615151515815250509050919050565b7f6270edb7c868f86fda4adedba75108201087268ea345934db8bad688e1feb91b81565b6000806000838152602001908152602001600020600101549050919050565b610721826106f9565b6107328161072d611d44565b611d4c565b61073c8383611de9565b505050565b610749611d44565b73ffffffffffffffffffffffffffffffffffffffff168173ffffffffffffffffffffffffffffffffffffffff16146107b6576040517f08c379a00000000000000000000000000000000000000000000000000000000081526004016107ad90612a78565b60405180910390fd5b6107c08282611ec9565b5050565b7fc7ddcf4441a1bb01353b38db832023115117943d28ad05b882de4ad99e94b8fc81565b6108127fc7ddcf4441a1bb01353b38db832023115117943d28ad05b882de4ad99e94b8fc85610718565b30600660008673ffffffffffffffffffffffffffffffffffffffff1673ffffffffffffffffffffffffffffffffffffffff16815260200190815260200160002060000160006101000a81548173ffffffffffffffffffffffffffffffffffffffff021916908373ffffffffffffffffffffffffffffffffffffffff16021790555082600660008673ffffffffffffffffffffffffffffffffffffffff1673ffffffffffffffffffffffffffffffffffffffff1681526020019081526020016000206001018190555081600660008673ffffffffffffffffffffffffffffffffffffffff1673ffffffffffffffffffffffffffffffffffffffff1681526020019081526020016000206002018190555080600660008673ffffffffffffffffffffffffffffffffffffffff1673ffffffffffffffffffffffffffffffffffffffff168152602001908152602001600020600301819055508373ffffffffffffffffffffffffffffffffffffffff167ff0f7d8c5ce42f07387388b98c5bc129be0d2092a62b3f97a797caecb2461aeb760405160405180910390a250505050565b6109db7fc7ddcf4441a1bb01353b38db832023115117943d28ad05b882de4ad99e94b8fc8261161e565b8073ffffffffffffffffffffffffffffffffffffffff167f98561cbe7c9c0b90726130c8409b307d4c9698c9e7ee2797aea68659cad1049460405160405180910390a250565b6000600580549050905090565b7f843b48dccc6ff192f9330133622b0536f7b94feca0cf36e7e46fc50060b6f88281565b600080600084815260200190815260200160002060000160008373ffffffffffffffffffffffffffffffffffffffff1673ffffffffffffffffffffffffffffffffffffffff16815260200190815260200160002060009054906101000a900460ff16905092915050565b610ae67f6270edb7c868f86fda4adedba75108201087268ea345934db8bad688e1feb91b32610a52565b80610b175750610b167fc7ddcf4441a1bb01353b38db832023115117943d28ad05b882de4ad99e94b8fc32610a52565b5b80610b2b5750610b2a6000801b33610a52565b5b610b3457600080fd5b6000600260008381526020019081526020016000206040518060a00160405290816000820160009054906101000a900473ffffffffffffffffffffffffffffffffffffffff1673ffffffffffffffffffffffffffffffffffffffff1673ffffffffffffffffffffffffffffffffffffffff1681526020016000820160149054906101000a900460ff161515151581526020016000820160159054906101000a900467ffffffffffffffff1667ffffffffffffffff1667ffffffffffffffff1681526020016001820160009054906101000a900467ffffffffffffffff1667ffffffffffffffff1667ffffffffffffffff1681526020016001820160089054906101000a900460ff16151515158152505090506001151581608001511515148015610c6b575042816060015167ffffffffffffffff16115b610caa576040517f08c379a0000000000000000000000000000000000000000000000000000000008152600401610ca190612a38565b60405180910390fd5b60006002600084815260200190815260200160002060010160086101000a81548160ff0219169083151502179055505050565b6000801b81565b610cec612023565b600260008381526020019081526020016000206040518060a00160405290816000820160009054906101000a900473ffffffffffffffffffffffffffffffffffffffff1673ffffffffffffffffffffffffffffffffffffffff1673ffffffffffffffffffffffffffffffffffffffff1681526020016000820160149054906101000a900460ff161515151581526020016000820160159054906101000a900467ffffffffffffffff1667ffffffffffffffff1667ffffffffffffffff1681526020016001820160009054906101000a900467ffffffffffffffff1667ffffffffffffffff1667ffffffffffffffff1681526020016001820160089054906101000a900460ff1615151515815250509050919050565b610e09611faa565b6004600083815260200190815260200160002060405180610100016040529081600082015481526020016001820160009054906101000a900473ffffffffffffffffffffffffffffffffffffffff1673ffffffffffffffffffffffffffffffffffffffff1673ffffffffffffffffffffffffffffffffffffffff16815260200160028201805480602002602001604051908101604052809291908181526020018280548015610ed757602002820191906000526020600020905b815481526020019060010190808311610ec3575b50505050508152602001600382015481526020016004820160009054906101000a900467ffffffffffffffff1667ffffffffffffffff1667ffffffffffffffff1681526020016004820160089054906101000a900467ffffffffffffffff1667ffffffffffffffff1667ffffffffffffffff1681526020016004820160109054906101000a900460ff161515151581526020016004820160119054906101000a900460ff1615151515815250509050919050565b600160009054906101000a900473ffffffffffffffffffffffffffffffffffffffff1681565b610fdb7f6270edb7c868f86fda4adedba75108201087268ea345934db8bad688e1feb91b32610a52565b8061100c575061100b7fc7ddcf4441a1bb01353b38db832023115117943d28ad05b882de4ad99e94b8fc32610a52565b5b80611020575061101f6000801b33610a52565b5b61102957600080fd5b6000853042604051602001611040939291906128e5565b6040516020818303038152906040528051906020012090506004600082815260200190815260200160002060040160119054906101000a900460ff16156110bc576040517f08c379a00000000000000000000000000000000000000000000000000000000081526004016110b390612a58565b60405180910390fd5b856004600083815260200190815260200160002060000181905550326004600083815260200190815260200160002060010160006101000a81548173ffffffffffffffffffffffffffffffffffffffff021916908373ffffffffffffffffffffffffffffffffffffffff1602179055508484600460008481526020019081526020016000206002019190611151929190612080565b50426004600083815260200190815260200160002060040160006101000a81548167ffffffffffffffff021916908367ffffffffffffffff160217905550816004600083815260200190815260200160002060040160086101000a81548167ffffffffffffffff021916908367ffffffffffffffff16021790555082600460008381526020019081526020016000206003018190555060016004600083815260200190815260200160002060040160116101000a81548160ff02191690831515021790555060058190806001815401808255809150506001900390600052602060002001600090919091909150556000600160009054906101000a900473ffffffffffffffffffffffffffffffffffffffff1690508073ffffffffffffffffffffffffffffffffffffffff166379dd18c488846040518363ffffffff1660e01b81526004016112a19291906129ad565b600060405180830381600087803b1580156112bb57600080fd5b505af11580156112cf573d6000803e3d6000fd5b505050508267ffffffffffffffff164267ffffffffffffffff16837f7ab6d57493e9d536fc2ebb574b840bcfa129a10f9df628610fce44f2aa26fec860405160405180910390a450505050505050565b6113497f6270edb7c868f86fda4adedba75108201087268ea345934db8bad688e1feb91b32610a52565b8061137a57506113797fc7ddcf4441a1bb01353b38db832023115117943d28ad05b882de4ad99e94b8fc32610a52565b5b8061138e575061138d6000801b33610a52565b5b61139757600080fd5b60006004600083815260200190815260200160002090508060040160119054906101000a900460ff1680156113db57508060040160109054906101000a900460ff16155b61141a576040517f08c379a000000000000000000000000000000000000000000000000000000000815260040161141190612a18565b60405180910390fd5b60018160040160106101000a81548160ff0219169083151502179055504263ffffffff168160040160086101000a81548167ffffffffffffffff021916908367ffffffffffffffff1602179055504263ffffffff16827fdfb16e680b89bb363b97cbc4b6ef42b95dba995e00034252becd4f9168cecc8860405160405180910390a35050565b6114a8612023565b60016003805490506114ba9190612c00565b82106114c557600080fd5b6002600060038481548110611503577f4e487b7100000000000000000000000000000000000000000000000000000000600052603260045260246000fd5b906000526020600020015481526020019081526020016000206040518060a00160405290816000820160009054906101000a900473ffffffffffffffffffffffffffffffffffffffff1673ffffffffffffffffffffffffffffffffffffffff1673ffffffffffffffffffffffffffffffffffffffff1681526020016000820160149054906101000a900460ff161515151581526020016000820160159054906101000a900467ffffffffffffffff1667ffffffffffffffff1667ffffffffffffffff1681526020016001820160009054906101000a900467ffffffffffffffff1667ffffffffffffffff1667ffffffffffffffff1681526020016001820160089054906101000a900460ff1615151515815250509050919050565b611627826106f9565b61163881611633611d44565b611d4c565b6116428383611ec9565b505050565b6116717f6270edb7c868f86fda4adedba75108201087268ea345934db8bad688e1feb91b32610a52565b806116a257506116a17fc7ddcf4441a1bb01353b38db832023115117943d28ad05b882de4ad99e94b8fc32610a52565b5b806116b657506116b56000801b33610a52565b5b6116bf57600080fd5b6000600260008681526020019081526020016000206040518060a00160405290816000820160009054906101000a900473ffffffffffffffffffffffffffffffffffffffff1673ffffffffffffffffffffffffffffffffffffffff1673ffffffffffffffffffffffffffffffffffffffff1681526020016000820160149054906101000a900460ff161515151581526020016000820160159054906101000a900467ffffffffffffffff1667ffffffffffffffff1667ffffffffffffffff1681526020016001820160009054906101000a900467ffffffffffffffff1667ffffffffffffffff1667ffffffffffffffff1681526020016001820160089054906101000a900460ff1615151515815250509050600015158160800151151514806117f5575042816060015167ffffffffffffffff16105b611834576040517f08c379a000000000000000000000000000000000000000000000000000000000815260040161182b90612a38565b60405180910390fd5b60016002600087815260200190815260200160002060010160086101000a81548160ff021916908315150217905550836002600087815260200190815260200160002060000160006101000a81548173ffffffffffffffffffffffffffffffffffffffff021916908373ffffffffffffffffffffffffffffffffffffffff160217905550826002600087815260200190815260200160002060000160146101000a81548160ff021916908315150217905550426002600087815260200190815260200160002060000160156101000a81548167ffffffffffffffff021916908367ffffffffffffffff160217905550816002600087815260200190815260200160002060010160006101000a81548167ffffffffffffffff021916908367ffffffffffffffff16021790555060038590806001815401808255809150506001900390600052602060002001600090919091909150558167ffffffffffffffff164267ffffffffffffffff16867f1214e60d611e056bf0772c444a6feb58bbedb93af63e865e83e654f891c7169c60405160405180910390a45050505050565b6000600380549050905090565b6060600060028360026119f39190612ba6565b6119fd9190612b50565b67ffffffffffffffff811115611a3c577f4e487b7100000000000000000000000000000000000000000000000000000000600052604160045260246000fd5b6040519080825280601f01601f191660200182016040528015611a6e5781602001600182028036833780820191505090505b5090507f300000000000000000000000000000000000000000000000000000000000000081600081518110611acc577f4e487b7100000000000000000000000000000000000000000000000000000000600052603260045260246000fd5b60200101907effffffffffffffffffffffffffffffffffffffffffffffffffffffffffffff1916908160001a9053507f780000000000000000000000000000000000000000000000000000000000000081600181518110611b56577f4e487b7100000000000000000000000000000000000000000000000000000000600052603260045260246000fd5b60200101907effffffffffffffffffffffffffffffffffffffffffffffffffffffffffffff1916908160001a90535060006001846002611b969190612ba6565b611ba09190612b50565b90505b6001811115611c8c577f3031323334353637383961626364656600000000000000000000000000000000600f861660108110611c08577f4e487b7100000000000000000000000000000000000000000000000000000000600052603260045260246000fd5b1a60f81b828281518110611c45577f4e487b7100000000000000000000000000000000000000000000000000000000600052603260045260246000fd5b60200101907effffffffffffffffffffffffffffffffffffffffffffffffffffffffffffff1916908160001a905350600485901c945080611c8590612cf9565b9050611ba3565b5060008414611cd0576040517f08c379a0000000000000000000000000000000000000000000000000000000008152600401611cc7906129f8565b60405180910390fd5b8091505092915050565b60007f01ffc9a7000000000000000000000000000000000000000000000000000000007bffffffffffffffffffffffffffffffffffffffffffffffffffffffff1916827bffffffffffffffffffffffffffffffffffffffffffffffffffffffff1916149050919050565b600033905090565b611d568282610a52565b611de557611d7b8173ffffffffffffffffffffffffffffffffffffffff1660146119e0565b611d898360001c60206119e0565b604051602001611d9a929190612922565b6040516020818303038152906040526040517f08c379a0000000000000000000000000000000000000000000000000000000008152600401611ddc91906129d6565b60405180910390fd5b5050565b611df38282610a52565b611ec557600160008084815260200190815260200160002060000160008373ffffffffffffffffffffffffffffffffffffffff1673ffffffffffffffffffffffffffffffffffffffff16815260200190815260200160002060006101000a81548160ff021916908315150217905550611e6a611d44565b73ffffffffffffffffffffffffffffffffffffffff168173ffffffffffffffffffffffffffffffffffffffff16837f2f8788117e7eff1d82e926ec794901d17c78024a50270940304540a733656f0d60405160405180910390a45b5050565b611ed38282610a52565b15611fa657600080600084815260200190815260200160002060000160008373ffffffffffffffffffffffffffffffffffffffff1673ffffffffffffffffffffffffffffffffffffffff16815260200190815260200160002060006101000a81548160ff021916908315150217905550611f4b611d44565b73ffffffffffffffffffffffffffffffffffffffff168173ffffffffffffffffffffffffffffffffffffffff16837ff6391f5c32d9c69d2a47ea670b442974b53935d1edc7fd64eb21e047a839171b60405160405180910390a45b5050565b60405180610100016040528060008019168152602001600073ffffffffffffffffffffffffffffffffffffffff1681526020016060815260200160008019168152602001600067ffffffffffffffff168152602001600067ffffffffffffffff1681526020016000151581526020016000151581525090565b6040518060a00160405280600073ffffffffffffffffffffffffffffffffffffffff168152602001600015158152602001600067ffffffffffffffff168152602001600067ffffffffffffffff1681526020016000151581525090565b8280548282559060005260206000209081019282156120bc579160200282015b828111156120bb5782358255916020019190600101906120a0565b5b5090506120c991906120cd565b5090565b5b808211156120e65760008160009055506001016120ce565b5090565b6000813590506120f981612da8565b92915050565b60008083601f84011261211157600080fd5b8235905067ffffffffffffffff81111561212a57600080fd5b60208301915083602082028301111561214257600080fd5b9250929050565b60008135905061215881612dbf565b92915050565b60008135905061216d81612dd6565b92915050565b60008135905061218281612ded565b92915050565b60008135905061219781612e04565b92915050565b6000813590506121ac81612e1b565b92915050565b6000602082840312156121c457600080fd5b60006121d2848285016120ea565b91505092915050565b600080600080608085870312156121f157600080fd5b60006121ff878288016120ea565b94505060206122108782880161215e565b93505060406122218782880161215e565b92505060606122328782880161215e565b91505092959194509250565b60006020828403121561225057600080fd5b600061225e8482850161215e565b91505092915050565b6000806040838503121561227a57600080fd5b60006122888582860161215e565b9250506020612299858286016120ea565b9150509250929050565b600080600080608085870312156122b957600080fd5b60006122c78782880161215e565b94505060206122d8878288016120ea565b93505060406122e987828801612149565b92505060606122fa8782880161219d565b91505092959194509250565b60008060008060006080868803121561231e57600080fd5b600061232c8882890161215e565b955050602086013567ffffffffffffffff81111561234957600080fd5b612355888289016120ff565b945094505060406123688882890161215e565b92505060606123798882890161219d565b9150509295509295909350565b60006020828403121561239857600080fd5b60006123a684828501612173565b91505092915050565b6000602082840312156123c157600080fd5b60006123cf84828501612188565b91505092915050565b60006123e483836124a1565b60208301905092915050565b6123f981612c34565b82525050565b61240881612c34565b82525050565b61241f61241a82612c34565b612d23565b82525050565b600061243082612b00565b61243a8185612b23565b935061244583612af0565b8060005b8381101561247657815161245d88826123d8565b975061246883612b16565b925050600181019050612449565b5085935050505092915050565b61248c81612c46565b82525050565b61249b81612c46565b82525050565b6124aa81612c52565b82525050565b6124b981612c52565b82525050565b6124d06124cb82612c52565b612d35565b82525050565b60006124e182612b0b565b6124eb8185612b34565b93506124fb818560208601612cc6565b61250481612d8a565b840191505092915050565b600061251a82612b0b565b6125248185612b45565b9350612534818560208601612cc6565b80840191505092915050565b600061254d602083612b34565b91507f537472696e67733a20686578206c656e67746820696e73756666696369656e746000830152602082019050919050565b600061258d602d83612b34565b91507f41206365727469666963617465206d757374206265207265676973746572656460008301527f20746f6265207265766f6b6564000000000000000000000000000000000000006020830152604082019050919050565b60006125f3602583612b34565b91507f546869732065717569706d656e7420697320616c72656164792072656769737460008301527f657265642e0000000000000000000000000000000000000000000000000000006020830152604082019050919050565b6000612659602183612b34565b91507f546869732064657669636520697320616c72656164792072656769737465726560008301527f64000000000000000000000000000000000000000000000000000000000000006020830152604082019050919050565b60006126bf601783612b45565b91507f416363657373436f6e74726f6c3a206163636f756e74200000000000000000006000830152601782019050919050565b60006126ff601183612b45565b91507f206973206d697373696e6720726f6c65200000000000000000000000000000006000830152601182019050919050565b600061273f602f83612b34565b91507f416363657373436f6e74726f6c3a2063616e206f6e6c792072656e6f756e636560008301527f20726f6c657320666f722073656c6600000000000000000000000000000000006020830152604082019050919050565b6000610100830160008301516127b160008601826124a1565b5060208301516127c460208601826123f0565b50604083015184820360408601526127dc8282612425565b91505060608301516127f160608601826124a1565b50608083015161280460808601826128d6565b5060a083015161281760a08601826128d6565b5060c083015161282a60c0860182612483565b5060e083015161283d60e0860182612483565b508091505092915050565b60a08201600082015161285e60008501826123f0565b5060208201516128716020850182612483565b50604082015161288460408501826128d6565b50606082015161289760608501826128d6565b5060808201516128aa6080850182612483565b50505050565b6128b981612ca8565b82525050565b6128d06128cb82612ca8565b612d51565b82525050565b6128df81612cb2565b82525050565b60006128f182866124bf565b602082019150612901828561240e565b60148201915061291182846128bf565b602082019150819050949350505050565b600061292d826126b2565b9150612939828561250f565b9150612944826126f2565b9150612950828461250f565b91508190509392505050565b600060208201905061297160008301846123ff565b92915050565b600060208201905061298c6000830184612492565b92915050565b60006020820190506129a760008301846124b0565b92915050565b60006040820190506129c260008301856124b0565b6129cf60208301846124b0565b9392505050565b600060208201905081810360008301526129f081846124d6565b905092915050565b60006020820190508181036000830152612a1181612540565b9050919050565b60006020820190508181036000830152612a3181612580565b9050919050565b60006020820190508181036000830152612a51816125e6565b9050919050565b60006020820190508181036000830152612a718161264c565b9050919050565b60006020820190508181036000830152612a9181612732565b9050919050565b60006020820190508181036000830152612ab28184612798565b905092915050565b600060a082019050612acf6000830184612848565b92915050565b6000602082019050612aea60008301846128b0565b92915050565b6000819050602082019050919050565b600081519050919050565b600081519050919050565b6000602082019050919050565b600082825260208201905092915050565b600082825260208201905092915050565b600081905092915050565b6000612b5b82612ca8565b9150612b6683612ca8565b9250827fffffffffffffffffffffffffffffffffffffffffffffffffffffffffffffffff03821115612b9b57612b9a612d5b565b5b828201905092915050565b6000612bb182612ca8565b9150612bbc83612ca8565b9250817fffffffffffffffffffffffffffffffffffffffffffffffffffffffffffffffff0483118215151615612bf557612bf4612d5b565b5b828202905092915050565b6000612c0b82612ca8565b9150612c1683612ca8565b925082821015612c2957612c28612d5b565b5b828203905092915050565b6000612c3f82612c88565b9050919050565b60008115159050919050565b6000819050919050565b60007fffffffff0000000000000000000000000000000000000000000000000000000082169050919050565b600073ffffffffffffffffffffffffffffffffffffffff82169050919050565b6000819050919050565b600067ffffffffffffffff82169050919050565b60005b83811015612ce4578082015181840152602081019050612cc9565b83811115612cf3576000848401525b50505050565b6000612d0482612ca8565b91506000821415612d1857612d17612d5b565b5b600182039050919050565b6000612d2e82612d3f565b9050919050565b6000819050919050565b6000612d4a82612d9b565b9050919050565b6000819050919050565b7f4e487b7100000000000000000000000000000000000000000000000000000000600052601160045260246000fd5b6000601f19601f8301169050919050565b60008160601b9050919050565b612db181612c34565b8114612dbc57600080fd5b50565b612dc881612c46565b8114612dd357600080fd5b50565b612ddf81612c52565b8114612dea57600080fd5b50565b612df681612c5c565b8114612e0157600080fd5b50565b612e0d81612ca8565b8114612e1857600080fd5b50565b612e2481612cb2565b8114612e2f57600080fd5b5056fea2646970667358221220e662ac4cdf258134691c10a303b7778a0a0a14f27a17c36f551efcf7f8c5ff1864736f6c63430008000033",
  "linkReferences": {},
  "deployedLinkReferences": {}
}