{
  "_format": "hh-sol-artifact-1",
  "contractName": "AuthorityContract",
  "sourceName": "contracts/AuthorityContract.sol",
  "abi": [
    {
      "inputs": [],
      "stateMutability": "nonpayable",
      "type": "constructor"
    },
    {
      "anonymous": false,
      "inputs": [
        {
          "indexed": true,
          "internalType": "address",
          "name": "accreditor",
          "type": "address"
        },
        {
          "indexed": true,
          "internalType": "address",
          "name": "accreditorContract",
          "type": "address"
        }
      ],
      "name": "AccreditorRegistered",
      "type": "event"
    },
    {
      "anonymous": false,
      "inputs": [
        {
          "indexed": true,
          "internalType": "address",
          "name": "accreditor",
          "type": "address"
        },
        {
          "indexed": true,
          "internalType": "address",
          "name": "accreditorContract",
          "type": "address"
        }
      ],
      "name": "AccreditorUnregistered",
      "type": "event"
    },
    {
      "anonymous": false,
      "inputs": [
        {
          "indexed": true,
          "internalType": "address",
          "name": "laboratory",
          "type": "address"
        },
        {
          "indexed": true,
          "internalType": "address",
          "name": "laboratoryContract",
          "type": "address"
        }
      ],
      "name": "LaboratoryRegistered",
      "type": "event"
    },
    {
      "anonymous": false,
      "inputs": [
        {
          "indexed": true,
          "internalType": "address",
          "name": "laboratory",
          "type": "address"
        },
        {
          "indexed": true,
          "internalType": "address",
          "name": "laboratoryContract",
          "type": "address"
        }
      ],
      "name": "LaboratoryUnregistered",
      "type": "event"
    },
    {
      "anonymous": false,
      "inputs": [
        {
          "indexed": true,
          "internalType": "address",
          "name": "manufacturer",
          "type": "address"
        },
        {
          "indexed": true,
          "internalType": "address",
          "name": "manufacturerContract",
          "type": "address"
        }
      ],
      "name": "ManufacturerRegistered",
      "type": "event"
    },
    {
      "anonymous": false,
      "inputs": [
        {
          "indexed": true,
          "internalType": "address",
          "name": "manufacturer",
          "type": "address"
        },
        {
          "indexed": true,
          "internalType": "address",
          "name": "manufacturerContract",
          "type": "address"
        }
      ],
      "name": "ManufacturerUnregistered",
      "type": "event"
    },
    {
      "anonymous": false,
      "inputs": [
        {
          "indexed": true,
          "internalType": "bytes32",
          "name": "role",
          "type": "bytes32"
        },
        {
          "indexed": true,
          "internalType": "bytes32",
          "name": "previousAdminRole",
          "type": "bytes32"
        },
        {
          "indexed": true,
          "internalType": "bytes32",
          "name": "newAdminRole",
          "type": "bytes32"
        }
      ],
      "name": "RoleAdminChanged",
      "type": "event"
    },
    {
      "anonymous": false,
      "inputs": [
        {
          "indexed": true,
          "internalType": "bytes32",
          "name": "role",
          "type": "bytes32"
        },
        {
          "indexed": true,
          "internalType": "address",
          "name": "account",
          "type": "address"
        },
        {
          "indexed": true,
          "internalType": "address",
          "name": "sender",
          "type": "address"
        }
      ],
      "name": "RoleGranted",
      "type": "event"
    },
    {
      "anonymous": false,
      "inputs": [
        {
          "indexed": true,
          "internalType": "bytes32",
          "name": "role",
          "type": "bytes32"
        },
        {
          "indexed": true,
          "internalType": "address",
          "name": "account",
          "type": "address"
        },
        {
          "indexed": true,
          "internalType": "address",
          "name": "sender",
          "type": "address"
        }
      ],
      "name": "RoleRevoked",
      "type": "event"
    },
    {
      "inputs": [],
      "name": "ACCREDITOR",
      "outputs": [
        {
          "internalType": "bytes32",
          "name": "",
          "type": "bytes32"
        }
      ],
      "stateMutability": "view",
      "type": "function"
    },
    {
      "inputs": [],
      "name": "AUTHORIY",
      "outputs": [
        {
          "internalType": "bytes32",
          "name": "",
          "type": "bytes32"
        }
      ],
      "stateMutability": "view",
      "type": "function"
    },
    {
      "inputs": [],
      "name": "DEFAULT_ADMIN_ROLE",
      "outputs": [
        {
          "internalType": "bytes32",
          "name": "",
          "type": "bytes32"
        }
      ],
      "stateMutability": "view",
      "type": "function"
    },
    {
      "inputs": [],
      "name": "LABORATORY",
      "outputs": [
        {
          "internalType": "bytes32",
          "name": "",
          "type": "bytes32"
        }
      ],
      "stateMutability": "view",
      "type": "function"
    },
    {
      "inputs": [],
      "name": "MANUFACTURER",
      "outputs": [
        {
          "internalType": "bytes32",
          "name": "",
          "type": "bytes32"
        }
      ],
      "stateMutability": "view",
      "type": "function"
    },
    {
      "inputs": [],
      "name": "accreditorFactory",
      "outputs": [
        {
          "internalType": "contract AccreditorFactory",
          "name": "",
          "type": "address"
        }
      ],
      "stateMutability": "view",
      "type": "function"
    },
    {
      "inputs": [
        {
          "internalType": "address",
          "name": "",
          "type": "address"
        }
      ],
      "name": "accreditorRecords",
      "outputs": [
        {
          "internalType": "bytes32",
          "name": "name",
          "type": "bytes32"
        },
        {
          "internalType": "bytes32",
          "name": "_address",
          "type": "bytes32"
        },
        {
          "internalType": "bytes32",
          "name": "phonenumber",
          "type": "bytes32"
        },
        {
          "internalType": "bytes32",
          "name": "email",
          "type": "bytes32"
        },
        {
          "internalType": "uint32",
          "name": "registeredSince",
          "type": "uint32"
        },
        {
          "internalType": "uint32",
          "name": "unregisteredSince",
          "type": "uint32"
        }
      ],
      "stateMutability": "view",
      "type": "function"
    },
    {
      "inputs": [
        {
          "internalType": "address",
          "name": "_labId",
          "type": "address"
        },
        {
          "internalType": "bytes32",
          "name": "_certID",
          "type": "bytes32"
        }
      ],
      "name": "addAccreditation",
      "outputs": [],
      "stateMutability": "nonpayable",
      "type": "function"
    },
    {
      "inputs": [
        {
          "internalType": "bytes32",
          "name": "_devId",
          "type": "bytes32"
        },
        {
          "internalType": "bytes32",
          "name": "_certID",
          "type": "bytes32"
        }
      ],
      "name": "addCertificate",
      "outputs": [],
      "stateMutability": "nonpayable",
      "type": "function"
    },
    {
      "inputs": [
        {
          "internalType": "bytes32",
          "name": "_devID",
          "type": "bytes32"
        }
      ],
      "name": "addDevice",
      "outputs": [],
      "stateMutability": "nonpayable",
      "type": "function"
    },
    {
      "inputs": [
        {
          "internalType": "address",
          "name": "_accreditor",
          "type": "address"
        }
      ],
      "name": "getAccreditorContractbyEOAAddress",
      "outputs": [
        {
          "internalType": "address",
          "name": "_accreditorContract",
          "type": "address"
        }
      ],
      "stateMutability": "view",
      "type": "function"
    },
    {
      "inputs": [
        {
          "internalType": "uint256",
          "name": "indx",
          "type": "uint256"
        }
      ],
      "name": "getAccreditorContractbyIndex",
      "outputs": [
        {
          "internalType": "address",
          "name": "",
          "type": "address"
        }
      ],
      "stateMutability": "view",
      "type": "function"
    },
    {
      "inputs": [],
      "name": "getAccreditorCount",
      "outputs": [
        {
          "internalType": "uint256",
          "name": "",
          "type": "uint256"
        }
      ],
      "stateMutability": "view",
      "type": "function"
    },
    {
      "inputs": [],
      "name": "getAccreditorFactoryContractAddress",
      "outputs": [
        {
          "internalType": "address",
          "name": "",
          "type": "address"
        }
      ],
      "stateMutability": "view",
      "type": "function"
    },
    {
      "inputs": [
        {
          "internalType": "address",
          "name": "_address",
          "type": "address"
        }
      ],
      "name": "getAccreditorRecord",
      "outputs": [
        {
          "components": [
            {
              "internalType": "bytes32",
              "name": "name",
              "type": "bytes32"
            },
            {
              "internalType": "bytes32",
              "name": "_address",
              "type": "bytes32"
            },
            {
              "internalType": "bytes32",
              "name": "phonenumber",
              "type": "bytes32"
            },
            {
              "internalType": "bytes32",
              "name": "email",
              "type": "bytes32"
            },
            {
              "internalType": "uint32",
              "name": "registeredSince",
              "type": "uint32"
            },
            {
              "internalType": "uint32",
              "name": "unregisteredSince",
              "type": "uint32"
            }
          ],
          "internalType": "struct AuthorityContract.AccreditorRecord",
          "name": "",
          "type": "tuple"
        }
      ],
      "stateMutability": "view",
      "type": "function"
    },
    {
      "inputs": [
        {
          "internalType": "bytes32",
          "name": "_certID",
          "type": "bytes32"
        }
      ],
      "name": "getCertificateAccreditor",
      "outputs": [
        {
          "internalType": "address",
          "name": "",
          "type": "address"
        }
      ],
      "stateMutability": "view",
      "type": "function"
    },
    {
      "inputs": [
        {
          "internalType": "bytes32",
          "name": "_certID",
          "type": "bytes32"
        }
      ],
      "name": "getCertificateLaboratory",
      "outputs": [
        {
          "internalType": "address",
          "name": "",
          "type": "address"
        }
      ],
      "stateMutability": "view",
      "type": "function"
    },
    {
      "inputs": [
        {
          "internalType": "bytes32",
          "name": "_devID",
          "type": "bytes32"
        }
      ],
      "name": "getDeviceManufacturer",
      "outputs": [
        {
          "internalType": "address",
          "name": "",
          "type": "address"
        }
      ],
      "stateMutability": "view",
      "type": "function"
    },
    {
      "inputs": [
        {
          "internalType": "address",
          "name": "_laboratory",
          "type": "address"
        }
      ],
      "name": "getLaboratoryContractbyEOAAddress",
      "outputs": [
        {
          "internalType": "address",
          "name": "_laboratoryContract",
          "type": "address"
        }
      ],
      "stateMutability": "view",
      "type": "function"
    },
    {
      "inputs": [
        {
          "internalType": "uint256",
          "name": "indx",
          "type": "uint256"
        }
      ],
      "name": "getLaboratoryContractbyIndex",
      "outputs": [
        {
          "internalType": "address",
          "name": "",
          "type": "address"
        }
      ],
      "stateMutability": "view",
      "type": "function"
    },
    {
      "inputs": [],
      "name": "getLaboratoryCount",
      "outputs": [
        {
          "internalType": "uint256",
          "name": "",
          "type": "uint256"
        }
      ],
      "stateMutability": "view",
      "type": "function"
    },
    {
      "inputs": [],
      "name": "getLaboratoryFactoryContractAddress",
      "outputs": [
        {
          "internalType": "address",
          "name": "",
          "type": "address"
        }
      ],
      "stateMutability": "view",
      "type": "function"
    },
    {
      "inputs": [
        {
          "internalType": "address",
          "name": "_address",
          "type": "address"
        }
      ],
      "name": "getLaboratoryRecord",
      "outputs": [
        {
          "components": [
            {
              "internalType": "bytes32",
              "name": "name",
              "type": "bytes32"
            },
            {
              "internalType": "bytes32",
              "name": "_address",
              "type": "bytes32"
            },
            {
              "internalType": "bytes32",
              "name": "phonenumber",
              "type": "bytes32"
            },
            {
              "internalType": "bytes32",
              "name": "email",
              "type": "bytes32"
            },
            {
              "internalType": "uint32",
              "name": "registeredSince",
              "type": "uint32"
            },
            {
              "internalType": "uint32",
              "name": "unregisteredSince",
              "type": "uint32"
            },
            {
              "internalType": "bool",
              "name": "accreditated",
              "type": "bool"
            },
            {
              "internalType": "bytes32[]",
              "name": "accreditationIDs",
              "type": "bytes32[]"
            }
          ],
          "internalType": "struct AuthorityContract.LaboratoryRecord",
          "name": "",
          "type": "tuple"
        }
      ],
      "stateMutability": "view",
      "type": "function"
    },
    {
      "inputs": [
        {
          "internalType": "address",
          "name": "_manufacturer",
          "type": "address"
        }
      ],
      "name": "getManufacturerContractbyEOAAddress",
      "outputs": [
        {
          "internalType": "address",
          "name": "_manufacturerContract",
          "type": "address"
        }
      ],
      "stateMutability": "view",
      "type": "function"
    },
    {
      "inputs": [
        {
          "internalType": "uint256",
          "name": "indx",
          "type": "uint256"
        }
      ],
      "name": "getManufacturerContractbyIndex",
      "outputs": [
        {
          "internalType": "address",
          "name": "",
          "type": "address"
        }
      ],
      "stateMutability": "view",
      "type": "function"
    },
    {
      "inputs": [],
      "name": "getManufacturerCount",
      "outputs": [
        {
          "internalType": "uint256",
          "name": "",
          "type": "uint256"
        }
      ],
      "stateMutability": "view",
      "type": "function"
    },
    {
      "inputs": [],
      "name": "getManufacturerFactoryContractAddress",
      "outputs": [
        {
          "internalType": "address",
          "name": "",
          "type": "address"
        }
      ],
      "stateMutability": "view",
      "type": "function"
    },
    {
      "inputs": [
        {
          "internalType": "address",
          "name": "_address",
          "type": "address"
        }
      ],
      "name": "getManufacturerRecord",
      "outputs": [
        {
          "components": [
            {
              "internalType": "bytes32",
              "name": "name",
              "type": "bytes32"
            },
            {
              "internalType": "bytes32",
              "name": "_address",
              "type": "bytes32"
            },
            {
              "internalType": "bytes32",
              "name": "phonenumber",
              "type": "bytes32"
            },
            {
              "internalType": "bytes32",
              "name": "email",
              "type": "bytes32"
            },
            {
              "internalType": "uint32",
              "name": "registeredSince",
              "type": "uint32"
            },
            {
              "internalType": "uint32",
              "name": "unregisteredSince",
              "type": "uint32"
            }
          ],
          "internalType": "struct AuthorityContract.ManufacturerRecord",
          "name": "",
          "type": "tuple"
        }
      ],
      "stateMutability": "view",
      "type": "function"
    },
    {
      "inputs": [
        {
          "internalType": "bytes32",
          "name": "role",
          "type": "bytes32"
        }
      ],
      "name": "getRoleAdmin",
      "outputs": [
        {
          "internalType": "bytes32",
          "name": "",
          "type": "bytes32"
        }
      ],
      "stateMutability": "view",
      "type": "function"
    },
    {
      "inputs": [
        {
          "internalType": "bytes32",
          "name": "role",
          "type": "bytes32"
        },
        {
          "internalType": "address",
          "name": "account",
          "type": "address"
        }
      ],
      "name": "grantRole",
      "outputs": [],
      "stateMutability": "nonpayable",
      "type": "function"
    },
    {
      "inputs": [
        {
          "internalType": "bytes32",
          "name": "role",
          "type": "bytes32"
        },
        {
          "internalType": "address",
          "name": "account",
          "type": "address"
        }
      ],
      "name": "hasRole",
      "outputs": [
        {
          "internalType": "bool",
          "name": "",
          "type": "bool"
        }
      ],
      "stateMutability": "view",
      "type": "function"
    },
    {
      "inputs": [],
      "name": "laboratoryFactory",
      "outputs": [
        {
          "internalType": "contract LaboratoryFactory",
          "name": "",
          "type": "address"
        }
      ],
      "stateMutability": "view",
      "type": "function"
    },
    {
      "inputs": [
        {
          "internalType": "address",
          "name": "",
          "type": "address"
        }
      ],
      "name": "laboratoryRecords",
      "outputs": [
        {
          "internalType": "bytes32",
          "name": "name",
          "type": "bytes32"
        },
        {
          "internalType": "bytes32",
          "name": "_address",
          "type": "bytes32"
        },
        {
          "internalType": "bytes32",
          "name": "phonenumber",
          "type": "bytes32"
        },
        {
          "internalType": "bytes32",
          "name": "email",
          "type": "bytes32"
        },
        {
          "internalType": "uint32",
          "name": "registeredSince",
          "type": "uint32"
        },
        {
          "internalType": "uint32",
          "name": "unregisteredSince",
          "type": "uint32"
        },
        {
          "internalType": "bool",
          "name": "accreditated",
          "type": "bool"
        }
      ],
      "stateMutability": "view",
      "type": "function"
    },
    {
      "inputs": [],
      "name": "manufacturerFactory",
      "outputs": [
        {
          "internalType": "contract ManufacturerFactory",
          "name": "",
          "type": "address"
        }
      ],
      "stateMutability": "view",
      "type": "function"
    },
    {
      "inputs": [
        {
          "internalType": "address",
          "name": "",
          "type": "address"
        }
      ],
      "name": "manufacturerRecords",
      "outputs": [
        {
          "internalType": "bytes32",
          "name": "name",
          "type": "bytes32"
        },
        {
          "internalType": "bytes32",
          "name": "_address",
          "type": "bytes32"
        },
        {
          "internalType": "bytes32",
          "name": "phonenumber",
          "type": "bytes32"
        },
        {
          "internalType": "bytes32",
          "name": "email",
          "type": "bytes32"
        },
        {
          "internalType": "uint32",
          "name": "registeredSince",
          "type": "uint32"
        },
        {
          "internalType": "uint32",
          "name": "unregisteredSince",
          "type": "uint32"
        }
      ],
      "stateMutability": "view",
      "type": "function"
    },
    {
      "inputs": [
        {
          "internalType": "address",
          "name": "_accreditor",
          "type": "address"
        },
        {
          "internalType": "bytes32",
          "name": "_name",
          "type": "bytes32"
        },
        {
          "internalType": "bytes32",
          "name": "__address",
          "type": "bytes32"
        },
        {
          "internalType": "bytes32",
          "name": "_phonenumber",
          "type": "bytes32"
        },
        {
          "internalType": "bytes32",
          "name": "_email",
          "type": "bytes32"
        }
      ],
      "name": "registerAccreditor",
      "outputs": [],
      "stateMutability": "nonpayable",
      "type": "function"
    },
    {
      "inputs": [
        {
          "internalType": "address",
          "name": "_laboratory",
          "type": "address"
        },
        {
          "internalType": "bytes32",
          "name": "_name",
          "type": "bytes32"
        },
        {
          "internalType": "bytes32",
          "name": "__address",
          "type": "bytes32"
        },
        {
          "internalType": "bytes32",
          "name": "_phonenumber",
          "type": "bytes32"
        },
        {
          "internalType": "bytes32",
          "name": "_email",
          "type": "bytes32"
        }
      ],
      "name": "registerLaboratory",
      "outputs": [],
      "stateMutability": "nonpayable",
      "type": "function"
    },
    {
      "inputs": [
        {
          "internalType": "address",
          "name": "_manufacturer",
          "type": "address"
        },
        {
          "internalType": "bytes32",
          "name": "_name",
          "type": "bytes32"
        },
        {
          "internalType": "bytes32",
          "name": "__address",
          "type": "bytes32"
        },
        {
          "internalType": "bytes32",
          "name": "_phonenumber",
          "type": "bytes32"
        },
        {
          "internalType": "bytes32",
          "name": "_email",
          "type": "bytes32"
        }
      ],
      "name": "registerManufacturer",
      "outputs": [],
      "stateMutability": "nonpayable",
      "type": "function"
    },
    {
      "inputs": [
        {
          "internalType": "bytes32",
          "name": "role",
          "type": "bytes32"
        },
        {
          "internalType": "address",
          "name": "account",
          "type": "address"
        }
      ],
      "name": "renounceRole",
      "outputs": [],
      "stateMutability": "nonpayable",
      "type": "function"
    },
    {
      "inputs": [
        {
          "internalType": "bytes32",
          "name": "role",
          "type": "bytes32"
        },
        {
          "internalType": "address",
          "name": "account",
          "type": "address"
        }
      ],
      "name": "revokeRole",
      "outputs": [],
      "stateMutability": "nonpayable",
      "type": "function"
    },
    {
      "inputs": [
        {
          "internalType": "bytes4",
          "name": "interfaceId",
          "type": "bytes4"
        }
      ],
      "name": "supportsInterface",
      "outputs": [
        {
          "internalType": "bool",
          "name": "",
          "type": "bool"
        }
      ],
      "stateMutability": "view",
      "type": "function"
    },
    {
      "inputs": [
        {
          "internalType": "address",
          "name": "_accreditor",
          "type": "address"
        }
      ],
      "name": "unregisterAccreditor",
      "outputs": [],
      "stateMutability": "nonpayable",
      "type": "function"
    },
    {
      "inputs": [
        {
          "internalType": "address",
          "name": "_laboratory",
          "type": "address"
        }
      ],
      "name": "unregisterLaboratory",
      "outputs": [],
      "stateMutability": "nonpayable",
      "type": "function"
    },
    {
      "inputs": [
        {
          "internalType": "address",
          "name": "_manufacturer",
          "type": "address"
        }
      ],
      "name": "unregisterManufacturer",
      "outputs": [],
      "stateMutability": "nonpayable",
      "type": "function"
    }
  ],
  "bytecode": "0x60806040523480156200001157600080fd5b50604051620000209062000757565b604051809103906000f0801580156200003d573d6000803e3d6000fd5b50600160006101000a81548173ffffffffffffffffffffffffffffffffffffffff021916908373ffffffffffffffffffffffffffffffffffffffff1602179055506040516200008c9062000765565b604051809103906000f080158015620000a9573d6000803e3d6000fd5b50600260006101000a81548173ffffffffffffffffffffffffffffffffffffffff021916908373ffffffffffffffffffffffffffffffffffffffff160217905550604051620000f89062000773565b604051809103906000f08015801562000115573d6000803e3d6000fd5b50600360006101000a81548173ffffffffffffffffffffffffffffffffffffffff021916908373ffffffffffffffffffffffffffffffffffffffff1602179055506200016b6000801b33620001a360201b60201c565b6200019d7ff8fd5d5252959ff270be3e60d03d68015b2e1afb600707fe3cab83077df3415c33620001b960201b60201c565b62000adb565b620001b582826200020260201b60201c565b5050565b620001ca82620002f360201b60201c565b620001eb81620001df6200031260201b60201c565b6200031a60201b60201c565b620001fd83836200020260201b60201c565b505050565b620002148282620003de60201b60201c565b620002ef57600160008084815260200190815260200160002060000160008373ffffffffffffffffffffffffffffffffffffffff1673ffffffffffffffffffffffffffffffffffffffff16815260200190815260200160002060006101000a81548160ff021916908315150217905550620002946200031260201b60201c565b73ffffffffffffffffffffffffffffffffffffffff168173ffffffffffffffffffffffffffffffffffffffff16837f2f8788117e7eff1d82e926ec794901d17c78024a50270940304540a733656f0d60405160405180910390a45b5050565b6000806000838152602001908152602001600020600101549050919050565b600033905090565b6200032c8282620003de60201b60201c565b620003da576200035f8173ffffffffffffffffffffffffffffffffffffffff1660146200044860201b6200334d1760201c565b6200037a8360001c60206200044860201b6200334d1760201c565b6040516020016200038d929190620008bf565b6040516020818303038152906040526040517f08c379a0000000000000000000000000000000000000000000000000000000008152600401620003d1919062000901565b60405180910390fd5b5050565b600080600084815260200190815260200160002060000160008373ffffffffffffffffffffffffffffffffffffffff1673ffffffffffffffffffffffffffffffffffffffff16815260200190815260200160002060009054906101000a900460ff16905092915050565b6060600060028360026200045d9190620009cb565b6200046991906200096e565b67ffffffffffffffff811115620004a9577f4e487b7100000000000000000000000000000000000000000000000000000000600052604160045260246000fd5b6040519080825280601f01601f191660200182016040528015620004dc5781602001600182028036833780820191505090505b5090507f3000000000000000000000000000000000000000000000000000000000000000816000815181106200053b577f4e487b7100000000000000000000000000000000000000000000000000000000600052603260045260246000fd5b60200101907effffffffffffffffffffffffffffffffffffffffffffffffffffffffffffff1916908160001a9053507f780000000000000000000000000000000000000000000000000000000000000081600181518110620005c6577f4e487b7100000000000000000000000000000000000000000000000000000000600052603260045260246000fd5b60200101907effffffffffffffffffffffffffffffffffffffffffffffffffffffffffffff1916908160001a90535060006001846002620006089190620009cb565b6200061491906200096e565b90505b600181111562000706577f3031323334353637383961626364656600000000000000000000000000000000600f8616601081106200067e577f4e487b7100000000000000000000000000000000000000000000000000000000600052603260045260246000fd5b1a60f81b828281518110620006bc577f4e487b7100000000000000000000000000000000000000000000000000000000600052603260045260246000fd5b60200101907effffffffffffffffffffffffffffffffffffffffffffffffffffffffffffff1916908160001a905350600485901c945080620006fe9062000a6c565b905062000617565b50600084146200074d576040517f08c379a0000000000000000000000000000000000000000000000000000000008152600401620007449062000925565b60405180910390fd5b8091505092915050565b613785806200576183390190565b6142918062008ee683390190565b61490e806200d17783390190565b60006200078e8262000947565b6200079a818562000952565b9350620007ac81856020860162000a36565b620007b78162000aca565b840191505092915050565b6000620007cf8262000947565b620007db818562000963565b9350620007ed81856020860162000a36565b80840191505092915050565b60006200080860208362000952565b91507f537472696e67733a20686578206c656e67746820696e73756666696369656e746000830152602082019050919050565b60006200084a60178362000963565b91507f416363657373436f6e74726f6c3a206163636f756e74200000000000000000006000830152601782019050919050565b60006200088c60118362000963565b91507f206973206d697373696e6720726f6c65200000000000000000000000000000006000830152601182019050919050565b6000620008cc826200083b565b9150620008da8285620007c2565b9150620008e7826200087d565b9150620008f58284620007c2565b91508190509392505050565b600060208201905081810360008301526200091d818462000781565b905092915050565b600060208201905081810360008301526200094081620007f9565b9050919050565b600081519050919050565b600082825260208201905092915050565b600081905092915050565b60006200097b8262000a2c565b9150620009888362000a2c565b9250827fffffffffffffffffffffffffffffffffffffffffffffffffffffffffffffffff03821115620009c057620009bf62000a9b565b5b828201905092915050565b6000620009d88262000a2c565b9150620009e58362000a2c565b9250817fffffffffffffffffffffffffffffffffffffffffffffffffffffffffffffffff048311821515161562000a215762000a2062000a9b565b5b828202905092915050565b6000819050919050565b60005b8381101562000a5657808201518184015260208101905062000a39565b8381111562000a66576000848401525b50505050565b600062000a798262000a2c565b9150600082141562000a905762000a8f62000a9b565b5b600182039050919050565b7f4e487b7100000000000000000000000000000000000000000000000000000000600052601160045260246000fd5b6000601f19601f8301169050919050565b614c768062000aeb6000396000f3fe608060405234801561001057600080fd5b50600436106102745760003560e01c80638fb0ff4011610151578063d0137949116100c3578063e0e8779811610087578063e0e8779814610817578063e529abf314610835578063e589e83314610853578063f0a7994d14610871578063f1f7f4f8146108a1578063f447f565146108bf57610274565b8063d01379491461074f578063d2a1e61e1461077f578063d2e0fd7c146107af578063d547741f146107cb578063d709c1b7146107e757610274565b8063a217fddf11610115578063a217fddf14610679578063a8d9d3d014610697578063a9416c9e146106b3578063b69e43ed146106d1578063bc2ff461146106ef578063c05f16eb1461071f57610274565b80638fb0ff401461059d57806391d14854146105cd57806392c43223146105fd5780639530533b1461062d5780639a2cfa1b1461065d57610274565b8063426872ae116101ea5780635b9fbb20116101ae5780635b9fbb20146104b35780636f787c43146104cf578063746373ef146104ff57806374bf55021461052f57806379dd18c41461054b5780637b3bde201461056757610274565b8063426872ae1461040857806349ec99ee1461043d5780634d14226c1461045b57806358ea2503146104795780635a35f3f21461049557610274565b80632f2ff15d1161023c5780632f2ff15d1461033157806336568abe1461034d578063385d47a6146103695780633beb94ba146103995780633d2b6096146103b75780633dadc674146103d357610274565b806301ffc9a71461027957806308ed18da146102a95780631f52a9de146102c7578063248a9ca3146102e55780632a81972814610315575b600080fd5b610293600480360381019061028e9190613c22565b6108dd565b6040516102a091906144f9565b60405180910390f35b6102b1610957565b6040516102be9190614514565b60405180910390f35b6102cf61097b565b6040516102dc9190614514565b60405180910390f35b6102ff60048036038101906102fa9190613b81565b61099f565b60405161030c9190614514565b60405180910390f35b61032f600480360381019061032a9190613b81565b6109be565b005b61034b60048036038101906103469190613baa565b610a7c565b005b61036760048036038101906103629190613baa565b610aa5565b005b610383600480360381019061037e9190613aa5565b610b28565b6040516103909190614836565b60405180910390f35b6103a1610e95565b6040516103ae9190614873565b60405180910390f35b6103d160048036038101906103cc9190613b0a565b610ea2565b005b6103ed60048036038101906103e89190613aa5565b611339565b6040516103ff96959493929190614558565b60405180910390f35b610422600480360381019061041d9190613aa5565b611395565b60405161043496959493929190614558565b60405180910390f35b6104456113f1565b6040516104529190614514565b60405180910390f35b610463611415565b604051610470919061465e565b60405180910390f35b610493600480360381019061048e9190613b0a565b61143b565b005b61049d6118d2565b6040516104aa91906144de565b60405180910390f35b6104cd60048036038101906104c89190613aa5565b6118fc565b005b6104e960048036038101906104e49190613cc6565b611ba9565b6040516104f691906144de565b60405180910390f35b61051960048036038101906105149190613b81565b611c6a565b60405161052691906144de565b60405180910390f35b61054960048036038101906105449190613b0a565b611ca7565b005b61056560048036038101906105609190613be6565b61213e565b005b610581600480360381019061057c9190613aa5565b6122a3565b60405161059497969594939291906145b9565b60405180910390f35b6105b760048036038101906105b29190613cc6565b612312565b6040516105c491906144de565b60405180910390f35b6105e760048036038101906105e29190613baa565b6123d3565b6040516105f491906144f9565b60405180910390f35b61061760048036038101906106129190613aa5565b61243d565b604051610624919061481b565b60405180910390f35b61064760048036038101906106429190613aa5565b6126c2565b60405161065491906144de565b60405180910390f35b61067760048036038101906106729190613aa5565b61272b565b005b6106816129d8565b60405161068e9190614514565b60405180910390f35b6106b160048036038101906106ac9190613aa5565b6129df565b005b6106bb612c8c565b6040516106c89190614873565b60405180910390f35b6106d9612c99565b6040516106e691906144de565b60405180910390f35b61070960048036038101906107049190613cc6565b612cc3565b60405161071691906144de565b60405180910390f35b61073960048036038101906107349190613aa5565b612d84565b60405161074691906144de565b60405180910390f35b61076960048036038101906107649190613b81565b612ded565b60405161077691906144de565b60405180910390f35b61079960048036038101906107949190613b81565b612e2a565b6040516107a691906144de565b60405180910390f35b6107c960048036038101906107c49190613ace565b612e67565b005b6107e560048036038101906107e09190613baa565b612f8f565b005b61080160048036038101906107fc9190613aa5565b612fb8565b60405161080e9190614858565b60405180910390f35b61081f61323d565b60405161082c9190614643565b60405180910390f35b61083d613263565b60405161084a9190614873565b60405180910390f35b61085b613270565b60405161086891906144de565b60405180910390f35b61088b60048036038101906108869190613aa5565b61329a565b60405161089891906144de565b60405180910390f35b6108a9613303565b6040516108b69190614514565b60405180910390f35b6108c7613327565b6040516108d49190614628565b60405180910390f35b60007f7965db0b000000000000000000000000000000000000000000000000000000007bffffffffffffffffffffffffffffffffffffffffffffffffffffffff1916827bffffffffffffffffffffffffffffffffffffffffffffffffffffffff19161480610950575061094f82613647565b5b9050919050565b7fc42500f068296814e9a2676b40967f6b4d3dc167f762246399ba927cefe6ecb281565b7fac5b9b6edda63036f03c706e633bb22d42e4d64ab6ef75ca424c71b036dfc82b81565b6000806000838152602001908152602001600020600101549050919050565b6109e87f6659d833875b88922d2576dad6c137a09ba676496bb2010bf8a72397792167a0336123d3565b610a27576040517f08c379a0000000000000000000000000000000000000000000000000000000008152600401610a1e906146fb565b60405180910390fd5b336007600083815260200190815260200160002060006101000a81548173ffffffffffffffffffffffffffffffffffffffff021916908373ffffffffffffffffffffffffffffffffffffffff16021790555050565b610a858261099f565b610a9681610a916136b1565b6136b9565b610aa08383613756565b505050565b610aad6136b1565b73ffffffffffffffffffffffffffffffffffffffff168173ffffffffffffffffffffffffffffffffffffffff1614610b1a576040517f08c379a0000000000000000000000000000000000000000000000000000000008152600401610b11906147db565b60405180910390fd5b610b248282613836565b5050565b610b30613917565b600073ffffffffffffffffffffffffffffffffffffffff16600960008473ffffffffffffffffffffffffffffffffffffffff1673ffffffffffffffffffffffffffffffffffffffff16815260200190815260200160002060009054906101000a900473ffffffffffffffffffffffffffffffffffffffff1673ffffffffffffffffffffffffffffffffffffffff1614610d5b5760086000600960008573ffffffffffffffffffffffffffffffffffffffff1673ffffffffffffffffffffffffffffffffffffffff16815260200190815260200160002060009054906101000a900473ffffffffffffffffffffffffffffffffffffffff1673ffffffffffffffffffffffffffffffffffffffff1673ffffffffffffffffffffffffffffffffffffffff16815260200190815260200160002060405180610100016040529081600082015481526020016001820154815260200160028201548152602001600382015481526020016004820160009054906101000a900463ffffffff1663ffffffff1663ffffffff1681526020016004820160049054906101000a900463ffffffff1663ffffffff1663ffffffff1681526020016004820160089054906101000a900460ff1615151515815260200160058201805480602002602001604051908101604052809291908181526020018280548015610d4b57602002820191906000526020600020905b815481526020019060010190808311610d37575b5050505050815250509050610e90565b600860008373ffffffffffffffffffffffffffffffffffffffff1673ffffffffffffffffffffffffffffffffffffffff16815260200190815260200160002060405180610100016040529081600082015481526020016001820154815260200160028201548152602001600382015481526020016004820160009054906101000a900463ffffffff1663ffffffff1663ffffffff1681526020016004820160049054906101000a900463ffffffff1663ffffffff1663ffffffff1681526020016004820160089054906101000a900460ff1615151515815260200160058201805480602002602001604051908101604052809291908181526020018280548015610e8457602002820191906000526020600020905b815481526020019060010190808311610e70575b50505050508152505090505b919050565b6000600e80549050905090565b610ecc7ff8fd5d5252959ff270be3e60d03d68015b2e1afb600707fe3cab83077df3415c336123d3565b610ed557600080fd5b610f5e7fc42500f068296814e9a2676b40967f6b4d3dc167f762246399ba927cefe6ecb2600960008873ffffffffffffffffffffffffffffffffffffffff1673ffffffffffffffffffffffffffffffffffffffff16815260200190815260200160002060009054906101000a900473ffffffffffffffffffffffffffffffffffffffff166123d3565b15610f9e576040517f08c379a0000000000000000000000000000000000000000000000000000000008152600401610f959061479b565b60405180910390fd5b6000600260009054906101000a900473ffffffffffffffffffffffffffffffffffffffff1673ffffffffffffffffffffffffffffffffffffffff1663fb4e93aa876040518263ffffffff1660e01b8152600401610ffb91906144de565b602060405180830381600087803b15801561101557600080fd5b505af1158015611029573d6000803e3d6000fd5b505050506040513d601f19601f8201168201806040525081019061104d9190613c74565b905080600960008873ffffffffffffffffffffffffffffffffffffffff1673ffffffffffffffffffffffffffffffffffffffff16815260200190815260200160002060006101000a81548173ffffffffffffffffffffffffffffffffffffffff021916908373ffffffffffffffffffffffffffffffffffffffff16021790555084600860008373ffffffffffffffffffffffffffffffffffffffff1673ffffffffffffffffffffffffffffffffffffffff1681526020019081526020016000206000018190555083600860008373ffffffffffffffffffffffffffffffffffffffff1673ffffffffffffffffffffffffffffffffffffffff1681526020019081526020016000206001018190555082600860008373ffffffffffffffffffffffffffffffffffffffff1673ffffffffffffffffffffffffffffffffffffffff1681526020019081526020016000206002018190555081600860008373ffffffffffffffffffffffffffffffffffffffff1673ffffffffffffffffffffffffffffffffffffffff1681526020019081526020016000206003018190555042600860008373ffffffffffffffffffffffffffffffffffffffff1673ffffffffffffffffffffffffffffffffffffffff16815260200190815260200160002060040160006101000a81548163ffffffff021916908363ffffffff160217905550600a819080600181540180825580915050600190039060005260206000200160009091909190916101000a81548173ffffffffffffffffffffffffffffffffffffffff021916908373ffffffffffffffffffffffffffffffffffffffff1602179055506112d77fc42500f068296814e9a2676b40967f6b4d3dc167f762246399ba927cefe6ecb282610a7c565b8073ffffffffffffffffffffffffffffffffffffffff168673ffffffffffffffffffffffffffffffffffffffff167f59f12846ccf55310228846c3b3d97323b701421574ee7bc98944ba0f74e3747160405160405180910390a3505050505050565b600c6020528060005260406000206000915090508060000154908060010154908060020154908060030154908060040160009054906101000a900463ffffffff16908060040160049054906101000a900463ffffffff16905086565b60046020528060005260406000206000915090508060000154908060010154908060020154908060030154908060040160009054906101000a900463ffffffff16908060040160049054906101000a900463ffffffff16905086565b7f6659d833875b88922d2576dad6c137a09ba676496bb2010bf8a72397792167a081565b600160009054906101000a900473ffffffffffffffffffffffffffffffffffffffff1681565b6114657ff8fd5d5252959ff270be3e60d03d68015b2e1afb600707fe3cab83077df3415c326123d3565b61146e57600080fd5b6114f77f6659d833875b88922d2576dad6c137a09ba676496bb2010bf8a72397792167a0600560008873ffffffffffffffffffffffffffffffffffffffff1673ffffffffffffffffffffffffffffffffffffffff16815260200190815260200160002060009054906101000a900473ffffffffffffffffffffffffffffffffffffffff166123d3565b15611537576040517f08c379a000000000000000000000000000000000000000000000000000000000815260040161152e906147bb565b60405180910390fd5b6000600160009054906101000a900473ffffffffffffffffffffffffffffffffffffffff1673ffffffffffffffffffffffffffffffffffffffff16633af89c46876040518263ffffffff1660e01b815260040161159491906144de565b602060405180830381600087803b1580156115ae57600080fd5b505af11580156115c2573d6000803e3d6000fd5b505050506040513d601f19601f820116820180604052508101906115e69190613c9d565b905084600460008373ffffffffffffffffffffffffffffffffffffffff1673ffffffffffffffffffffffffffffffffffffffff1681526020019081526020016000206000018190555083600460008373ffffffffffffffffffffffffffffffffffffffff1673ffffffffffffffffffffffffffffffffffffffff1681526020019081526020016000206001018190555082600460008373ffffffffffffffffffffffffffffffffffffffff1673ffffffffffffffffffffffffffffffffffffffff1681526020019081526020016000206002018190555081600460008373ffffffffffffffffffffffffffffffffffffffff1673ffffffffffffffffffffffffffffffffffffffff1681526020019081526020016000206003018190555042600460008373ffffffffffffffffffffffffffffffffffffffff1673ffffffffffffffffffffffffffffffffffffffff16815260200190815260200160002060040160006101000a81548163ffffffff021916908363ffffffff16021790555080600560008873ffffffffffffffffffffffffffffffffffffffff1673ffffffffffffffffffffffffffffffffffffffff16815260200190815260200160002060006101000a81548173ffffffffffffffffffffffffffffffffffffffff021916908373ffffffffffffffffffffffffffffffffffffffff1602179055506006819080600181540180825580915050600190039060005260206000200160009091909190916101000a81548173ffffffffffffffffffffffffffffffffffffffff021916908373ffffffffffffffffffffffffffffffffffffffff1602179055506118707f6659d833875b88922d2576dad6c137a09ba676496bb2010bf8a72397792167a082610a7c565b8073ffffffffffffffffffffffffffffffffffffffff168673ffffffffffffffffffffffffffffffffffffffff167f44ccec44e14d9e3f82b3582af8384ea6d5e19a42f427392a0a7503889e9c7be960405160405180910390a3505050505050565b6000600360009054906101000a900473ffffffffffffffffffffffffffffffffffffffff16905090565b6119267ff8fd5d5252959ff270be3e60d03d68015b2e1afb600707fe3cab83077df3415c326123d3565b61192f57600080fd5b6119b87f6659d833875b88922d2576dad6c137a09ba676496bb2010bf8a72397792167a0600560008473ffffffffffffffffffffffffffffffffffffffff1673ffffffffffffffffffffffffffffffffffffffff16815260200190815260200160002060009054906101000a900473ffffffffffffffffffffffffffffffffffffffff166123d3565b6119f7576040517f08c379a00000000000000000000000000000000000000000000000000000000081526004016119ee9061473b565b60405180910390fd5b6000600560008373ffffffffffffffffffffffffffffffffffffffff1673ffffffffffffffffffffffffffffffffffffffff16815260200190815260200160002060009054906101000a900473ffffffffffffffffffffffffffffffffffffffff1690506000600460008373ffffffffffffffffffffffffffffffffffffffff1673ffffffffffffffffffffffffffffffffffffffff1681526020019081526020016000209050428160040160046101000a81548163ffffffff021916908363ffffffff160217905550611b4a7f6659d833875b88922d2576dad6c137a09ba676496bb2010bf8a72397792167a0600560008673ffffffffffffffffffffffffffffffffffffffff1673ffffffffffffffffffffffffffffffffffffffff16815260200190815260200160002060009054906101000a900473ffffffffffffffffffffffffffffffffffffffff16612f8f565b8173ffffffffffffffffffffffffffffffffffffffff168373ffffffffffffffffffffffffffffffffffffffff167f980f733c6ce4f8e1295c314ab690cda82b98a44c4d49f81fd97148513ec7e73360405160405180910390a3505050565b60006001600680549050611bbd919061499e565b8210611bfe576040517f08c379a0000000000000000000000000000000000000000000000000000000008152600401611bf5906146bb565b60405180910390fd5b60068281548110611c38577f4e487b7100000000000000000000000000000000000000000000000000000000600052603260045260246000fd5b9060005260206000200160009054906101000a900473ffffffffffffffffffffffffffffffffffffffff169050919050565b60006007600083815260200190815260200160002060009054906101000a900473ffffffffffffffffffffffffffffffffffffffff169050919050565b611cd17ff8fd5d5252959ff270be3e60d03d68015b2e1afb600707fe3cab83077df3415c326123d3565b611cda57600080fd5b611d637fac5b9b6edda63036f03c706e633bb22d42e4d64ab6ef75ca424c71b036dfc82b600d60008873ffffffffffffffffffffffffffffffffffffffff1673ffffffffffffffffffffffffffffffffffffffff16815260200190815260200160002060009054906101000a900473ffffffffffffffffffffffffffffffffffffffff166123d3565b15611da3576040517f08c379a0000000000000000000000000000000000000000000000000000000008152600401611d9a9061477b565b60405180910390fd5b6000600360009054906101000a900473ffffffffffffffffffffffffffffffffffffffff1673ffffffffffffffffffffffffffffffffffffffff1663e67d6b9e876040518263ffffffff1660e01b8152600401611e0091906144de565b602060405180830381600087803b158015611e1a57600080fd5b505af1158015611e2e573d6000803e3d6000fd5b505050506040513d601f19601f82011682018060405250810190611e529190613c4b565b905084600c60008373ffffffffffffffffffffffffffffffffffffffff1673ffffffffffffffffffffffffffffffffffffffff1681526020019081526020016000206000018190555083600c60008373ffffffffffffffffffffffffffffffffffffffff1673ffffffffffffffffffffffffffffffffffffffff1681526020019081526020016000206001018190555081600c60008373ffffffffffffffffffffffffffffffffffffffff1673ffffffffffffffffffffffffffffffffffffffff1681526020019081526020016000206003018190555042600c60008373ffffffffffffffffffffffffffffffffffffffff1673ffffffffffffffffffffffffffffffffffffffff16815260200190815260200160002060040160006101000a81548163ffffffff021916908363ffffffff16021790555082600c60008373ffffffffffffffffffffffffffffffffffffffff1673ffffffffffffffffffffffffffffffffffffffff1681526020019081526020016000206002018190555080600d60008873ffffffffffffffffffffffffffffffffffffffff1673ffffffffffffffffffffffffffffffffffffffff16815260200190815260200160002060006101000a81548173ffffffffffffffffffffffffffffffffffffffff021916908373ffffffffffffffffffffffffffffffffffffffff160217905550600e819080600181540180825580915050600190039060005260206000200160009091909190916101000a81548173ffffffffffffffffffffffffffffffffffffffff021916908373ffffffffffffffffffffffffffffffffffffffff1602179055506120dc7fc42500f068296814e9a2676b40967f6b4d3dc167f762246399ba927cefe6ecb282610a7c565b8073ffffffffffffffffffffffffffffffffffffffff168673ffffffffffffffffffffffffffffffffffffffff167f3ab38631ac815a68dd09d8248d9ec1b6176b3b06aadd8e8e295eff6bedafebfa60405160405180910390a3505050505050565b6121687fc42500f068296814e9a2676b40967f6b4d3dc167f762246399ba927cefe6ecb2336123d3565b6121a7576040517f08c379a000000000000000000000000000000000000000000000000000000000815260040161219e906146db565b60405180910390fd5b60006007600084815260200190815260200160002060009054906101000a900473ffffffffffffffffffffffffffffffffffffffff1690508073ffffffffffffffffffffffffffffffffffffffff166379dd18c484846040518363ffffffff1660e01b815260040161221a92919061452f565b600060405180830381600087803b15801561223457600080fd5b505af1158015612248573d6000803e3d6000fd5b5050505033600b600084815260200190815260200160002060006101000a81548173ffffffffffffffffffffffffffffffffffffffff021916908373ffffffffffffffffffffffffffffffffffffffff160217905550505050565b60086020528060005260406000206000915090508060000154908060010154908060020154908060030154908060040160009054906101000a900463ffffffff16908060040160049054906101000a900463ffffffff16908060040160089054906101000a900460ff16905087565b60006001600a80549050612326919061499e565b8210612367576040517f08c379a000000000000000000000000000000000000000000000000000000000815260040161235e906146bb565b60405180910390fd5b600a82815481106123a1577f4e487b7100000000000000000000000000000000000000000000000000000000600052603260045260246000fd5b9060005260206000200160009054906101000a900473ffffffffffffffffffffffffffffffffffffffff169050919050565b600080600084815260200190815260200160002060000160008373ffffffffffffffffffffffffffffffffffffffff1673ffffffffffffffffffffffffffffffffffffffff16815260200190815260200160002060009054906101000a900460ff16905092915050565b612445613976565b600073ffffffffffffffffffffffffffffffffffffffff16600d60008473ffffffffffffffffffffffffffffffffffffffff1673ffffffffffffffffffffffffffffffffffffffff16815260200190815260200160002060009054906101000a900473ffffffffffffffffffffffffffffffffffffffff1673ffffffffffffffffffffffffffffffffffffffff16146125fc57600c6000600d60008573ffffffffffffffffffffffffffffffffffffffff1673ffffffffffffffffffffffffffffffffffffffff16815260200190815260200160002060009054906101000a900473ffffffffffffffffffffffffffffffffffffffff1673ffffffffffffffffffffffffffffffffffffffff1673ffffffffffffffffffffffffffffffffffffffff1681526020019081526020016000206040518060c0016040529081600082015481526020016001820154815260200160028201548152602001600382015481526020016004820160009054906101000a900463ffffffff1663ffffffff1663ffffffff1681526020016004820160049054906101000a900463ffffffff1663ffffffff1663ffffffff168152505090506126bd565b600c60008373ffffffffffffffffffffffffffffffffffffffff1673ffffffffffffffffffffffffffffffffffffffff1681526020019081526020016000206040518060c0016040529081600082015481526020016001820154815260200160028201548152602001600382015481526020016004820160009054906101000a900463ffffffff1663ffffffff1663ffffffff1681526020016004820160049054906101000a900463ffffffff1663ffffffff1663ffffffff168152505090505b919050565b6000600d60008373ffffffffffffffffffffffffffffffffffffffff1673ffffffffffffffffffffffffffffffffffffffff16815260200190815260200160002060009054906101000a900473ffffffffffffffffffffffffffffffffffffffff169050919050565b6127557ff8fd5d5252959ff270be3e60d03d68015b2e1afb600707fe3cab83077df3415c336123d3565b61275e57600080fd5b6127e77fc42500f068296814e9a2676b40967f6b4d3dc167f762246399ba927cefe6ecb2600960008473ffffffffffffffffffffffffffffffffffffffff1673ffffffffffffffffffffffffffffffffffffffff16815260200190815260200160002060009054906101000a900473ffffffffffffffffffffffffffffffffffffffff166123d3565b612826576040517f08c379a000000000000000000000000000000000000000000000000000000000815260040161281d906147fb565b60405180910390fd5b6000600960008373ffffffffffffffffffffffffffffffffffffffff1673ffffffffffffffffffffffffffffffffffffffff16815260200190815260200160002060009054906101000a900473ffffffffffffffffffffffffffffffffffffffff1690506000600860008373ffffffffffffffffffffffffffffffffffffffff1673ffffffffffffffffffffffffffffffffffffffff1681526020019081526020016000209050428160040160046101000a81548163ffffffff021916908363ffffffff1602179055506129797fc42500f068296814e9a2676b40967f6b4d3dc167f762246399ba927cefe6ecb2600960008673ffffffffffffffffffffffffffffffffffffffff1673ffffffffffffffffffffffffffffffffffffffff16815260200190815260200160002060009054906101000a900473ffffffffffffffffffffffffffffffffffffffff16612f8f565b8173ffffffffffffffffffffffffffffffffffffffff168373ffffffffffffffffffffffffffffffffffffffff167f2947bc08b398ca55edeaca9ea0157eaebaadccfb3d53cd83a5eb46e91b7961cb60405160405180910390a3505050565b6000801b81565b612a097ff8fd5d5252959ff270be3e60d03d68015b2e1afb600707fe3cab83077df3415c336123d3565b612a1257600080fd5b612a9b7fac5b9b6edda63036f03c706e633bb22d42e4d64ab6ef75ca424c71b036dfc82b600d60008473ffffffffffffffffffffffffffffffffffffffff1673ffffffffffffffffffffffffffffffffffffffff16815260200190815260200160002060009054906101000a900473ffffffffffffffffffffffffffffffffffffffff166123d3565b612ada576040517f08c379a0000000000000000000000000000000000000000000000000000000008152600401612ad19061471b565b60405180910390fd5b6000600d60008373ffffffffffffffffffffffffffffffffffffffff1673ffffffffffffffffffffffffffffffffffffffff16815260200190815260200160002060009054906101000a900473ffffffffffffffffffffffffffffffffffffffff1690506000600c60008373ffffffffffffffffffffffffffffffffffffffff1673ffffffffffffffffffffffffffffffffffffffff1681526020019081526020016000209050428160040160046101000a81548163ffffffff021916908363ffffffff160217905550612c2d7fac5b9b6edda63036f03c706e633bb22d42e4d64ab6ef75ca424c71b036dfc82b600d60008673ffffffffffffffffffffffffffffffffffffffff1673ffffffffffffffffffffffffffffffffffffffff16815260200190815260200160002060009054906101000a900473ffffffffffffffffffffffffffffffffffffffff16612f8f565b8173ffffffffffffffffffffffffffffffffffffffff168373ffffffffffffffffffffffffffffffffffffffff167f8d3422af021203591f7ad2f76df2d01c0a4c0ea6211b7fed9add8d6c59fb31ed60405160405180910390a3505050565b6000600680549050905090565b6000600160009054906101000a900473ffffffffffffffffffffffffffffffffffffffff16905090565b60006001600e80549050612cd7919061499e565b8210612d18576040517f08c379a0000000000000000000000000000000000000000000000000000000008152600401612d0f906146bb565b60405180910390fd5b600e8281548110612d52577f4e487b7100000000000000000000000000000000000000000000000000000000600052603260045260246000fd5b9060005260206000200160009054906101000a900473ffffffffffffffffffffffffffffffffffffffff169050919050565b6000600960008373ffffffffffffffffffffffffffffffffffffffff1673ffffffffffffffffffffffffffffffffffffffff16815260200190815260200160002060009054906101000a900473ffffffffffffffffffffffffffffffffffffffff169050919050565b6000600b600083815260200190815260200160002060009054906101000a900473ffffffffffffffffffffffffffffffffffffffff169050919050565b6000600f600083815260200190815260200160002060009054906101000a900473ffffffffffffffffffffffffffffffffffffffff169050919050565b612e917fac5b9b6edda63036f03c706e633bb22d42e4d64ab6ef75ca424c71b036dfc82b336123d3565b612ed0576040517f08c379a0000000000000000000000000000000000000000000000000000000008152600401612ec79061475b565b60405180910390fd5b33600f600083815260200190815260200160002060006101000a81548173ffffffffffffffffffffffffffffffffffffffff021916908373ffffffffffffffffffffffffffffffffffffffff160217905550600860008373ffffffffffffffffffffffffffffffffffffffff1673ffffffffffffffffffffffffffffffffffffffff1681526020019081526020016000206005018190806001815401808255809150506001900390600052602060002001600090919091909150555050565b612f988261099f565b612fa981612fa46136b1565b6136b9565b612fb38383613836565b505050565b612fc06139c4565b600073ffffffffffffffffffffffffffffffffffffffff16600560008473ffffffffffffffffffffffffffffffffffffffff1673ffffffffffffffffffffffffffffffffffffffff16815260200190815260200160002060009054906101000a900473ffffffffffffffffffffffffffffffffffffffff1673ffffffffffffffffffffffffffffffffffffffff16146131775760046000600560008573ffffffffffffffffffffffffffffffffffffffff1673ffffffffffffffffffffffffffffffffffffffff16815260200190815260200160002060009054906101000a900473ffffffffffffffffffffffffffffffffffffffff1673ffffffffffffffffffffffffffffffffffffffff1673ffffffffffffffffffffffffffffffffffffffff1681526020019081526020016000206040518060c0016040529081600082015481526020016001820154815260200160028201548152602001600382015481526020016004820160009054906101000a900463ffffffff1663ffffffff1663ffffffff1681526020016004820160049054906101000a900463ffffffff1663ffffffff1663ffffffff16815250509050613238565b600460008373ffffffffffffffffffffffffffffffffffffffff1673ffffffffffffffffffffffffffffffffffffffff1681526020019081526020016000206040518060c0016040529081600082015481526020016001820154815260200160028201548152602001600382015481526020016004820160009054906101000a900463ffffffff1663ffffffff1663ffffffff1681526020016004820160049054906101000a900463ffffffff1663ffffffff1663ffffffff168152505090505b919050565b600260009054906101000a900473ffffffffffffffffffffffffffffffffffffffff1681565b6000600a80549050905090565b6000600260009054906101000a900473ffffffffffffffffffffffffffffffffffffffff16905090565b6000600560008373ffffffffffffffffffffffffffffffffffffffff1673ffffffffffffffffffffffffffffffffffffffff16815260200190815260200160002060009054906101000a900473ffffffffffffffffffffffffffffffffffffffff169050919050565b7ff8fd5d5252959ff270be3e60d03d68015b2e1afb600707fe3cab83077df3415c81565b600360009054906101000a900473ffffffffffffffffffffffffffffffffffffffff1681565b6060600060028360026133609190614944565b61336a91906148ee565b67ffffffffffffffff8111156133a9577f4e487b7100000000000000000000000000000000000000000000000000000000600052604160045260246000fd5b6040519080825280601f01601f1916602001820160405280156133db5781602001600182028036833780820191505090505b5090507f300000000000000000000000000000000000000000000000000000000000000081600081518110613439577f4e487b7100000000000000000000000000000000000000000000000000000000600052603260045260246000fd5b60200101907effffffffffffffffffffffffffffffffffffffffffffffffffffffffffffff1916908160001a9053507f7800000000000000000000000000000000000000000000000000000000000000816001815181106134c3577f4e487b7100000000000000000000000000000000000000000000000000000000600052603260045260246000fd5b60200101907effffffffffffffffffffffffffffffffffffffffffffffffffffffffffffff1916908160001a905350600060018460026135039190614944565b61350d91906148ee565b90505b60018111156135f9577f3031323334353637383961626364656600000000000000000000000000000000600f861660108110613575577f4e487b7100000000000000000000000000000000000000000000000000000000600052603260045260246000fd5b1a60f81b8282815181106135b2577f4e487b7100000000000000000000000000000000000000000000000000000000600052603260045260246000fd5b60200101907effffffffffffffffffffffffffffffffffffffffffffffffffffffffffffff1916908160001a905350600485901c9450806135f290614b35565b9050613510565b506000841461363d576040517f08c379a00000000000000000000000000000000000000000000000000000000081526004016136349061469b565b60405180910390fd5b8091505092915050565b60007f01ffc9a7000000000000000000000000000000000000000000000000000000007bffffffffffffffffffffffffffffffffffffffffffffffffffffffff1916827bffffffffffffffffffffffffffffffffffffffffffffffffffffffff1916149050919050565b600033905090565b6136c382826123d3565b613752576136e88173ffffffffffffffffffffffffffffffffffffffff16601461334d565b6136f68360001c602061334d565b6040516020016137079291906144a4565b6040516020818303038152906040526040517f08c379a00000000000000000000000000000000000000000000000000000000081526004016137499190614679565b60405180910390fd5b5050565b61376082826123d3565b61383257600160008084815260200190815260200160002060000160008373ffffffffffffffffffffffffffffffffffffffff1673ffffffffffffffffffffffffffffffffffffffff16815260200190815260200160002060006101000a81548160ff0219169083151502179055506137d76136b1565b73ffffffffffffffffffffffffffffffffffffffff168173ffffffffffffffffffffffffffffffffffffffff16837f2f8788117e7eff1d82e926ec794901d17c78024a50270940304540a733656f0d60405160405180910390a45b5050565b61384082826123d3565b1561391357600080600084815260200190815260200160002060000160008373ffffffffffffffffffffffffffffffffffffffff1673ffffffffffffffffffffffffffffffffffffffff16815260200190815260200160002060006101000a81548160ff0219169083151502179055506138b86136b1565b73ffffffffffffffffffffffffffffffffffffffff168173ffffffffffffffffffffffffffffffffffffffff16837ff6391f5c32d9c69d2a47ea670b442974b53935d1edc7fd64eb21e047a839171b60405160405180910390a45b5050565b60405180610100016040528060008019168152602001600080191681526020016000801916815260200160008019168152602001600063ffffffff168152602001600063ffffffff168152602001600015158152602001606081525090565b6040518060c0016040528060008019168152602001600080191681526020016000801916815260200160008019168152602001600063ffffffff168152602001600063ffffffff1681525090565b6040518060c0016040528060008019168152602001600080191681526020016000801916815260200160008019168152602001600063ffffffff168152602001600063ffffffff1681525090565b600081359050613a2181614b9f565b92915050565b600081359050613a3681614bb6565b92915050565b600081359050613a4b81614bcd565b92915050565b600081519050613a6081614be4565b92915050565b600081519050613a7581614bfb565b92915050565b600081519050613a8a81614c12565b92915050565b600081359050613a9f81614c29565b92915050565b600060208284031215613ab757600080fd5b6000613ac584828501613a12565b91505092915050565b60008060408385031215613ae157600080fd5b6000613aef85828601613a12565b9250506020613b0085828601613a27565b9150509250929050565b600080600080600060a08688031215613b2257600080fd5b6000613b3088828901613a12565b9550506020613b4188828901613a27565b9450506040613b5288828901613a27565b9350506060613b6388828901613a27565b9250506080613b7488828901613a27565b9150509295509295909350565b600060208284031215613b9357600080fd5b6000613ba184828501613a27565b91505092915050565b60008060408385031215613bbd57600080fd5b6000613bcb85828601613a27565b9250506020613bdc85828601613a12565b9150509250929050565b60008060408385031215613bf957600080fd5b6000613c0785828601613a27565b9250506020613c1885828601613a27565b9150509250929050565b600060208284031215613c3457600080fd5b6000613c4284828501613a3c565b91505092915050565b600060208284031215613c5d57600080fd5b6000613c6b84828501613a51565b91505092915050565b600060208284031215613c8657600080fd5b6000613c9484828501613a66565b91505092915050565b600060208284031215613caf57600080fd5b6000613cbd84828501613a7b565b91505092915050565b600060208284031215613cd857600080fd5b6000613ce684828501613a90565b91505092915050565b6000613cfb8383613d92565b60208301905092915050565b613d10816149d2565b82525050565b6000613d218261489e565b613d2b81856148c1565b9350613d368361488e565b8060005b83811015613d67578151613d4e8882613cef565b9750613d59836148b4565b925050600181019050613d3a565b5085935050505092915050565b613d7d816149e4565b82525050565b613d8c816149e4565b82525050565b613d9b816149f0565b82525050565b613daa816149f0565b82525050565b613db981614a96565b82525050565b613dc881614aba565b82525050565b613dd781614ade565b82525050565b6000613de8826148a9565b613df281856148d2565b9350613e02818560208601614b02565b613e0b81614b8e565b840191505092915050565b6000613e21826148a9565b613e2b81856148e3565b9350613e3b818560208601614b02565b80840191505092915050565b6000613e546020836148d2565b91507f537472696e67733a20686578206c656e67746820696e73756666696369656e746000830152602082019050919050565b6000613e94600f836148d2565b91507f6e6f742076616c696420696e64657800000000000000000000000000000000006000830152602082019050919050565b6000613ed46010836148d2565b91507f4e6f742061204c61626f7261746f7279000000000000000000000000000000006000830152602082019050919050565b6000613f146012836148d2565b91507f4e6f742061204d616e75666163747572657200000000000000000000000000006000830152602082019050919050565b6000613f546027836148d2565b91507f546869732061636372656469746f7220697320616c726561647920756e72656760008301527f69737465726564000000000000000000000000000000000000000000000000006020830152604082019050919050565b6000613fba6029836148d2565b91507f54686973206d616e75666163747572657220697320616c726561647920756e7260008301527f65676973746572656400000000000000000000000000000000000000000000006020830152604082019050919050565b60006140206011836148d2565b91507f4e6f7420616e2041636372656469746f720000000000000000000000000000006000830152602082019050919050565b60006140606025836148d2565b91507f546869732061636372656469746f7220697320616c726561647920726567697360008301527f74657265640000000000000000000000000000000000000000000000000000006020830152604082019050919050565b60006140c66025836148d2565b91507f54686973206c61626f7261746f727920697320616c726561647920726567697360008301527f74657265640000000000000000000000000000000000000000000000000000006020830152604082019050919050565b600061412c6027836148d2565b91507f54686973206d616e75666163747572657220697320616c72656164792072656760008301527f69737465726564000000000000000000000000000000000000000000000000006020830152604082019050919050565b60006141926017836148e3565b91507f416363657373436f6e74726f6c3a206163636f756e74200000000000000000006000830152601782019050919050565b60006141d26011836148e3565b91507f206973206d697373696e6720726f6c65200000000000000000000000000000006000830152601182019050919050565b6000614212602f836148d2565b91507f416363657373436f6e74726f6c3a2063616e206f6e6c792072656e6f756e636560008301527f20726f6c657320666f722073656c6600000000000000000000000000000000006020830152604082019050919050565b60006142786027836148d2565b91507f54686973206c61626f7261746f727920697320616c726561647920756e72656760008301527f69737465726564000000000000000000000000000000000000000000000000006020830152604082019050919050565b60c0820160008201516142e76000850182613d92565b5060208201516142fa6020850182613d92565b50604082015161430d6040850182613d92565b5060608201516143206060850182613d92565b5060808201516143336080850182614486565b5060a082015161434660a0850182614486565b50505050565b6000610100830160008301516143656000860182613d92565b5060208301516143786020860182613d92565b50604083015161438b6040860182613d92565b50606083015161439e6060860182613d92565b5060808301516143b16080860182614486565b5060a08301516143c460a0860182614486565b5060c08301516143d760c0860182613d74565b5060e083015184820360e08601526143ef8282613d16565b9150508091505092915050565b60c0820160008201516144126000850182613d92565b5060208201516144256020850182613d92565b5060408201516144386040850182613d92565b50606082015161444b6060850182613d92565b50608082015161445e6080850182614486565b5060a082015161447160a0850182614486565b50505050565b61448081614a7c565b82525050565b61448f81614a86565b82525050565b61449e81614a86565b82525050565b60006144af82614185565b91506144bb8285613e16565b91506144c6826141c5565b91506144d28284613e16565b91508190509392505050565b60006020820190506144f36000830184613d07565b92915050565b600060208201905061450e6000830184613d83565b92915050565b60006020820190506145296000830184613da1565b92915050565b60006040820190506145446000830185613da1565b6145516020830184613da1565b9392505050565b600060c08201905061456d6000830189613da1565b61457a6020830188613da1565b6145876040830187613da1565b6145946060830186613da1565b6145a16080830185614495565b6145ae60a0830184614495565b979650505050505050565b600060e0820190506145ce600083018a613da1565b6145db6020830189613da1565b6145e86040830188613da1565b6145f56060830187613da1565b6146026080830186614495565b61460f60a0830185614495565b61461c60c0830184613d83565b98975050505050505050565b600060208201905061463d6000830184613db0565b92915050565b60006020820190506146586000830184613dbf565b92915050565b60006020820190506146736000830184613dce565b92915050565b600060208201905081810360008301526146938184613ddd565b905092915050565b600060208201905081810360008301526146b481613e47565b9050919050565b600060208201905081810360008301526146d481613e87565b9050919050565b600060208201905081810360008301526146f481613ec7565b9050919050565b6000602082019050818103600083015261471481613f07565b9050919050565b6000602082019050818103600083015261473481613f47565b9050919050565b6000602082019050818103600083015261475481613fad565b9050919050565b6000602082019050818103600083015261477481614013565b9050919050565b6000602082019050818103600083015261479481614053565b9050919050565b600060208201905081810360008301526147b4816140b9565b9050919050565b600060208201905081810360008301526147d48161411f565b9050919050565b600060208201905081810360008301526147f481614205565b9050919050565b600060208201905081810360008301526148148161426b565b9050919050565b600060c08201905061483060008301846142d1565b92915050565b60006020820190508181036000830152614850818461434c565b905092915050565b600060c08201905061486d60008301846143fc565b92915050565b60006020820190506148886000830184614477565b92915050565b6000819050602082019050919050565b600081519050919050565b600081519050919050565b6000602082019050919050565b600082825260208201905092915050565b600082825260208201905092915050565b600081905092915050565b60006148f982614a7c565b915061490483614a7c565b9250827fffffffffffffffffffffffffffffffffffffffffffffffffffffffffffffffff0382111561493957614938614b5f565b5b828201905092915050565b600061494f82614a7c565b915061495a83614a7c565b9250817fffffffffffffffffffffffffffffffffffffffffffffffffffffffffffffffff048311821515161561499357614992614b5f565b5b828202905092915050565b60006149a982614a7c565b91506149b483614a7c565b9250828210156149c7576149c6614b5f565b5b828203905092915050565b60006149dd82614a5c565b9050919050565b60008115159050919050565b6000819050919050565b60007fffffffff0000000000000000000000000000000000000000000000000000000082169050919050565b6000614a31826149d2565b9050919050565b6000614a43826149d2565b9050919050565b6000614a55826149d2565b9050919050565b600073ffffffffffffffffffffffffffffffffffffffff82169050919050565b6000819050919050565b600063ffffffff82169050919050565b6000614aa182614aa8565b9050919050565b6000614ab382614a5c565b9050919050565b6000614ac582614acc565b9050919050565b6000614ad782614a5c565b9050919050565b6000614ae982614af0565b9050919050565b6000614afb82614a5c565b9050919050565b60005b83811015614b20578082015181840152602081019050614b05565b83811115614b2f576000848401525b50505050565b6000614b4082614a7c565b91506000821415614b5457614b53614b5f565b5b600182039050919050565b7f4e487b7100000000000000000000000000000000000000000000000000000000600052601160045260246000fd5b6000601f19601f8301169050919050565b614ba8816149d2565b8114614bb357600080fd5b50565b614bbf816149f0565b8114614bca57600080fd5b50565b614bd6816149fa565b8114614be157600080fd5b50565b614bed81614a26565b8114614bf857600080fd5b50565b614c0481614a38565b8114614c0f57600080fd5b50565b614c1b81614a4a565b8114614c2657600080fd5b50565b614c3281614a7c565b8114614c3d57600080fd5b5056fea2646970667358221220f44ac5d5b75be1b4ae66ad13caba35b49b4ac1d83b4e4f407ba569aa741888a364736f6c63430008000033608060405234801561001057600080fd5b5061002d61002261003260201b60201c565b61003a60201b60201c565b6100fe565b600033905090565b60008060009054906101000a900473ffffffffffffffffffffffffffffffffffffffff169050816000806101000a81548173ffffffffffffffffffffffffffffffffffffffff021916908373ffffffffffffffffffffffffffffffffffffffff1602179055508173ffffffffffffffffffffffffffffffffffffffff168173ffffffffffffffffffffffffffffffffffffffff167f8be0079c531659141344cd1fd0a4f28419497f9722a3daafe3b4186f6b6457e060405160405180910390a35050565b6136788061010d6000396000f3fe60806040523480156200001157600080fd5b50600436106200005e5760003560e01c80633af89c46146200006357806369dc9ff31462000099578063715018a614620000cf5780638da5cb5b14620000db578063f2fde38b14620000fd575b600080fd5b6200008160048036038101906200007b919062000510565b6200011d565b60405162000090919062000680565b60405180910390f35b620000b76004803603810190620000b1919062000510565b62000241565b604051620000c6919062000663565b60405180910390f35b620000d962000261565b005b620000e5620002f2565b604051620000f4919062000619565b60405180910390f35b6200011b600480360381019062000115919062000510565b6200031b565b005b6000620001296200041f565b73ffffffffffffffffffffffffffffffffffffffff1662000149620002f2565b73ffffffffffffffffffffffffffffffffffffffff1614620001a2576040517f08c379a00000000000000000000000000000000000000000000000000000000081526004016200019990620006bf565b60405180910390fd5b60008233604051620001b490620004eb565b620001c192919062000636565b604051809103906000f080158015620001de573d6000803e3d6000fd5b50905060018060008373ffffffffffffffffffffffffffffffffffffffff1673ffffffffffffffffffffffffffffffffffffffff16815260200190815260200160002060006101000a81548160ff02191690831515021790555080915050919050565b60016020528060005260406000206000915054906101000a900460ff1681565b6200026b6200041f565b73ffffffffffffffffffffffffffffffffffffffff166200028b620002f2565b73ffffffffffffffffffffffffffffffffffffffff1614620002e4576040517f08c379a0000000000000000000000000000000000000000000000000000000008152600401620002db90620006bf565b60405180910390fd5b620002f0600062000427565b565b60008060009054906101000a900473ffffffffffffffffffffffffffffffffffffffff16905090565b620003256200041f565b73ffffffffffffffffffffffffffffffffffffffff1662000345620002f2565b73ffffffffffffffffffffffffffffffffffffffff16146200039e576040517f08c379a00000000000000000000000000000000000000000000000000000000081526004016200039590620006bf565b60405180910390fd5b600073ffffffffffffffffffffffffffffffffffffffff168173ffffffffffffffffffffffffffffffffffffffff16141562000411576040517f08c379a000000000000000000000000000000000000000000000000000000000815260040162000408906200069d565b60405180910390fd5b6200041c8162000427565b50565b600033905090565b60008060009054906101000a900473ffffffffffffffffffffffffffffffffffffffff169050816000806101000a81548173ffffffffffffffffffffffffffffffffffffffff021916908373ffffffffffffffffffffffffffffffffffffffff1602179055508173ffffffffffffffffffffffffffffffffffffffff168173ffffffffffffffffffffffffffffffffffffffff167f8be0079c531659141344cd1fd0a4f28419497f9722a3daafe3b4186f6b6457e060405160405180910390a35050565b612ece806200077583390190565b6000813590506200050a816200075a565b92915050565b6000602082840312156200052357600080fd5b60006200053384828501620004f9565b91505092915050565b6200054781620006f2565b82525050565b620005588162000706565b82525050565b620005698162000732565b82525050565b60006200057e602683620006e1565b91507f4f776e61626c653a206e6577206f776e657220697320746865207a65726f206160008301527f64647265737300000000000000000000000000000000000000000000000000006020830152604082019050919050565b6000620005e6602083620006e1565b91507f4f776e61626c653a2063616c6c6572206973206e6f7420746865206f776e65726000830152602082019050919050565b60006020820190506200063060008301846200053c565b92915050565b60006040820190506200064d60008301856200053c565b6200065c60208301846200053c565b9392505050565b60006020820190506200067a60008301846200054d565b92915050565b60006020820190506200069760008301846200055e565b92915050565b60006020820190508181036000830152620006b8816200056f565b9050919050565b60006020820190508181036000830152620006da81620005d7565b9050919050565b600082825260208201905092915050565b6000620006ff8262000712565b9050919050565b60008115159050919050565b600073ffffffffffffffffffffffffffffffffffffffff82169050919050565b60006200073f8262000746565b9050919050565b6000620007538262000712565b9050919050565b6200076581620006f2565b81146200077157600080fd5b5056fe60806040523480156200001157600080fd5b5060405162002ece38038062002ece833981810160405281019062000037919062000779565b80600160006101000a81548173ffffffffffffffffffffffffffffffffffffffff021916908373ffffffffffffffffffffffffffffffffffffffff1602179055506200008d6000801b826200014b60201b60201c565b620000bf7f843b48dccc6ff192f9330133622b0536f7b94feca0cf36e7e46fc50060b6f882826200016160201b60201c565b620000f17f6270edb7c868f86fda4adedba75108201087268ea345934db8bad688e1feb91b836200016160201b60201c565b620001437fc7ddcf4441a1bb01353b38db832023115117943d28ad05b882de4ad99e94b8fc7f6270edb7c868f86fda4adedba75108201087268ea345934db8bad688e1feb91b620001aa60201b60201c565b505062000b62565b6200015d82826200020d60201b60201c565b5050565b6200017282620002fe60201b60201c565b6200019381620001876200031d60201b60201c565b6200032560201b60201c565b620001a583836200020d60201b60201c565b505050565b6000620001bd83620002fe60201b60201c565b905081600080858152602001908152602001600020600101819055508181847fbd79b86ffe0ab8e8776151514217cd7cacd52c909f66475c3af44e129f0b00ff60405160405180910390a4505050565b6200021f8282620003e960201b60201c565b620002fa57600160008084815260200190815260200160002060000160008373ffffffffffffffffffffffffffffffffffffffff1673ffffffffffffffffffffffffffffffffffffffff16815260200190815260200160002060006101000a81548160ff0219169083151502179055506200029f6200031d60201b60201c565b73ffffffffffffffffffffffffffffffffffffffff168173ffffffffffffffffffffffffffffffffffffffff16837f2f8788117e7eff1d82e926ec794901d17c78024a50270940304540a733656f0d60405160405180910390a45b5050565b6000806000838152602001908152602001600020600101549050919050565b600033905090565b620003378282620003e960201b60201c565b620003e5576200036a8173ffffffffffffffffffffffffffffffffffffffff1660146200045360201b620012081760201c565b620003858360001c60206200045360201b620012081760201c565b60405160200162000398929190620008f8565b6040516020818303038152906040526040517f08c379a0000000000000000000000000000000000000000000000000000000008152600401620003dc91906200093a565b60405180910390fd5b5050565b600080600084815260200190815260200160002060000160008373ffffffffffffffffffffffffffffffffffffffff1673ffffffffffffffffffffffffffffffffffffffff16815260200190815260200160002060009054906101000a900460ff16905092915050565b60606000600283600262000468919062000a04565b620004749190620009a7565b67ffffffffffffffff811115620004b4577f4e487b7100000000000000000000000000000000000000000000000000000000600052604160045260246000fd5b6040519080825280601f01601f191660200182016040528015620004e75781602001600182028036833780820191505090505b5090507f30000000000000000000000000000000000000000000000000000000000000008160008151811062000546577f4e487b7100000000000000000000000000000000000000000000000000000000600052603260045260246000fd5b60200101907effffffffffffffffffffffffffffffffffffffffffffffffffffffffffffff1916908160001a9053507f780000000000000000000000000000000000000000000000000000000000000081600181518110620005d1577f4e487b7100000000000000000000000000000000000000000000000000000000600052603260045260246000fd5b60200101907effffffffffffffffffffffffffffffffffffffffffffffffffffffffffffff1916908160001a9053506000600184600262000613919062000a04565b6200061f9190620009a7565b90505b600181111562000711577f3031323334353637383961626364656600000000000000000000000000000000600f86166010811062000689577f4e487b7100000000000000000000000000000000000000000000000000000000600052603260045260246000fd5b1a60f81b828281518110620006c7577f4e487b7100000000000000000000000000000000000000000000000000000000600052603260045260246000fd5b60200101907effffffffffffffffffffffffffffffffffffffffffffffffffffffffffffff1916908160001a905350600485901c945080620007099062000ad9565b905062000622565b506000841462000758576040517f08c379a00000000000000000000000000000000000000000000000000000000081526004016200074f906200095e565b60405180910390fd5b8091505092915050565b600081519050620007738162000b48565b92915050565b600080604083850312156200078d57600080fd5b60006200079d8582860162000762565b9250506020620007b08582860162000762565b9150509250929050565b6000620007c78262000980565b620007d381856200098b565b9350620007e581856020860162000aa3565b620007f08162000b37565b840191505092915050565b6000620008088262000980565b6200081481856200099c565b93506200082681856020860162000aa3565b80840191505092915050565b6000620008416020836200098b565b91507f537472696e67733a20686578206c656e67746820696e73756666696369656e746000830152602082019050919050565b6000620008836017836200099c565b91507f416363657373436f6e74726f6c3a206163636f756e74200000000000000000006000830152601782019050919050565b6000620008c56011836200099c565b91507f206973206d697373696e6720726f6c65200000000000000000000000000000006000830152601182019050919050565b6000620009058262000874565b9150620009138285620007fb565b91506200092082620008b6565b91506200092e8284620007fb565b91508190509392505050565b60006020820190508181036000830152620009568184620007ba565b905092915050565b60006020820190508181036000830152620009798162000832565b9050919050565b600081519050919050565b600082825260208201905092915050565b600081905092915050565b6000620009b48262000a99565b9150620009c18362000a99565b9250827fffffffffffffffffffffffffffffffffffffffffffffffffffffffffffffffff03821115620009f957620009f862000b08565b5b828201905092915050565b600062000a118262000a99565b915062000a1e8362000a99565b9250817fffffffffffffffffffffffffffffffffffffffffffffffffffffffffffffffff048311821515161562000a5a5762000a5962000b08565b5b828202905092915050565b600062000a728262000a79565b9050919050565b600073ffffffffffffffffffffffffffffffffffffffff82169050919050565b6000819050919050565b60005b8381101562000ac357808201518184015260208101905062000aa6565b8381111562000ad3576000848401525b50505050565b600062000ae68262000a99565b9150600082141562000afd5762000afc62000b08565b5b600182039050919050565b7f4e487b7100000000000000000000000000000000000000000000000000000000600052601160045260246000fd5b6000601f19601f8301169050919050565b62000b538162000a65565b811462000b5f57600080fd5b50565b61235c8062000b726000396000f3fe608060405234801561001057600080fd5b50600436106101375760003560e01c806379dd18c4116100b8578063bf7e214f1161007c578063bf7e214f1461033a578063c075820714610358578063c5c400de14610388578063d547741f146103bd578063e1f653b1146103d9578063f8ada5b31461040957610137565b806379dd18c4146102965780638376e5ae146102b257806389fcd796146102ce57806391d14854146102ec578063a217fddf1461031c57610137565b806330425cc4116100ff57806330425cc4146101f257806336568abe1461022257806337a0701a1461023e5780634a2d5c9d1461025c578063641fae3c1461027a57610137565b806301ffc9a71461013c578063117803e31461016c578063156648801461018a578063248a9ca3146101a65780632f2ff15d146101d6575b600080fd5b610156600480360381019061015191906119ae565b610425565b6040516101639190611ea6565b60405180910390f35b61017461049f565b6040516101819190611ec1565b60405180910390f35b6101a4600480360381019061019f919061190d565b6104c3565b005b6101c060048036038101906101bb919061190d565b610683565b6040516101cd9190611ec1565b60405180910390f35b6101f060048036038101906101eb9190611936565b6106a2565b005b61020c600480360381019061020791906119d7565b6106cb565b6040516102199190611ec1565b60405180910390f35b61023c60048036038101906102379190611936565b6106ef565b005b610246610772565b6040516102539190612001565b60405180910390f35b61026461077f565b6040516102719190611ec1565b60405180910390f35b610294600480360381019061028f91906118aa565b6107a3565b005b6102b060048036038101906102ab9190611972565b61096c565b005b6102cc60048036038101906102c79190611881565b6109e0565b005b6102d6610a50565b6040516102e39190611ec1565b60405180910390f35b61030660048036038101906103019190611936565b610a74565b6040516103139190611ea6565b60405180910390f35b610324610ade565b6040516103319190611ec1565b60405180910390f35b610342610ae5565b60405161034f9190611e8b565b60405180910390f35b610372600480360381019061036d919061190d565b610b0b565b60405161037f9190611fdf565b60405180910390f35b6103a2600480360381019061039d919061190d565b610c3e565b6040516103b496959493929190611edc565b60405180910390f35b6103d760048036038101906103d29190611936565b610cbc565b005b6103f360048036038101906103ee91906119d7565b610ce5565b6040516104009190611fdf565b60405180910390f35b610423600480360381019061041e9190611972565b610e79565b005b60007f7965db0b000000000000000000000000000000000000000000000000000000007bffffffffffffffffffffffffffffffffffffffffffffffffffffffff1916827bffffffffffffffffffffffffffffffffffffffffffffffffffffffff19161480610498575061049782611502565b5b9050919050565b7f6270edb7c868f86fda4adedba75108201087268ea345934db8bad688e1feb91b81565b6104ed7f6270edb7c868f86fda4adedba75108201087268ea345934db8bad688e1feb91b32610a74565b8061051e575061051d7fc7ddcf4441a1bb01353b38db832023115117943d28ad05b882de4ad99e94b8fc32610a74565b5b8061053257506105316000801b33610a74565b5b61053b57600080fd5b60006002600083815260200190815260200160002090508060030160119054906101000a900460ff16801561057f57508060030160109054906101000a900460ff16155b6105be576040517f08c379a00000000000000000000000000000000000000000000000000000000081526004016105b590611f9f565b60405180910390fd5b60018160030160106101000a81548160ff0219169083151502179055504263ffffffff168160030160086101000a81548167ffffffffffffffff021916908367ffffffffffffffff1602179055508060030160089054906101000a900467ffffffffffffffff1667ffffffffffffffff168160030160009054906101000a900467ffffffffffffffff1667ffffffffffffffff16837f31940a9e4e849a80c49b2a1b09c40b679fd4a48f332c12abb3864c3905ef12dc60405160405180910390a45050565b6000806000838152602001908152602001600020600101549050919050565b6106ab82610683565b6106bc816106b761156c565b611574565b6106c68383611611565b505050565b600381815481106106db57600080fd5b906000526020600020016000915090505481565b6106f761156c565b73ffffffffffffffffffffffffffffffffffffffff168173ffffffffffffffffffffffffffffffffffffffff1614610764576040517f08c379a000000000000000000000000000000000000000000000000000000000815260040161075b90611fbf565b60405180910390fd5b61076e82826116f1565b5050565b6000600380549050905090565b7fc7ddcf4441a1bb01353b38db832023115117943d28ad05b882de4ad99e94b8fc81565b6107cd7fc7ddcf4441a1bb01353b38db832023115117943d28ad05b882de4ad99e94b8fc856106a2565b30600460008673ffffffffffffffffffffffffffffffffffffffff1673ffffffffffffffffffffffffffffffffffffffff16815260200190815260200160002060000160006101000a81548173ffffffffffffffffffffffffffffffffffffffff021916908373ffffffffffffffffffffffffffffffffffffffff16021790555082600460008673ffffffffffffffffffffffffffffffffffffffff1673ffffffffffffffffffffffffffffffffffffffff1681526020019081526020016000206001018190555081600460008673ffffffffffffffffffffffffffffffffffffffff1673ffffffffffffffffffffffffffffffffffffffff1681526020019081526020016000206002018190555080600460008673ffffffffffffffffffffffffffffffffffffffff1673ffffffffffffffffffffffffffffffffffffffff168152602001908152602001600020600301819055508373ffffffffffffffffffffffffffffffffffffffff167ff0f7d8c5ce42f07387388b98c5bc129be0d2092a62b3f97a797caecb2461aeb760405160405180910390a250505050565b6109967f843b48dccc6ff192f9330133622b0536f7b94feca0cf36e7e46fc50060b6f88233610a74565b61099f57600080fd5b600260008381526020019081526020016000206002018190806001815401808255809150506001900390600052602060002001600090919091909150555050565b610a0a7fc7ddcf4441a1bb01353b38db832023115117943d28ad05b882de4ad99e94b8fc82610cbc565b8073ffffffffffffffffffffffffffffffffffffffff167f98561cbe7c9c0b90726130c8409b307d4c9698c9e7ee2797aea68659cad1049460405160405180910390a250565b7f843b48dccc6ff192f9330133622b0536f7b94feca0cf36e7e46fc50060b6f88281565b600080600084815260200190815260200160002060000160008373ffffffffffffffffffffffffffffffffffffffff1673ffffffffffffffffffffffffffffffffffffffff16815260200190815260200160002060009054906101000a900460ff16905092915050565b6000801b81565b600160009054906101000a900473ffffffffffffffffffffffffffffffffffffffff1681565b610b136117d2565b600260008381526020019081526020016000206040518060e0016040529081600082015481526020016001820154815260200160028201805480602002602001604051908101604052809291908181526020018280548015610b9457602002820191906000526020600020905b815481526020019060010190808311610b80575b505050505081526020016003820160009054906101000a900467ffffffffffffffff1667ffffffffffffffff1667ffffffffffffffff1681526020016003820160089054906101000a900467ffffffffffffffff1667ffffffffffffffff1667ffffffffffffffff1681526020016003820160109054906101000a900460ff161515151581526020016003820160119054906101000a900460ff1615151515815250509050919050565b60026020528060005260406000206000915090508060000154908060010154908060030160009054906101000a900467ffffffffffffffff16908060030160089054906101000a900467ffffffffffffffff16908060030160109054906101000a900460ff16908060030160119054906101000a900460ff16905086565b610cc582610683565b610cd681610cd161156c565b611574565b610ce083836116f1565b505050565b610ced6117d2565b6001600380549050610cff919061212c565b8210610d0a57600080fd5b6002600060038481548110610d48577f4e487b7100000000000000000000000000000000000000000000000000000000600052603260045260246000fd5b906000526020600020015481526020019081526020016000206040518060e0016040529081600082015481526020016001820154815260200160028201805480602002602001604051908101604052809291908181526020018280548015610dcf57602002820191906000526020600020905b815481526020019060010190808311610dbb575b505050505081526020016003820160009054906101000a900467ffffffffffffffff1667ffffffffffffffff1667ffffffffffffffff1681526020016003820160089054906101000a900467ffffffffffffffff1667ffffffffffffffff1667ffffffffffffffff1681526020016003820160109054906101000a900460ff161515151581526020016003820160119054906101000a900460ff1615151515815250509050919050565b610ea37f6270edb7c868f86fda4adedba75108201087268ea345934db8bad688e1feb91b32610a74565b80610ed45750610ed37fc7ddcf4441a1bb01353b38db832023115117943d28ad05b882de4ad99e94b8fc32610a74565b5b80610ee85750610ee76000801b33610a74565b5b610ef157600080fd5b6000308383604051602001610f0893929190611e14565b6040516020818303038152906040528051906020012090506002600082815260200190815260200160002060030160119054906101000a900460ff161580610f7057506002600082815260200190815260200160002060030160109054906101000a900460ff165b610faf576040517f08c379a0000000000000000000000000000000000000000000000000000000008152600401610fa690611f7f565b60405180910390fd5b6002600082815260200190815260200160002060030160109054906101000a900460ff161561103b5760006002600083815260200190815260200160002060030160106101000a81548160ff02191690831515021790555060016002600083815260200190815260200160002060030160116101000a81548160ff0219169083151502179055506111cf565b8260026000838152602001908152602001600020600001819055508160026000838152602001908152602001600020600101819055504263ffffffff166002600083815260200190815260200160002060030160006101000a81548167ffffffffffffffff021916908367ffffffffffffffff16021790555060016002600083815260200190815260200160002060030160116101000a81548160ff02191690831515021790555060006002600083815260200190815260200160002060030160106101000a81548160ff02191690831515021790555060038190806001815401808255809150506001900390600052602060002001600090919091909150556000600160009054906101000a900473ffffffffffffffffffffffffffffffffffffffff1690508073ffffffffffffffffffffffffffffffffffffffff16632a819728836040518263ffffffff1660e01b815260040161119b9190611ec1565b600060405180830381600087803b1580156111b557600080fd5b505af11580156111c9573d6000803e3d6000fd5b50505050505b4263ffffffff16817f5d4e445d8e086772582b5f180734d62a0ec5a5c52e3f0a65f0f843e5996e8ef460405160405180910390a3505050565b60606000600283600261121b91906120d2565b611225919061207c565b67ffffffffffffffff811115611264577f4e487b7100000000000000000000000000000000000000000000000000000000600052604160045260246000fd5b6040519080825280601f01601f1916602001820160405280156112965781602001600182028036833780820191505090505b5090507f3000000000000000000000000000000000000000000000000000000000000000816000815181106112f4577f4e487b7100000000000000000000000000000000000000000000000000000000600052603260045260246000fd5b60200101907effffffffffffffffffffffffffffffffffffffffffffffffffffffffffffff1916908160001a9053507f78000000000000000000000000000000000000000000000000000000000000008160018151811061137e577f4e487b7100000000000000000000000000000000000000000000000000000000600052603260045260246000fd5b60200101907effffffffffffffffffffffffffffffffffffffffffffffffffffffffffffff1916908160001a905350600060018460026113be91906120d2565b6113c8919061207c565b90505b60018111156114b4577f3031323334353637383961626364656600000000000000000000000000000000600f861660108110611430577f4e487b7100000000000000000000000000000000000000000000000000000000600052603260045260246000fd5b1a60f81b82828151811061146d577f4e487b7100000000000000000000000000000000000000000000000000000000600052603260045260246000fd5b60200101907effffffffffffffffffffffffffffffffffffffffffffffffffffffffffffff1916908160001a905350600485901c9450806114ad90612225565b90506113cb565b50600084146114f8576040517f08c379a00000000000000000000000000000000000000000000000000000000081526004016114ef90611f5f565b60405180910390fd5b8091505092915050565b60007f01ffc9a7000000000000000000000000000000000000000000000000000000007bffffffffffffffffffffffffffffffffffffffffffffffffffffffff1916827bffffffffffffffffffffffffffffffffffffffffffffffffffffffff1916149050919050565b600033905090565b61157e8282610a74565b61160d576115a38173ffffffffffffffffffffffffffffffffffffffff166014611208565b6115b18360001c6020611208565b6040516020016115c2929190611e51565b6040516020818303038152906040526040517f08c379a00000000000000000000000000000000000000000000000000000000081526004016116049190611f3d565b60405180910390fd5b5050565b61161b8282610a74565b6116ed57600160008084815260200190815260200160002060000160008373ffffffffffffffffffffffffffffffffffffffff1673ffffffffffffffffffffffffffffffffffffffff16815260200190815260200160002060006101000a81548160ff02191690831515021790555061169261156c565b73ffffffffffffffffffffffffffffffffffffffff168173ffffffffffffffffffffffffffffffffffffffff16837f2f8788117e7eff1d82e926ec794901d17c78024a50270940304540a733656f0d60405160405180910390a45b5050565b6116fb8282610a74565b156117ce57600080600084815260200190815260200160002060000160008373ffffffffffffffffffffffffffffffffffffffff1673ffffffffffffffffffffffffffffffffffffffff16815260200190815260200160002060006101000a81548160ff02191690831515021790555061177361156c565b73ffffffffffffffffffffffffffffffffffffffff168173ffffffffffffffffffffffffffffffffffffffff16837ff6391f5c32d9c69d2a47ea670b442974b53935d1edc7fd64eb21e047a839171b60405160405180910390a45b5050565b6040518060e00160405280600080191681526020016000801916815260200160608152602001600067ffffffffffffffff168152602001600067ffffffffffffffff1681526020016000151581526020016000151581525090565b60008135905061183c816122ca565b92915050565b600081359050611851816122e1565b92915050565b600081359050611866816122f8565b92915050565b60008135905061187b8161230f565b92915050565b60006020828403121561189357600080fd5b60006118a18482850161182d565b91505092915050565b600080600080608085870312156118c057600080fd5b60006118ce8782880161182d565b94505060206118df87828801611842565b93505060406118f087828801611842565b925050606061190187828801611842565b91505092959194509250565b60006020828403121561191f57600080fd5b600061192d84828501611842565b91505092915050565b6000806040838503121561194957600080fd5b600061195785828601611842565b92505060206119688582860161182d565b9150509250929050565b6000806040838503121561198557600080fd5b600061199385828601611842565b92505060206119a485828601611842565b9150509250929050565b6000602082840312156119c057600080fd5b60006119ce84828501611857565b91505092915050565b6000602082840312156119e957600080fd5b60006119f78482850161186c565b91505092915050565b6000611a0c8383611aba565b60208301905092915050565b611a2181612160565b82525050565b611a38611a3382612160565b61224f565b82525050565b6000611a498261202c565b611a53818561204f565b9350611a5e8361201c565b8060005b83811015611a8f578151611a768882611a00565b9750611a8183612042565b925050600181019050611a62565b5085935050505092915050565b611aa581612172565b82525050565b611ab481612172565b82525050565b611ac38161217e565b82525050565b611ad28161217e565b82525050565b611ae9611ae48261217e565b612261565b82525050565b6000611afa82612037565b611b048185612060565b9350611b148185602086016121f2565b611b1d816122ac565b840191505092915050565b6000611b3382612037565b611b3d8185612071565b9350611b4d8185602086016121f2565b80840191505092915050565b6000611b66602083612060565b91507f537472696e67733a20686578206c656e67746820696e73756666696369656e746000830152602082019050919050565b6000611ba6602183612060565b91507f546869732064657669636520697320616c72656164792072656769737465726560008301527f64000000000000000000000000000000000000000000000000000000000000006020830152604082019050919050565b6000611c0c602d83612060565b91507f4120646576696365206d757374206265207265676973746572656420746f207560008301527f6e2d7265676973746572206974000000000000000000000000000000000000006020830152604082019050919050565b6000611c72601783612071565b91507f416363657373436f6e74726f6c3a206163636f756e74200000000000000000006000830152601782019050919050565b6000611cb2601183612071565b91507f206973206d697373696e6720726f6c65200000000000000000000000000000006000830152601182019050919050565b6000611cf2602f83612060565b91507f416363657373436f6e74726f6c3a2063616e206f6e6c792072656e6f756e636560008301527f20726f6c657320666f722073656c6600000000000000000000000000000000006020830152604082019050919050565b600060e083016000830151611d636000860182611aba565b506020830151611d766020860182611aba565b5060408301518482036040860152611d8e8282611a3e565b9150506060830151611da36060860182611df6565b506080830151611db66080860182611df6565b5060a0830151611dc960a0860182611a9c565b5060c0830151611ddc60c0860182611a9c565b508091505092915050565b611df0816121d4565b82525050565b611dff816121de565b82525050565b611e0e816121de565b82525050565b6000611e208286611a27565b601482019150611e308285611ad8565b602082019150611e408284611ad8565b602082019150819050949350505050565b6000611e5c82611c65565b9150611e688285611b28565b9150611e7382611ca5565b9150611e7f8284611b28565b91508190509392505050565b6000602082019050611ea06000830184611a18565b92915050565b6000602082019050611ebb6000830184611aab565b92915050565b6000602082019050611ed66000830184611ac9565b92915050565b600060c082019050611ef16000830189611ac9565b611efe6020830188611ac9565b611f0b6040830187611e05565b611f186060830186611e05565b611f256080830185611aab565b611f3260a0830184611aab565b979650505050505050565b60006020820190508181036000830152611f578184611aef565b905092915050565b60006020820190508181036000830152611f7881611b59565b9050919050565b60006020820190508181036000830152611f9881611b99565b9050919050565b60006020820190508181036000830152611fb881611bff565b9050919050565b60006020820190508181036000830152611fd881611ce5565b9050919050565b60006020820190508181036000830152611ff98184611d4b565b905092915050565b60006020820190506120166000830184611de7565b92915050565b6000819050602082019050919050565b600081519050919050565b600081519050919050565b6000602082019050919050565b600082825260208201905092915050565b600082825260208201905092915050565b600081905092915050565b6000612087826121d4565b9150612092836121d4565b9250827fffffffffffffffffffffffffffffffffffffffffffffffffffffffffffffffff038211156120c7576120c661227d565b5b828201905092915050565b60006120dd826121d4565b91506120e8836121d4565b9250817fffffffffffffffffffffffffffffffffffffffffffffffffffffffffffffffff04831182151516156121215761212061227d565b5b828202905092915050565b6000612137826121d4565b9150612142836121d4565b9250828210156121555761215461227d565b5b828203905092915050565b600061216b826121b4565b9050919050565b60008115159050919050565b6000819050919050565b60007fffffffff0000000000000000000000000000000000000000000000000000000082169050919050565b600073ffffffffffffffffffffffffffffffffffffffff82169050919050565b6000819050919050565b600067ffffffffffffffff82169050919050565b60005b838110156122105780820151818401526020810190506121f5565b8381111561221f576000848401525b50505050565b6000612230826121d4565b915060008214156122445761224361227d565b5b600182039050919050565b600061225a8261226b565b9050919050565b6000819050919050565b6000612276826122bd565b9050919050565b7f4e487b7100000000000000000000000000000000000000000000000000000000600052601160045260246000fd5b6000601f19601f8301169050919050565b60008160601b9050919050565b6122d381612160565b81146122de57600080fd5b50565b6122ea8161217e565b81146122f557600080fd5b50565b61230181612188565b811461230c57600080fd5b50565b612318816121d4565b811461232357600080fd5b5056fea26469706673582212207a6e58661412d526693afb27e3adece641480a9aa0186710063fb4e3fc013d2064736f6c63430008000033a264697066735822122096bc719c4b39ec7b7b11195915b1223a1cedcc67638097b87b47976a7677909e64736f6c63430008000033608060405234801561001057600080fd5b5061002d61002261003260201b60201c565b61003a60201b60201c565b6100fe565b600033905090565b60008060009054906101000a900473ffffffffffffffffffffffffffffffffffffffff169050816000806101000a81548173ffffffffffffffffffffffffffffffffffffffff021916908373ffffffffffffffffffffffffffffffffffffffff1602179055508173ffffffffffffffffffffffffffffffffffffffff168173ffffffffffffffffffffffffffffffffffffffff167f8be0079c531659141344cd1fd0a4f28419497f9722a3daafe3b4186f6b6457e060405160405180910390a35050565b6141848061010d6000396000f3fe60806040523480156200001157600080fd5b50600436106200005e5760003560e01c806369dc9ff31462000063578063715018a614620000995780638da5cb5b14620000a5578063f2fde38b14620000c7578063fb4e93aa14620000e7575b600080fd5b6200008160048036038101906200007b919062000510565b6200011d565b60405162000090919062000663565b60405180910390f35b620000a36200013d565b005b620000af620001ce565b604051620000be919062000619565b60405180910390f35b620000e56004803603810190620000df919062000510565b620001f7565b005b620001056004803603810190620000ff919062000510565b620002fb565b60405162000114919062000680565b60405180910390f35b60016020528060005260406000206000915054906101000a900460ff1681565b620001476200041f565b73ffffffffffffffffffffffffffffffffffffffff1662000167620001ce565b73ffffffffffffffffffffffffffffffffffffffff1614620001c0576040517f08c379a0000000000000000000000000000000000000000000000000000000008152600401620001b790620006bf565b60405180910390fd5b620001cc600062000427565b565b60008060009054906101000a900473ffffffffffffffffffffffffffffffffffffffff16905090565b620002016200041f565b73ffffffffffffffffffffffffffffffffffffffff1662000221620001ce565b73ffffffffffffffffffffffffffffffffffffffff16146200027a576040517f08c379a00000000000000000000000000000000000000000000000000000000081526004016200027190620006bf565b60405180910390fd5b600073ffffffffffffffffffffffffffffffffffffffff168173ffffffffffffffffffffffffffffffffffffffff161415620002ed576040517f08c379a0000000000000000000000000000000000000000000000000000000008152600401620002e4906200069d565b60405180910390fd5b620002f88162000427565b50565b6000620003076200041f565b73ffffffffffffffffffffffffffffffffffffffff1662000327620001ce565b73ffffffffffffffffffffffffffffffffffffffff161462000380576040517f08c379a00000000000000000000000000000000000000000000000000000000081526004016200037790620006bf565b60405180910390fd5b600082336040516200039290620004eb565b6200039f92919062000636565b604051809103906000f080158015620003bc573d6000803e3d6000fd5b50905060018060008373ffffffffffffffffffffffffffffffffffffffff1673ffffffffffffffffffffffffffffffffffffffff16815260200190815260200160002060006101000a81548160ff02191690831515021790555080915050919050565b600033905090565b60008060009054906101000a900473ffffffffffffffffffffffffffffffffffffffff169050816000806101000a81548173ffffffffffffffffffffffffffffffffffffffff021916908373ffffffffffffffffffffffffffffffffffffffff1602179055508173ffffffffffffffffffffffffffffffffffffffff168173ffffffffffffffffffffffffffffffffffffffff167f8be0079c531659141344cd1fd0a4f28419497f9722a3daafe3b4186f6b6457e060405160405180910390a35050565b6139da806200077583390190565b6000813590506200050a816200075a565b92915050565b6000602082840312156200052357600080fd5b60006200053384828501620004f9565b91505092915050565b6200054781620006f2565b82525050565b620005588162000706565b82525050565b620005698162000732565b82525050565b60006200057e602683620006e1565b91507f4f776e61626c653a206e6577206f776e657220697320746865207a65726f206160008301527f64647265737300000000000000000000000000000000000000000000000000006020830152604082019050919050565b6000620005e6602083620006e1565b91507f4f776e61626c653a2063616c6c6572206973206e6f7420746865206f776e65726000830152602082019050919050565b60006020820190506200063060008301846200053c565b92915050565b60006040820190506200064d60008301856200053c565b6200065c60208301846200053c565b9392505050565b60006020820190506200067a60008301846200054d565b92915050565b60006020820190506200069760008301846200055e565b92915050565b60006020820190508181036000830152620006b8816200056f565b9050919050565b60006020820190508181036000830152620006da81620005d7565b9050919050565b600082825260208201905092915050565b6000620006ff8262000712565b9050919050565b60008115159050919050565b600073ffffffffffffffffffffffffffffffffffffffff82169050919050565b60006200073f8262000746565b9050919050565b6000620007538262000712565b9050919050565b6200076581620006f2565b81146200077157600080fd5b5056fe60806040523480156200001157600080fd5b50604051620039da380380620039da833981810160405281019062000037919062000779565b80600160006101000a81548173ffffffffffffffffffffffffffffffffffffffff021916908373ffffffffffffffffffffffffffffffffffffffff1602179055506200008d6000801b826200014b60201b60201c565b620000bf7f843b48dccc6ff192f9330133622b0536f7b94feca0cf36e7e46fc50060b6f882826200016160201b60201c565b620000f17f6270edb7c868f86fda4adedba75108201087268ea345934db8bad688e1feb91b836200016160201b60201c565b620001437fc7ddcf4441a1bb01353b38db832023115117943d28ad05b882de4ad99e94b8fc7f6270edb7c868f86fda4adedba75108201087268ea345934db8bad688e1feb91b620001aa60201b60201c565b505062000b62565b6200015d82826200020d60201b60201c565b5050565b6200017282620002fe60201b60201c565b6200019381620001876200031d60201b60201c565b6200032560201b60201c565b620001a583836200020d60201b60201c565b505050565b6000620001bd83620002fe60201b60201c565b905081600080858152602001908152602001600020600101819055508181847fbd79b86ffe0ab8e8776151514217cd7cacd52c909f66475c3af44e129f0b00ff60405160405180910390a4505050565b6200021f8282620003e960201b60201c565b620002fa57600160008084815260200190815260200160002060000160008373ffffffffffffffffffffffffffffffffffffffff1673ffffffffffffffffffffffffffffffffffffffff16815260200190815260200160002060006101000a81548160ff0219169083151502179055506200029f6200031d60201b60201c565b73ffffffffffffffffffffffffffffffffffffffff168173ffffffffffffffffffffffffffffffffffffffff16837f2f8788117e7eff1d82e926ec794901d17c78024a50270940304540a733656f0d60405160405180910390a45b5050565b6000806000838152602001908152602001600020600101549050919050565b600033905090565b620003378282620003e960201b60201c565b620003e5576200036a8173ffffffffffffffffffffffffffffffffffffffff1660146200045360201b620019e01760201c565b620003858360001c60206200045360201b620019e01760201c565b60405160200162000398929190620008f8565b6040516020818303038152906040526040517f08c379a0000000000000000000000000000000000000000000000000000000008152600401620003dc91906200093a565b60405180910390fd5b5050565b600080600084815260200190815260200160002060000160008373ffffffffffffffffffffffffffffffffffffffff1673ffffffffffffffffffffffffffffffffffffffff16815260200190815260200160002060009054906101000a900460ff16905092915050565b60606000600283600262000468919062000a04565b620004749190620009a7565b67ffffffffffffffff811115620004b4577f4e487b7100000000000000000000000000000000000000000000000000000000600052604160045260246000fd5b6040519080825280601f01601f191660200182016040528015620004e75781602001600182028036833780820191505090505b5090507f30000000000000000000000000000000000000000000000000000000000000008160008151811062000546577f4e487b7100000000000000000000000000000000000000000000000000000000600052603260045260246000fd5b60200101907effffffffffffffffffffffffffffffffffffffffffffffffffffffffffffff1916908160001a9053507f780000000000000000000000000000000000000000000000000000000000000081600181518110620005d1577f4e487b7100000000000000000000000000000000000000000000000000000000600052603260045260246000fd5b60200101907effffffffffffffffffffffffffffffffffffffffffffffffffffffffffffff1916908160001a9053506000600184600262000613919062000a04565b6200061f9190620009a7565b90505b600181111562000711577f3031323334353637383961626364656600000000000000000000000000000000600f86166010811062000689577f4e487b7100000000000000000000000000000000000000000000000000000000600052603260045260246000fd5b1a60f81b828281518110620006c7577f4e487b7100000000000000000000000000000000000000000000000000000000600052603260045260246000fd5b60200101907effffffffffffffffffffffffffffffffffffffffffffffffffffffffffffff1916908160001a905350600485901c945080620007099062000ad9565b905062000622565b506000841462000758576040517f08c379a00000000000000000000000000000000000000000000000000000000081526004016200074f906200095e565b60405180910390fd5b8091505092915050565b600081519050620007738162000b48565b92915050565b600080604083850312156200078d57600080fd5b60006200079d8582860162000762565b9250506020620007b08582860162000762565b9150509250929050565b6000620007c78262000980565b620007d381856200098b565b9350620007e581856020860162000aa3565b620007f08162000b37565b840191505092915050565b6000620008088262000980565b6200081481856200099c565b93506200082681856020860162000aa3565b80840191505092915050565b6000620008416020836200098b565b91507f537472696e67733a20686578206c656e67746820696e73756666696369656e746000830152602082019050919050565b6000620008836017836200099c565b91507f416363657373436f6e74726f6c3a206163636f756e74200000000000000000006000830152601782019050919050565b6000620008c56011836200099c565b91507f206973206d697373696e6720726f6c65200000000000000000000000000000006000830152601182019050919050565b6000620009058262000874565b9150620009138285620007fb565b91506200092082620008b6565b91506200092e8284620007fb565b91508190509392505050565b60006020820190508181036000830152620009568184620007ba565b905092915050565b60006020820190508181036000830152620009798162000832565b9050919050565b600081519050919050565b600082825260208201905092915050565b600081905092915050565b6000620009b48262000a99565b9150620009c18362000a99565b9250827fffffffffffffffffffffffffffffffffffffffffffffffffffffffffffffffff03821115620009f957620009f862000b08565b5b828201905092915050565b600062000a118262000a99565b915062000a1e8362000a99565b9250817fffffffffffffffffffffffffffffffffffffffffffffffffffffffffffffffff048311821515161562000a5a5762000a5962000b08565b5b828202905092915050565b600062000a728262000a79565b9050919050565b600073ffffffffffffffffffffffffffffffffffffffff82169050919050565b6000819050919050565b60005b8381101562000ac357808201518184015260208101905062000aa6565b8381111562000ad3576000848401525b50505050565b600062000ae68262000a99565b9150600082141562000afd5762000afc62000b08565b5b600182039050919050565b7f4e487b7100000000000000000000000000000000000000000000000000000000600052601160045260246000fd5b6000601f19601f8301169050919050565b62000b538162000a65565b811462000b5f57600080fd5b50565b612e688062000b726000396000f3fe608060405234801561001057600080fd5b506004361061014d5760003560e01c806391d14854116100c3578063c17a4fd81161007c578063c17a4fd8146103b2578063c6cbc52a146103ce578063d41afcaa146103ea578063d547741f1461041a578063e7cc4bc214610436578063ff67dada146104525761014d565b806391d14854146102ca578063990a4ae9146102fa578063a217fddf14610316578063b0b6234c14610334578063bbd3a66d14610364578063bf7e214f146103945761014d565b806336568abe1161011557806336568abe1461021c5780634a2d5c9d14610238578063641fae3c146102565780638376e5ae146102725780638809f7271461028e57806389fcd796146102ac5761014d565b806301ffc9a7146101525780630a28e90c14610182578063117803e3146101b2578063248a9ca3146101d05780632f2ff15d14610200575b600080fd5b61016c60048036038101906101679190612386565b610470565b6040516101799190612977565b60405180910390f35b61019c600480360381019061019791906123af565b6104ea565b6040516101a99190612a98565b60405180910390f35b6101ba6106d5565b6040516101c79190612992565b60405180910390f35b6101ea60048036038101906101e5919061223e565b6106f9565b6040516101f79190612992565b60405180910390f35b61021a60048036038101906102159190612267565b610718565b005b61023660048036038101906102319190612267565b610741565b005b6102406107c4565b60405161024d9190612992565b60405180910390f35b610270600480360381019061026b91906121db565b6107e8565b005b61028c600480360381019061028791906121b2565b6109b1565b005b610296610a21565b6040516102a39190612ad5565b60405180910390f35b6102b4610a2e565b6040516102c19190612992565b60405180910390f35b6102e460048036038101906102df9190612267565b610a52565b6040516102f19190612977565b60405180910390f35b610314600480360381019061030f919061223e565b610abc565b005b61031e610cdd565b60405161032b9190612992565b60405180910390f35b61034e6004803603810190610349919061223e565b610ce4565b60405161035b9190612aba565b60405180910390f35b61037e6004803603810190610379919061223e565b610e01565b60405161038b9190612a98565b60405180910390f35b61039c610f8b565b6040516103a9919061295c565b60405180910390f35b6103cc60048036038101906103c79190612306565b610fb1565b005b6103e860048036038101906103e3919061223e565b61131f565b005b61040460048036038101906103ff91906123af565b6114a0565b6040516104119190612aba565b60405180910390f35b610434600480360381019061042f9190612267565b61161e565b005b610450600480360381019061044b91906122a3565b611647565b005b61045a6119d3565b6040516104679190612ad5565b60405180910390f35b60007f7965db0b000000000000000000000000000000000000000000000000000000007bffffffffffffffffffffffffffffffffffffffffffffffffffffffff1916827bffffffffffffffffffffffffffffffffffffffffffffffffffffffff191614806104e357506104e282611cda565b5b9050919050565b6104f2611faa565b60016005805490506105049190612c00565b821061050f57600080fd5b600460006005848154811061054d577f4e487b7100000000000000000000000000000000000000000000000000000000600052603260045260246000fd5b9060005260206000200154815260200190815260200160002060405180610100016040529081600082015481526020016001820160009054906101000a900473ffffffffffffffffffffffffffffffffffffffff1673ffffffffffffffffffffffffffffffffffffffff1673ffffffffffffffffffffffffffffffffffffffff1681526020016002820180548060200260200160405190810160405280929190818152602001828054801561062157602002820191906000526020600020905b81548152602001906001019080831161060d575b50505050508152602001600382015481526020016004820160009054906101000a900467ffffffffffffffff1667ffffffffffffffff1667ffffffffffffffff1681526020016004820160089054906101000a900467ffffffffffffffff1667ffffffffffffffff1667ffffffffffffffff1681526020016004820160109054906101000a900460ff161515151581526020016004820160119054906101000a900460ff1615151515815250509050919050565b7f6270edb7c868f86fda4adedba75108201087268ea345934db8bad688e1feb91b81565b6000806000838152602001908152602001600020600101549050919050565b610721826106f9565b6107328161072d611d44565b611d4c565b61073c8383611de9565b505050565b610749611d44565b73ffffffffffffffffffffffffffffffffffffffff168173ffffffffffffffffffffffffffffffffffffffff16146107b6576040517f08c379a00000000000000000000000000000000000000000000000000000000081526004016107ad90612a78565b60405180910390fd5b6107c08282611ec9565b5050565b7fc7ddcf4441a1bb01353b38db832023115117943d28ad05b882de4ad99e94b8fc81565b6108127fc7ddcf4441a1bb01353b38db832023115117943d28ad05b882de4ad99e94b8fc85610718565b30600660008673ffffffffffffffffffffffffffffffffffffffff1673ffffffffffffffffffffffffffffffffffffffff16815260200190815260200160002060000160006101000a81548173ffffffffffffffffffffffffffffffffffffffff021916908373ffffffffffffffffffffffffffffffffffffffff16021790555082600660008673ffffffffffffffffffffffffffffffffffffffff1673ffffffffffffffffffffffffffffffffffffffff1681526020019081526020016000206001018190555081600660008673ffffffffffffffffffffffffffffffffffffffff1673ffffffffffffffffffffffffffffffffffffffff1681526020019081526020016000206002018190555080600660008673ffffffffffffffffffffffffffffffffffffffff1673ffffffffffffffffffffffffffffffffffffffff168152602001908152602001600020600301819055508373ffffffffffffffffffffffffffffffffffffffff167ff0f7d8c5ce42f07387388b98c5bc129be0d2092a62b3f97a797caecb2461aeb760405160405180910390a250505050565b6109db7fc7ddcf4441a1bb01353b38db832023115117943d28ad05b882de4ad99e94b8fc8261161e565b8073ffffffffffffffffffffffffffffffffffffffff167f98561cbe7c9c0b90726130c8409b307d4c9698c9e7ee2797aea68659cad1049460405160405180910390a250565b6000600580549050905090565b7f843b48dccc6ff192f9330133622b0536f7b94feca0cf36e7e46fc50060b6f88281565b600080600084815260200190815260200160002060000160008373ffffffffffffffffffffffffffffffffffffffff1673ffffffffffffffffffffffffffffffffffffffff16815260200190815260200160002060009054906101000a900460ff16905092915050565b610ae67f6270edb7c868f86fda4adedba75108201087268ea345934db8bad688e1feb91b32610a52565b80610b175750610b167fc7ddcf4441a1bb01353b38db832023115117943d28ad05b882de4ad99e94b8fc32610a52565b5b80610b2b5750610b2a6000801b33610a52565b5b610b3457600080fd5b6000600260008381526020019081526020016000206040518060a00160405290816000820160009054906101000a900473ffffffffffffffffffffffffffffffffffffffff1673ffffffffffffffffffffffffffffffffffffffff1673ffffffffffffffffffffffffffffffffffffffff1681526020016000820160149054906101000a900460ff161515151581526020016000820160159054906101000a900467ffffffffffffffff1667ffffffffffffffff1667ffffffffffffffff1681526020016001820160009054906101000a900467ffffffffffffffff1667ffffffffffffffff1667ffffffffffffffff1681526020016001820160089054906101000a900460ff16151515158152505090506001151581608001511515148015610c6b575042816060015167ffffffffffffffff16115b610caa576040517f08c379a0000000000000000000000000000000000000000000000000000000008152600401610ca190612a38565b60405180910390fd5b60006002600084815260200190815260200160002060010160086101000a81548160ff0219169083151502179055505050565b6000801b81565b610cec612023565b600260008381526020019081526020016000206040518060a00160405290816000820160009054906101000a900473ffffffffffffffffffffffffffffffffffffffff1673ffffffffffffffffffffffffffffffffffffffff1673ffffffffffffffffffffffffffffffffffffffff1681526020016000820160149054906101000a900460ff161515151581526020016000820160159054906101000a900467ffffffffffffffff1667ffffffffffffffff1667ffffffffffffffff1681526020016001820160009054906101000a900467ffffffffffffffff1667ffffffffffffffff1667ffffffffffffffff1681526020016001820160089054906101000a900460ff1615151515815250509050919050565b610e09611faa565b6004600083815260200190815260200160002060405180610100016040529081600082015481526020016001820160009054906101000a900473ffffffffffffffffffffffffffffffffffffffff1673ffffffffffffffffffffffffffffffffffffffff1673ffffffffffffffffffffffffffffffffffffffff16815260200160028201805480602002602001604051908101604052809291908181526020018280548015610ed757602002820191906000526020600020905b815481526020019060010190808311610ec3575b50505050508152602001600382015481526020016004820160009054906101000a900467ffffffffffffffff1667ffffffffffffffff1667ffffffffffffffff1681526020016004820160089054906101000a900467ffffffffffffffff1667ffffffffffffffff1667ffffffffffffffff1681526020016004820160109054906101000a900460ff161515151581526020016004820160119054906101000a900460ff1615151515815250509050919050565b600160009054906101000a900473ffffffffffffffffffffffffffffffffffffffff1681565b610fdb7f6270edb7c868f86fda4adedba75108201087268ea345934db8bad688e1feb91b32610a52565b8061100c575061100b7fc7ddcf4441a1bb01353b38db832023115117943d28ad05b882de4ad99e94b8fc32610a52565b5b80611020575061101f6000801b33610a52565b5b61102957600080fd5b6000853042604051602001611040939291906128e5565b6040516020818303038152906040528051906020012090506004600082815260200190815260200160002060040160119054906101000a900460ff16156110bc576040517f08c379a00000000000000000000000000000000000000000000000000000000081526004016110b390612a58565b60405180910390fd5b856004600083815260200190815260200160002060000181905550326004600083815260200190815260200160002060010160006101000a81548173ffffffffffffffffffffffffffffffffffffffff021916908373ffffffffffffffffffffffffffffffffffffffff1602179055508484600460008481526020019081526020016000206002019190611151929190612080565b50426004600083815260200190815260200160002060040160006101000a81548167ffffffffffffffff021916908367ffffffffffffffff160217905550816004600083815260200190815260200160002060040160086101000a81548167ffffffffffffffff021916908367ffffffffffffffff16021790555082600460008381526020019081526020016000206003018190555060016004600083815260200190815260200160002060040160116101000a81548160ff02191690831515021790555060058190806001815401808255809150506001900390600052602060002001600090919091909150556000600160009054906101000a900473ffffffffffffffffffffffffffffffffffffffff1690508073ffffffffffffffffffffffffffffffffffffffff166379dd18c488846040518363ffffffff1660e01b81526004016112a19291906129ad565b600060405180830381600087803b1580156112bb57600080fd5b505af11580156112cf573d6000803e3d6000fd5b505050508267ffffffffffffffff164267ffffffffffffffff16837f7ab6d57493e9d536fc2ebb574b840bcfa129a10f9df628610fce44f2aa26fec860405160405180910390a450505050505050565b6113497f6270edb7c868f86fda4adedba75108201087268ea345934db8bad688e1feb91b32610a52565b8061137a57506113797fc7ddcf4441a1bb01353b38db832023115117943d28ad05b882de4ad99e94b8fc32610a52565b5b8061138e575061138d6000801b33610a52565b5b61139757600080fd5b60006004600083815260200190815260200160002090508060040160119054906101000a900460ff1680156113db57508060040160109054906101000a900460ff16155b61141a576040517f08c379a000000000000000000000000000000000000000000000000000000000815260040161141190612a18565b60405180910390fd5b60018160040160106101000a81548160ff0219169083151502179055504263ffffffff168160040160086101000a81548167ffffffffffffffff021916908367ffffffffffffffff1602179055504263ffffffff16827fdfb16e680b89bb363b97cbc4b6ef42b95dba995e00034252becd4f9168cecc8860405160405180910390a35050565b6114a8612023565b60016003805490506114ba9190612c00565b82106114c557600080fd5b6002600060038481548110611503577f4e487b7100000000000000000000000000000000000000000000000000000000600052603260045260246000fd5b906000526020600020015481526020019081526020016000206040518060a00160405290816000820160009054906101000a900473ffffffffffffffffffffffffffffffffffffffff1673ffffffffffffffffffffffffffffffffffffffff1673ffffffffffffffffffffffffffffffffffffffff1681526020016000820160149054906101000a900460ff161515151581526020016000820160159054906101000a900467ffffffffffffffff1667ffffffffffffffff1667ffffffffffffffff1681526020016001820160009054906101000a900467ffffffffffffffff1667ffffffffffffffff1667ffffffffffffffff1681526020016001820160089054906101000a900460ff1615151515815250509050919050565b611627826106f9565b61163881611633611d44565b611d4c565b6116428383611ec9565b505050565b6116717f6270edb7c868f86fda4adedba75108201087268ea345934db8bad688e1feb91b32610a52565b806116a257506116a17fc7ddcf4441a1bb01353b38db832023115117943d28ad05b882de4ad99e94b8fc32610a52565b5b806116b657506116b56000801b33610a52565b5b6116bf57600080fd5b6000600260008681526020019081526020016000206040518060a00160405290816000820160009054906101000a900473ffffffffffffffffffffffffffffffffffffffff1673ffffffffffffffffffffffffffffffffffffffff1673ffffffffffffffffffffffffffffffffffffffff1681526020016000820160149054906101000a900460ff161515151581526020016000820160159054906101000a900467ffffffffffffffff1667ffffffffffffffff1667ffffffffffffffff1681526020016001820160009054906101000a900467ffffffffffffffff1667ffffffffffffffff1667ffffffffffffffff1681526020016001820160089054906101000a900460ff1615151515815250509050600015158160800151151514806117f5575042816060015167ffffffffffffffff16105b611834576040517f08c379a000000000000000000000000000000000000000000000000000000000815260040161182b90612a38565b60405180910390fd5b60016002600087815260200190815260200160002060010160086101000a81548160ff021916908315150217905550836002600087815260200190815260200160002060000160006101000a81548173ffffffffffffffffffffffffffffffffffffffff021916908373ffffffffffffffffffffffffffffffffffffffff160217905550826002600087815260200190815260200160002060000160146101000a81548160ff021916908315150217905550426002600087815260200190815260200160002060000160156101000a81548167ffffffffffffffff021916908367ffffffffffffffff160217905550816002600087815260200190815260200160002060010160006101000a81548167ffffffffffffffff021916908367ffffffffffffffff16021790555060038590806001815401808255809150506001900390600052602060002001600090919091909150558167ffffffffffffffff164267ffffffffffffffff16867f1214e60d611e056bf0772c444a6feb58bbedb93af63e865e83e654f891c7169c60405160405180910390a45050505050565b6000600380549050905090565b6060600060028360026119f39190612ba6565b6119fd9190612b50565b67ffffffffffffffff811115611a3c577f4e487b7100000000000000000000000000000000000000000000000000000000600052604160045260246000fd5b6040519080825280601f01601f191660200182016040528015611a6e5781602001600182028036833780820191505090505b5090507f300000000000000000000000000000000000000000000000000000000000000081600081518110611acc577f4e487b7100000000000000000000000000000000000000000000000000000000600052603260045260246000fd5b60200101907effffffffffffffffffffffffffffffffffffffffffffffffffffffffffffff1916908160001a9053507f780000000000000000000000000000000000000000000000000000000000000081600181518110611b56577f4e487b7100000000000000000000000000000000000000000000000000000000600052603260045260246000fd5b60200101907effffffffffffffffffffffffffffffffffffffffffffffffffffffffffffff1916908160001a90535060006001846002611b969190612ba6565b611ba09190612b50565b90505b6001811115611c8c577f3031323334353637383961626364656600000000000000000000000000000000600f861660108110611c08577f4e487b7100000000000000000000000000000000000000000000000000000000600052603260045260246000fd5b1a60f81b828281518110611c45577f4e487b7100000000000000000000000000000000000000000000000000000000600052603260045260246000fd5b60200101907effffffffffffffffffffffffffffffffffffffffffffffffffffffffffffff1916908160001a905350600485901c945080611c8590612cf9565b9050611ba3565b5060008414611cd0576040517f08c379a0000000000000000000000000000000000000000000000000000000008152600401611cc7906129f8565b60405180910390fd5b8091505092915050565b60007f01ffc9a7000000000000000000000000000000000000000000000000000000007bffffffffffffffffffffffffffffffffffffffffffffffffffffffff1916827bffffffffffffffffffffffffffffffffffffffffffffffffffffffff1916149050919050565b600033905090565b611d568282610a52565b611de557611d7b8173ffffffffffffffffffffffffffffffffffffffff1660146119e0565b611d898360001c60206119e0565b604051602001611d9a929190612922565b6040516020818303038152906040526040517f08c379a0000000000000000000000000000000000000000000000000000000008152600401611ddc91906129d6565b60405180910390fd5b5050565b611df38282610a52565b611ec557600160008084815260200190815260200160002060000160008373ffffffffffffffffffffffffffffffffffffffff1673ffffffffffffffffffffffffffffffffffffffff16815260200190815260200160002060006101000a81548160ff021916908315150217905550611e6a611d44565b73ffffffffffffffffffffffffffffffffffffffff168173ffffffffffffffffffffffffffffffffffffffff16837f2f8788117e7eff1d82e926ec794901d17c78024a50270940304540a733656f0d60405160405180910390a45b5050565b611ed38282610a52565b15611fa657600080600084815260200190815260200160002060000160008373ffffffffffffffffffffffffffffffffffffffff1673ffffffffffffffffffffffffffffffffffffffff16815260200190815260200160002060006101000a81548160ff021916908315150217905550611f4b611d44565b73ffffffffffffffffffffffffffffffffffffffff168173ffffffffffffffffffffffffffffffffffffffff16837ff6391f5c32d9c69d2a47ea670b442974b53935d1edc7fd64eb21e047a839171b60405160405180910390a45b5050565b60405180610100016040528060008019168152602001600073ffffffffffffffffffffffffffffffffffffffff1681526020016060815260200160008019168152602001600067ffffffffffffffff168152602001600067ffffffffffffffff1681526020016000151581526020016000151581525090565b6040518060a00160405280600073ffffffffffffffffffffffffffffffffffffffff168152602001600015158152602001600067ffffffffffffffff168152602001600067ffffffffffffffff1681526020016000151581525090565b8280548282559060005260206000209081019282156120bc579160200282015b828111156120bb5782358255916020019190600101906120a0565b5b5090506120c991906120cd565b5090565b5b808211156120e65760008160009055506001016120ce565b5090565b6000813590506120f981612da8565b92915050565b60008083601f84011261211157600080fd5b8235905067ffffffffffffffff81111561212a57600080fd5b60208301915083602082028301111561214257600080fd5b9250929050565b60008135905061215881612dbf565b92915050565b60008135905061216d81612dd6565b92915050565b60008135905061218281612ded565b92915050565b60008135905061219781612e04565b92915050565b6000813590506121ac81612e1b565b92915050565b6000602082840312156121c457600080fd5b60006121d2848285016120ea565b91505092915050565b600080600080608085870312156121f157600080fd5b60006121ff878288016120ea565b94505060206122108782880161215e565b93505060406122218782880161215e565b92505060606122328782880161215e565b91505092959194509250565b60006020828403121561225057600080fd5b600061225e8482850161215e565b91505092915050565b6000806040838503121561227a57600080fd5b60006122888582860161215e565b9250506020612299858286016120ea565b9150509250929050565b600080600080608085870312156122b957600080fd5b60006122c78782880161215e565b94505060206122d8878288016120ea565b93505060406122e987828801612149565b92505060606122fa8782880161219d565b91505092959194509250565b60008060008060006080868803121561231e57600080fd5b600061232c8882890161215e565b955050602086013567ffffffffffffffff81111561234957600080fd5b612355888289016120ff565b945094505060406123688882890161215e565b92505060606123798882890161219d565b9150509295509295909350565b60006020828403121561239857600080fd5b60006123a684828501612173565b91505092915050565b6000602082840312156123c157600080fd5b60006123cf84828501612188565b91505092915050565b60006123e483836124a1565b60208301905092915050565b6123f981612c34565b82525050565b61240881612c34565b82525050565b61241f61241a82612c34565b612d23565b82525050565b600061243082612b00565b61243a8185612b23565b935061244583612af0565b8060005b8381101561247657815161245d88826123d8565b975061246883612b16565b925050600181019050612449565b5085935050505092915050565b61248c81612c46565b82525050565b61249b81612c46565b82525050565b6124aa81612c52565b82525050565b6124b981612c52565b82525050565b6124d06124cb82612c52565b612d35565b82525050565b60006124e182612b0b565b6124eb8185612b34565b93506124fb818560208601612cc6565b61250481612d8a565b840191505092915050565b600061251a82612b0b565b6125248185612b45565b9350612534818560208601612cc6565b80840191505092915050565b600061254d602083612b34565b91507f537472696e67733a20686578206c656e67746820696e73756666696369656e746000830152602082019050919050565b600061258d602d83612b34565b91507f41206365727469666963617465206d757374206265207265676973746572656460008301527f20746f6265207265766f6b6564000000000000000000000000000000000000006020830152604082019050919050565b60006125f3602583612b34565b91507f546869732065717569706d656e7420697320616c72656164792072656769737460008301527f657265642e0000000000000000000000000000000000000000000000000000006020830152604082019050919050565b6000612659602183612b34565b91507f546869732064657669636520697320616c72656164792072656769737465726560008301527f64000000000000000000000000000000000000000000000000000000000000006020830152604082019050919050565b60006126bf601783612b45565b91507f416363657373436f6e74726f6c3a206163636f756e74200000000000000000006000830152601782019050919050565b60006126ff601183612b45565b91507f206973206d697373696e6720726f6c65200000000000000000000000000000006000830152601182019050919050565b600061273f602f83612b34565b91507f416363657373436f6e74726f6c3a2063616e206f6e6c792072656e6f756e636560008301527f20726f6c657320666f722073656c6600000000000000000000000000000000006020830152604082019050919050565b6000610100830160008301516127b160008601826124a1565b5060208301516127c460208601826123f0565b50604083015184820360408601526127dc8282612425565b91505060608301516127f160608601826124a1565b50608083015161280460808601826128d6565b5060a083015161281760a08601826128d6565b5060c083015161282a60c0860182612483565b5060e083015161283d60e0860182612483565b508091505092915050565b60a08201600082015161285e60008501826123f0565b5060208201516128716020850182612483565b50604082015161288460408501826128d6565b50606082015161289760608501826128d6565b5060808201516128aa6080850182612483565b50505050565b6128b981612ca8565b82525050565b6128d06128cb82612ca8565b612d51565b82525050565b6128df81612cb2565b82525050565b60006128f182866124bf565b602082019150612901828561240e565b60148201915061291182846128bf565b602082019150819050949350505050565b600061292d826126b2565b9150612939828561250f565b9150612944826126f2565b9150612950828461250f565b91508190509392505050565b600060208201905061297160008301846123ff565b92915050565b600060208201905061298c6000830184612492565b92915050565b60006020820190506129a760008301846124b0565b92915050565b60006040820190506129c260008301856124b0565b6129cf60208301846124b0565b9392505050565b600060208201905081810360008301526129f081846124d6565b905092915050565b60006020820190508181036000830152612a1181612540565b9050919050565b60006020820190508181036000830152612a3181612580565b9050919050565b60006020820190508181036000830152612a51816125e6565b9050919050565b60006020820190508181036000830152612a718161264c565b9050919050565b60006020820190508181036000830152612a9181612732565b9050919050565b60006020820190508181036000830152612ab28184612798565b905092915050565b600060a082019050612acf6000830184612848565b92915050565b6000602082019050612aea60008301846128b0565b92915050565b6000819050602082019050919050565b600081519050919050565b600081519050919050565b6000602082019050919050565b600082825260208201905092915050565b600082825260208201905092915050565b600081905092915050565b6000612b5b82612ca8565b9150612b6683612ca8565b9250827fffffffffffffffffffffffffffffffffffffffffffffffffffffffffffffffff03821115612b9b57612b9a612d5b565b5b828201905092915050565b6000612bb182612ca8565b9150612bbc83612ca8565b9250817fffffffffffffffffffffffffffffffffffffffffffffffffffffffffffffffff0483118215151615612bf557612bf4612d5b565b5b828202905092915050565b6000612c0b82612ca8565b9150612c1683612ca8565b925082821015612c2957612c28612d5b565b5b828203905092915050565b6000612c3f82612c88565b9050919050565b60008115159050919050565b6000819050919050565b60007fffffffff0000000000000000000000000000000000000000000000000000000082169050919050565b600073ffffffffffffffffffffffffffffffffffffffff82169050919050565b6000819050919050565b600067ffffffffffffffff82169050919050565b60005b83811015612ce4578082015181840152602081019050612cc9565b83811115612cf3576000848401525b50505050565b6000612d0482612ca8565b91506000821415612d1857612d17612d5b565b5b600182039050919050565b6000612d2e82612d3f565b9050919050565b6000819050919050565b6000612d4a82612d9b565b9050919050565b6000819050919050565b7f4e487b7100000000000000000000000000000000000000000000000000000000600052601160045260246000fd5b6000601f19601f8301169050919050565b60008160601b9050919050565b612db181612c34565b8114612dbc57600080fd5b50565b612dc881612c46565b8114612dd357600080fd5b50565b612ddf81612c52565b8114612dea57600080fd5b50565b612df681612c5c565b8114612e0157600080fd5b50565b612e0d81612ca8565b8114612e1857600080fd5b50565b612e2481612cb2565b8114612e2f57600080fd5b5056fea2646970667358221220e662ac4cdf258134691c10a303b7778a0a0a14f27a17c36f551efcf7f8c5ff1864736f6c63430008000033a2646970667358221220c8fc24c7259119cca255785df055481303073206184d7728667bdc5945f9957164736f6c63430008000033608060405234801561001057600080fd5b5061002d61002261003260201b60201c565b61003a60201b60201c565b6100fe565b600033905090565b60008060009054906101000a900473ffffffffffffffffffffffffffffffffffffffff169050816000806101000a81548173ffffffffffffffffffffffffffffffffffffffff021916908373ffffffffffffffffffffffffffffffffffffffff1602179055508173ffffffffffffffffffffffffffffffffffffffff168173ffffffffffffffffffffffffffffffffffffffff167f8be0079c531659141344cd1fd0a4f28419497f9722a3daafe3b4186f6b6457e060405160405180910390a35050565b6148018061010d6000396000f3fe60806040523480156200001157600080fd5b50600436106200005e5760003560e01c806369dc9ff31462000063578063715018a614620000995780638da5cb5b14620000a5578063e67d6b9e14620000c7578063f2fde38b14620000fd575b600080fd5b6200008160048036038101906200007b919062000510565b6200011d565b60405162000090919062000663565b60405180910390f35b620000a36200013d565b005b620000af620001ce565b604051620000be919062000619565b60405180910390f35b620000e56004803603810190620000df919062000510565b620001f7565b604051620000f4919062000680565b60405180910390f35b6200011b600480360381019062000115919062000510565b6200031b565b005b60016020528060005260406000206000915054906101000a900460ff1681565b620001476200041f565b73ffffffffffffffffffffffffffffffffffffffff1662000167620001ce565b73ffffffffffffffffffffffffffffffffffffffff1614620001c0576040517f08c379a0000000000000000000000000000000000000000000000000000000008152600401620001b790620006bf565b60405180910390fd5b620001cc600062000427565b565b60008060009054906101000a900473ffffffffffffffffffffffffffffffffffffffff16905090565b6000620002036200041f565b73ffffffffffffffffffffffffffffffffffffffff1662000223620001ce565b73ffffffffffffffffffffffffffffffffffffffff16146200027c576040517f08c379a00000000000000000000000000000000000000000000000000000000081526004016200027390620006bf565b60405180910390fd5b600082336040516200028e90620004eb565b6200029b92919062000636565b604051809103906000f080158015620002b8573d6000803e3d6000fd5b50905060018060008373ffffffffffffffffffffffffffffffffffffffff1673ffffffffffffffffffffffffffffffffffffffff16815260200190815260200160002060006101000a81548160ff02191690831515021790555080915050919050565b620003256200041f565b73ffffffffffffffffffffffffffffffffffffffff1662000345620001ce565b73ffffffffffffffffffffffffffffffffffffffff16146200039e576040517f08c379a00000000000000000000000000000000000000000000000000000000081526004016200039590620006bf565b60405180910390fd5b600073ffffffffffffffffffffffffffffffffffffffff168173ffffffffffffffffffffffffffffffffffffffff16141562000411576040517f08c379a000000000000000000000000000000000000000000000000000000000815260040162000408906200069d565b60405180910390fd5b6200041c8162000427565b50565b600033905090565b60008060009054906101000a900473ffffffffffffffffffffffffffffffffffffffff169050816000806101000a81548173ffffffffffffffffffffffffffffffffffffffff021916908373ffffffffffffffffffffffffffffffffffffffff1602179055508173ffffffffffffffffffffffffffffffffffffffff168173ffffffffffffffffffffffffffffffffffffffff167f8be0079c531659141344cd1fd0a4f28419497f9722a3daafe3b4186f6b6457e060405160405180910390a35050565b614057806200077583390190565b6000813590506200050a816200075a565b92915050565b6000602082840312156200052357600080fd5b60006200053384828501620004f9565b91505092915050565b6200054781620006f2565b82525050565b620005588162000706565b82525050565b620005698162000732565b82525050565b60006200057e602683620006e1565b91507f4f776e61626c653a206e6577206f776e657220697320746865207a65726f206160008301527f64647265737300000000000000000000000000000000000000000000000000006020830152604082019050919050565b6000620005e6602083620006e1565b91507f4f776e61626c653a2063616c6c6572206973206e6f7420746865206f776e65726000830152602082019050919050565b60006020820190506200063060008301846200053c565b92915050565b60006040820190506200064d60008301856200053c565b6200065c60208301846200053c565b9392505050565b60006020820190506200067a60008301846200054d565b92915050565b60006020820190506200069760008301846200055e565b92915050565b60006020820190508181036000830152620006b8816200056f565b9050919050565b60006020820190508181036000830152620006da81620005d7565b9050919050565b600082825260208201905092915050565b6000620006ff8262000712565b9050919050565b60008115159050919050565b600073ffffffffffffffffffffffffffffffffffffffff82169050919050565b60006200073f8262000746565b9050919050565b6000620007538262000712565b9050919050565b6200076581620006f2565b81146200077157600080fd5b5056fe60806040523480156200001157600080fd5b506040516200405738038062004057833981810160405281019062000037919062000779565b80600160006101000a81548173ffffffffffffffffffffffffffffffffffffffff021916908373ffffffffffffffffffffffffffffffffffffffff1602179055506200008d6000801b826200014b60201b60201c565b620000bf7f843b48dccc6ff192f9330133622b0536f7b94feca0cf36e7e46fc50060b6f882826200016160201b60201c565b620000f17f6270edb7c868f86fda4adedba75108201087268ea345934db8bad688e1feb91b836200016160201b60201c565b620001437fc7ddcf4441a1bb01353b38db832023115117943d28ad05b882de4ad99e94b8fc7f6270edb7c868f86fda4adedba75108201087268ea345934db8bad688e1feb91b620001aa60201b60201c565b505062000b62565b6200015d82826200020d60201b60201c565b5050565b6200017282620002fe60201b60201c565b6200019381620001876200031d60201b60201c565b6200032560201b60201c565b620001a583836200020d60201b60201c565b505050565b6000620001bd83620002fe60201b60201c565b905081600080858152602001908152602001600020600101819055508181847fbd79b86ffe0ab8e8776151514217cd7cacd52c909f66475c3af44e129f0b00ff60405160405180910390a4505050565b6200021f8282620003e960201b60201c565b620002fa57600160008084815260200190815260200160002060000160008373ffffffffffffffffffffffffffffffffffffffff1673ffffffffffffffffffffffffffffffffffffffff16815260200190815260200160002060006101000a81548160ff0219169083151502179055506200029f6200031d60201b60201c565b73ffffffffffffffffffffffffffffffffffffffff168173ffffffffffffffffffffffffffffffffffffffff16837f2f8788117e7eff1d82e926ec794901d17c78024a50270940304540a733656f0d60405160405180910390a45b5050565b6000806000838152602001908152602001600020600101549050919050565b600033905090565b620003378282620003e960201b60201c565b620003e5576200036a8173ffffffffffffffffffffffffffffffffffffffff1660146200045360201b6200195b1760201c565b620003858360001c60206200045360201b6200195b1760201c565b60405160200162000398929190620008f8565b6040516020818303038152906040526040517f08c379a0000000000000000000000000000000000000000000000000000000008152600401620003dc91906200093a565b60405180910390fd5b5050565b600080600084815260200190815260200160002060000160008373ffffffffffffffffffffffffffffffffffffffff1673ffffffffffffffffffffffffffffffffffffffff16815260200190815260200160002060009054906101000a900460ff16905092915050565b60606000600283600262000468919062000a04565b620004749190620009a7565b67ffffffffffffffff811115620004b4577f4e487b7100000000000000000000000000000000000000000000000000000000600052604160045260246000fd5b6040519080825280601f01601f191660200182016040528015620004e75781602001600182028036833780820191505090505b5090507f30000000000000000000000000000000000000000000000000000000000000008160008151811062000546577f4e487b7100000000000000000000000000000000000000000000000000000000600052603260045260246000fd5b60200101907effffffffffffffffffffffffffffffffffffffffffffffffffffffffffffff1916908160001a9053507f780000000000000000000000000000000000000000000000000000000000000081600181518110620005d1577f4e487b7100000000000000000000000000000000000000000000000000000000600052603260045260246000fd5b60200101907effffffffffffffffffffffffffffffffffffffffffffffffffffffffffffff1916908160001a9053506000600184600262000613919062000a04565b6200061f9190620009a7565b90505b600181111562000711577f3031323334353637383961626364656600000000000000000000000000000000600f86166010811062000689577f4e487b7100000000000000000000000000000000000000000000000000000000600052603260045260246000fd5b1a60f81b828281518110620006c7577f4e487b7100000000000000000000000000000000000000000000000000000000600052603260045260246000fd5b60200101907effffffffffffffffffffffffffffffffffffffffffffffffffffffffffffff1916908160001a905350600485901c945080620007099062000ad9565b905062000622565b506000841462000758576040517f08c379a00000000000000000000000000000000000000000000000000000000081526004016200074f906200095e565b60405180910390fd5b8091505092915050565b600081519050620007738162000b48565b92915050565b600080604083850312156200078d57600080fd5b60006200079d8582860162000762565b9250506020620007b08582860162000762565b9150509250929050565b6000620007c78262000980565b620007d381856200098b565b9350620007e581856020860162000aa3565b620007f08162000b37565b840191505092915050565b6000620008088262000980565b6200081481856200099c565b93506200082681856020860162000aa3565b80840191505092915050565b6000620008416020836200098b565b91507f537472696e67733a20686578206c656e67746820696e73756666696369656e746000830152602082019050919050565b6000620008836017836200099c565b91507f416363657373436f6e74726f6c3a206163636f756e74200000000000000000006000830152601782019050919050565b6000620008c56011836200099c565b91507f206973206d697373696e6720726f6c65200000000000000000000000000000006000830152601182019050919050565b6000620009058262000874565b9150620009138285620007fb565b91506200092082620008b6565b91506200092e8284620007fb565b91508190509392505050565b60006020820190508181036000830152620009568184620007ba565b905092915050565b60006020820190508181036000830152620009798162000832565b9050919050565b600081519050919050565b600082825260208201905092915050565b600081905092915050565b6000620009b48262000a99565b9150620009c18362000a99565b9250827fffffffffffffffffffffffffffffffffffffffffffffffffffffffffffffffff03821115620009f957620009f862000b08565b5b828201905092915050565b600062000a118262000a99565b915062000a1e8362000a99565b9250817fffffffffffffffffffffffffffffffffffffffffffffffffffffffffffffffff048311821515161562000a5a5762000a5962000b08565b5b828202905092915050565b600062000a728262000a79565b9050919050565b600073ffffffffffffffffffffffffffffffffffffffff82169050919050565b6000819050919050565b60005b8381101562000ac357808201518184015260208101905062000aa6565b8381111562000ad3576000848401525b50505050565b600062000ae68262000a99565b9150600082141562000afd5762000afc62000b08565b5b600182039050919050565b7f4e487b7100000000000000000000000000000000000000000000000000000000600052601160045260246000fd5b6000601f19601f8301169050919050565b62000b538162000a65565b811462000b5f57600080fd5b50565b6134e58062000b726000396000f3fe608060405234801561001057600080fd5b50600436106101165760003560e01c80637680637f116100a257806391d148541161007157806391d14854146102cb578063a217fddf146102fb578063bbd3a66d14610319578063bf7e214f14610349578063d547741f1461036757610116565b80637680637f146102575780638376e5ae146102735780638809f7271461028f57806389fcd796146102ad57610116565b80632f2ff15d116100e95780632f2ff15d146101c957806336568abe146101e55780634a2d5c9d14610201578063547ff0761461021f578063641fae3c1461023b57610116565b806301ffc9a71461011b5780630a28e90c1461014b578063117803e31461017b578063248a9ca314610199575b600080fd5b6101356004803603810190610130919061265b565b610383565b6040516101429190612dac565b60405180910390f35b61016560048036038101906101609190612684565b6103fd565b6040516101729190612e84565b60405180910390f35b610183610934565b6040516101909190612dc7565b60405180910390f35b6101b360048036038101906101ae91906125f6565b610958565b6040516101c09190612dc7565b60405180910390f35b6101e360048036038101906101de919061261f565b610977565b005b6101ff60048036038101906101fa919061261f565b6109a0565b005b610209610a23565b6040516102169190612dc7565b60405180910390f35b6102396004803603810190610234919061257b565b610a47565b005b61025560048036038101906102509190612518565b610fda565b005b610271600480360381019061026c91906125f6565b6111a3565b005b61028d600480360381019061028891906124ef565b611324565b005b610297611394565b6040516102a49190612ea6565b60405180910390f35b6102b56113a1565b6040516102c29190612dc7565b60405180910390f35b6102e560048036038101906102e0919061261f565b6113c5565b6040516102f29190612dac565b60405180910390f35b61030361142f565b6040516103109190612dc7565b60405180910390f35b610333600480360381019061032e91906125f6565b611436565b6040516103409190612e84565b60405180910390f35b61035161190c565b60405161035e9190612d68565b60405180910390f35b610381600480360381019061037c919061261f565b611932565b005b60007f7965db0b000000000000000000000000000000000000000000000000000000007bffffffffffffffffffffffffffffffffffffffffffffffffffffffff1916827bffffffffffffffffffffffffffffffffffffffffffffffffffffffff191614806103f657506103f582611c55565b5b9050919050565b610405611f25565b600160038054905061041791906130f8565b821061042257600080fd5b6002600060038481548110610460577f4e487b7100000000000000000000000000000000000000000000000000000000600052603260045260246000fd5b90600052602060002001548152602001908152602001600020604051806101000160405290816000820160009054906101000a900473ffffffffffffffffffffffffffffffffffffffff1673ffffffffffffffffffffffffffffffffffffffff1673ffffffffffffffffffffffffffffffffffffffff1681526020016001820160009054906101000a900473ffffffffffffffffffffffffffffffffffffffff1673ffffffffffffffffffffffffffffffffffffffff1673ffffffffffffffffffffffffffffffffffffffff16815260200160028201805480602002602001604051908101604052809291908181526020016000905b8282101561088157838290600052602060002090600a020160405180610140016040529081600082015481526020016001820180548060200260200160405190810160405280929190818152602001828054801561062e57602002820191906000526020600020906000905b82829054906101000a900460ff166006811115610608577f4e487b7100000000000000000000000000000000000000000000000000000000600052602160045260246000fd5b815260200190600101906020826000010492830192600103820291508084116105c25790505b50505050508152602001600282018054806020026020016040519081016040528092919081815260200182805480156106ac57602002820191906000526020600020906000905b82829054906101000a900460030b60030b815260200190600401906020826003010492830192600103820291508084116106755790505b505050505081526020016003820160009054906101000a900460ff166001811115610700577f4e487b7100000000000000000000000000000000000000000000000000000000600052602160045260246000fd5b6001811115610738577f4e487b7100000000000000000000000000000000000000000000000000000000600052602160045260246000fd5b815260200160048201548152602001600582015481526020016006820160009054906101000a900460ff16601381111561079b577f4e487b7100000000000000000000000000000000000000000000000000000000600052602160045260246000fd5b60138111156107d3577f4e487b7100000000000000000000000000000000000000000000000000000000600052602160045260246000fd5b815260200160078201548152602001600882015481526020016009820160009054906101000a900460ff166013811115610836577f4e487b7100000000000000000000000000000000000000000000000000000000600052602160045260246000fd5b601381111561086e577f4e487b7100000000000000000000000000000000000000000000000000000000600052602160045260246000fd5b8152505081526020019060010190610556565b505050508152602001600382015481526020016004820160009054906101000a900467ffffffffffffffff1667ffffffffffffffff1667ffffffffffffffff1681526020016004820160089054906101000a900467ffffffffffffffff1667ffffffffffffffff1667ffffffffffffffff1681526020016004820160109054906101000a900460ff161515151581526020016004820160119054906101000a900460ff1615151515815250509050919050565b7f6270edb7c868f86fda4adedba75108201087268ea345934db8bad688e1feb91b81565b6000806000838152602001908152602001600020600101549050919050565b61098082610958565b6109918161098c611cbf565b611cc7565b61099b8383611d64565b505050565b6109a8611cbf565b73ffffffffffffffffffffffffffffffffffffffff168173ffffffffffffffffffffffffffffffffffffffff1614610a15576040517f08c379a0000000000000000000000000000000000000000000000000000000008152600401610a0c90612e64565b60405180910390fd5b610a1f8282611e44565b5050565b7fc7ddcf4441a1bb01353b38db832023115117943d28ad05b882de4ad99e94b8fc81565b610a717f6270edb7c868f86fda4adedba75108201087268ea345934db8bad688e1feb91b326113c5565b80610aa25750610aa17fc7ddcf4441a1bb01353b38db832023115117943d28ad05b882de4ad99e94b8fc326113c5565b5b80610ab65750610ab56000801b336113c5565b5b610abf57600080fd5b6000843042604051602001610ad693929190612cf1565b6040516020818303038152906040528051906020012090506002600082815260200190815260200160002060040160119054906101000a900460ff1615610b52576040517f08c379a0000000000000000000000000000000000000000000000000000000008152600401610b4990612e44565b60405180910390fd5b846002600083815260200190815260200160002060000160006101000a81548173ffffffffffffffffffffffffffffffffffffffff021916908373ffffffffffffffffffffffffffffffffffffffff160217905550326002600083815260200190815260200160002060010160006101000a81548173ffffffffffffffffffffffffffffffffffffffff021916908373ffffffffffffffffffffffffffffffffffffffff160217905550426002600083815260200190815260200160002060040160006101000a81548167ffffffffffffffff021916908367ffffffffffffffff160217905550826002600083815260200190815260200160002060040160086101000a81548167ffffffffffffffff021916908367ffffffffffffffff16021790555083600260008381526020019081526020016000206003018190555060016002600083815260200190815260200160002060040160116101000a81548160ff021916908315150217905550600381908060018154018082558091505060019003906000526020600020016000909190919091505560005b8251811015610efa5760026000838152602001908152602001600020600201838281518110610d44577f4e487b7100000000000000000000000000000000000000000000000000000000600052603260045260246000fd5b602002602001015190806001815401808255809150506001900390600052602060002090600a0201600090919091909150600082015181600001556020820151816001019080519060200190610d9b929190611fb1565b506040820151816002019080519060200190610db892919061208d565b5060608201518160030160006101000a81548160ff02191690836001811115610e0a577f4e487b7100000000000000000000000000000000000000000000000000000000600052602160045260246000fd5b02179055506080820151816004015560a0820151816005015560c08201518160060160006101000a81548160ff02191690836013811115610e74577f4e487b7100000000000000000000000000000000000000000000000000000000600052602160045260246000fd5b021790555060e0820151816007015561010082015181600801556101208201518160090160006101000a81548160ff02191690836013811115610ee0577f4e487b7100000000000000000000000000000000000000000000000000000000600052602160045260246000fd5b021790555050508080610ef290613297565b915050610cec565b506000600160009054906101000a900473ffffffffffffffffffffffffffffffffffffffff1690508073ffffffffffffffffffffffffffffffffffffffff1663d2e0fd7c87846040518363ffffffff1660e01b8152600401610f5d929190612d83565b600060405180830381600087803b158015610f7757600080fd5b505af1158015610f8b573d6000803e3d6000fd5b505050508367ffffffffffffffff164267ffffffffffffffff16837f7ab6d57493e9d536fc2ebb574b840bcfa129a10f9df628610fce44f2aa26fec860405160405180910390a4505050505050565b6110047fc7ddcf4441a1bb01353b38db832023115117943d28ad05b882de4ad99e94b8fc85610977565b30600460008673ffffffffffffffffffffffffffffffffffffffff1673ffffffffffffffffffffffffffffffffffffffff16815260200190815260200160002060000160006101000a81548173ffffffffffffffffffffffffffffffffffffffff021916908373ffffffffffffffffffffffffffffffffffffffff16021790555082600460008673ffffffffffffffffffffffffffffffffffffffff1673ffffffffffffffffffffffffffffffffffffffff1681526020019081526020016000206001018190555081600460008673ffffffffffffffffffffffffffffffffffffffff1673ffffffffffffffffffffffffffffffffffffffff1681526020019081526020016000206002018190555080600460008673ffffffffffffffffffffffffffffffffffffffff1673ffffffffffffffffffffffffffffffffffffffff168152602001908152602001600020600301819055508373ffffffffffffffffffffffffffffffffffffffff167ff0f7d8c5ce42f07387388b98c5bc129be0d2092a62b3f97a797caecb2461aeb760405160405180910390a250505050565b6111cd7f6270edb7c868f86fda4adedba75108201087268ea345934db8bad688e1feb91b326113c5565b806111fe57506111fd7fc7ddcf4441a1bb01353b38db832023115117943d28ad05b882de4ad99e94b8fc326113c5565b5b8061121257506112116000801b336113c5565b5b61121b57600080fd5b60006002600083815260200190815260200160002090508060040160119054906101000a900460ff16801561125f57508060040160109054906101000a900460ff16155b61129e576040517f08c379a000000000000000000000000000000000000000000000000000000000815260040161129590612e24565b60405180910390fd5b60018160040160106101000a81548160ff0219169083151502179055504263ffffffff168160040160086101000a81548167ffffffffffffffff021916908367ffffffffffffffff1602179055504263ffffffff16827fdfb16e680b89bb363b97cbc4b6ef42b95dba995e00034252becd4f9168cecc8860405160405180910390a35050565b61134e7fc7ddcf4441a1bb01353b38db832023115117943d28ad05b882de4ad99e94b8fc82611932565b8073ffffffffffffffffffffffffffffffffffffffff167f98561cbe7c9c0b90726130c8409b307d4c9698c9e7ee2797aea68659cad1049460405160405180910390a250565b6000600380549050905090565b7f843b48dccc6ff192f9330133622b0536f7b94feca0cf36e7e46fc50060b6f88281565b600080600084815260200190815260200160002060000160008373ffffffffffffffffffffffffffffffffffffffff1673ffffffffffffffffffffffffffffffffffffffff16815260200190815260200160002060009054906101000a900460ff16905092915050565b6000801b81565b61143e611f25565b60026000838152602001908152602001600020604051806101000160405290816000820160009054906101000a900473ffffffffffffffffffffffffffffffffffffffff1673ffffffffffffffffffffffffffffffffffffffff1673ffffffffffffffffffffffffffffffffffffffff1681526020016001820160009054906101000a900473ffffffffffffffffffffffffffffffffffffffff1673ffffffffffffffffffffffffffffffffffffffff1673ffffffffffffffffffffffffffffffffffffffff16815260200160028201805480602002602001604051908101604052809291908181526020016000905b8282101561185957838290600052602060002090600a020160405180610140016040529081600082015481526020016001820180548060200260200160405190810160405280929190818152602001828054801561160657602002820191906000526020600020906000905b82829054906101000a900460ff1660068111156115e0577f4e487b7100000000000000000000000000000000000000000000000000000000600052602160045260246000fd5b8152602001906001019060208260000104928301926001038202915080841161159a5790505b505050505081526020016002820180548060200260200160405190810160405280929190818152602001828054801561168457602002820191906000526020600020906000905b82829054906101000a900460030b60030b8152602001906004019060208260030104928301926001038202915080841161164d5790505b505050505081526020016003820160009054906101000a900460ff1660018111156116d8577f4e487b7100000000000000000000000000000000000000000000000000000000600052602160045260246000fd5b6001811115611710577f4e487b7100000000000000000000000000000000000000000000000000000000600052602160045260246000fd5b815260200160048201548152602001600582015481526020016006820160009054906101000a900460ff166013811115611773577f4e487b7100000000000000000000000000000000000000000000000000000000600052602160045260246000fd5b60138111156117ab577f4e487b7100000000000000000000000000000000000000000000000000000000600052602160045260246000fd5b815260200160078201548152602001600882015481526020016009820160009054906101000a900460ff16601381111561180e577f4e487b7100000000000000000000000000000000000000000000000000000000600052602160045260246000fd5b6013811115611846577f4e487b7100000000000000000000000000000000000000000000000000000000600052602160045260246000fd5b815250508152602001906001019061152e565b505050508152602001600382015481526020016004820160009054906101000a900467ffffffffffffffff1667ffffffffffffffff1667ffffffffffffffff1681526020016004820160089054906101000a900467ffffffffffffffff1667ffffffffffffffff1667ffffffffffffffff1681526020016004820160109054906101000a900460ff161515151581526020016004820160119054906101000a900460ff1615151515815250509050919050565b600160009054906101000a900473ffffffffffffffffffffffffffffffffffffffff1681565b61193b82610958565b61194c81611947611cbf565b611cc7565b6119568383611e44565b505050565b60606000600283600261196e919061309e565b6119789190613048565b67ffffffffffffffff8111156119b7577f4e487b7100000000000000000000000000000000000000000000000000000000600052604160045260246000fd5b6040519080825280601f01601f1916602001820160405280156119e95781602001600182028036833780820191505090505b5090507f300000000000000000000000000000000000000000000000000000000000000081600081518110611a47577f4e487b7100000000000000000000000000000000000000000000000000000000600052603260045260246000fd5b60200101907effffffffffffffffffffffffffffffffffffffffffffffffffffffffffffff1916908160001a9053507f780000000000000000000000000000000000000000000000000000000000000081600181518110611ad1577f4e487b7100000000000000000000000000000000000000000000000000000000600052603260045260246000fd5b60200101907effffffffffffffffffffffffffffffffffffffffffffffffffffffffffffff1916908160001a90535060006001846002611b11919061309e565b611b1b9190613048565b90505b6001811115611c07577f3031323334353637383961626364656600000000000000000000000000000000600f861660108110611b83577f4e487b7100000000000000000000000000000000000000000000000000000000600052603260045260246000fd5b1a60f81b828281518110611bc0577f4e487b7100000000000000000000000000000000000000000000000000000000600052603260045260246000fd5b60200101907effffffffffffffffffffffffffffffffffffffffffffffffffffffffffffff1916908160001a905350600485901c945080611c009061326d565b9050611b1e565b5060008414611c4b576040517f08c379a0000000000000000000000000000000000000000000000000000000008152600401611c4290612e04565b60405180910390fd5b8091505092915050565b60007f01ffc9a7000000000000000000000000000000000000000000000000000000007bffffffffffffffffffffffffffffffffffffffffffffffffffffffff1916827bffffffffffffffffffffffffffffffffffffffffffffffffffffffff1916149050919050565b600033905090565b611cd182826113c5565b611d6057611cf68173ffffffffffffffffffffffffffffffffffffffff16601461195b565b611d048360001c602061195b565b604051602001611d15929190612d2e565b6040516020818303038152906040526040517f08c379a0000000000000000000000000000000000000000000000000000000008152600401611d579190612de2565b60405180910390fd5b5050565b611d6e82826113c5565b611e4057600160008084815260200190815260200160002060000160008373ffffffffffffffffffffffffffffffffffffffff1673ffffffffffffffffffffffffffffffffffffffff16815260200190815260200160002060006101000a81548160ff021916908315150217905550611de5611cbf565b73ffffffffffffffffffffffffffffffffffffffff168173ffffffffffffffffffffffffffffffffffffffff16837f2f8788117e7eff1d82e926ec794901d17c78024a50270940304540a733656f0d60405160405180910390a45b5050565b611e4e82826113c5565b15611f2157600080600084815260200190815260200160002060000160008373ffffffffffffffffffffffffffffffffffffffff1673ffffffffffffffffffffffffffffffffffffffff16815260200190815260200160002060006101000a81548160ff021916908315150217905550611ec6611cbf565b73ffffffffffffffffffffffffffffffffffffffff168173ffffffffffffffffffffffffffffffffffffffff16837ff6391f5c32d9c69d2a47ea670b442974b53935d1edc7fd64eb21e047a839171b60405160405180910390a45b5050565b604051806101000160405280600073ffffffffffffffffffffffffffffffffffffffff168152602001600073ffffffffffffffffffffffffffffffffffffffff1681526020016060815260200160008019168152602001600067ffffffffffffffff168152602001600067ffffffffffffffff1681526020016000151581526020016000151581525090565b82805482825590600052602060002090601f0160209004810192821561207c5791602002820160005b8382111561204d57835183826101000a81548160ff0219169083600681111561202c577f4e487b7100000000000000000000000000000000000000000000000000000000600052602160045260246000fd5b02179055509260200192600101602081600001049283019260010302611fda565b801561207a5782816101000a81549060ff021916905560010160208160000104928301926001030261204d565b505b5090506120899190612140565b5090565b8280548282559060005260206000209060070160089004810192821561212f5791602002820160005b838211156120fd57835183826101000a81548163ffffffff021916908360030b63ffffffff16021790555092602001926004016020816003010492830192600103026120b6565b801561212d5782816101000a81549063ffffffff02191690556004016020816003010492830192600103026120fd565b505b50905061213c9190612140565b5090565b5b80821115612159576000816000905550600101612141565b5090565b600061217061216b84612ef2565b612ec1565b9050808382526020820190508285602086028201111561218f57600080fd5b60005b858110156121bf57816121a58882612379565b845260208401935060208301925050600181019050612192565b5050509392505050565b60006121dc6121d784612f1e565b612ec1565b905080838252602082019050828560208602820111156121fb57600080fd5b60005b8581101561222b5781612211888261238e565b8452602084019350602083019250506001810190506121fe565b5050509392505050565b600061224861224384612f4a565b612ec1565b9050808382526020820190508260005b85811015612288578135850161226e88826123a3565b845260208401935060208301925050600181019050612258565b5050509392505050565b6000813590506122a1816133f5565b92915050565b600082601f8301126122b857600080fd5b81356122c884826020860161215d565b91505092915050565b600082601f8301126122e257600080fd5b81356122f28482602086016121c9565b91505092915050565b600082601f83011261230c57600080fd5b813561231c848260208601612235565b91505092915050565b6000813590506123348161340c565b92915050565b60008135905061234981613423565b92915050565b60008135905061235e8161343a565b92915050565b6000813590506123738161344a565b92915050565b6000813590506123888161345a565b92915050565b60008135905061239d8161346a565b92915050565b600061014082840312156123b657600080fd5b6123c1610140612ec1565b905060006123d184828501612325565b600083015250602082013567ffffffffffffffff8111156123f157600080fd5b6123fd848285016122a7565b602083015250604082013567ffffffffffffffff81111561241d57600080fd5b612429848285016122d1565b604083015250606061243d8482850161234f565b606083015250608061245184828501612325565b60808301525060a061246584828501612325565b60a08301525060c061247984828501612364565b60c08301525060e061248d84828501612325565b60e0830152506101006124a284828501612325565b610100830152506101206124b884828501612364565b6101208301525092915050565b6000813590506124d481613481565b92915050565b6000813590506124e981613498565b92915050565b60006020828403121561250157600080fd5b600061250f84828501612292565b91505092915050565b6000806000806080858703121561252e57600080fd5b600061253c87828801612292565b945050602061254d87828801612325565b935050604061255e87828801612325565b925050606061256f87828801612325565b91505092959194509250565b6000806000806080858703121561259157600080fd5b600061259f87828801612292565b94505060206125b087828801612325565b93505060406125c1878288016124da565b925050606085013567ffffffffffffffff8111156125de57600080fd5b6125ea878288016122fb565b91505092959194509250565b60006020828403121561260857600080fd5b600061261684828501612325565b91505092915050565b6000806040838503121561263257600080fd5b600061264085828601612325565b925050602061265185828601612292565b9150509250929050565b60006020828403121561266d57600080fd5b600061267b8482850161233a565b91505092915050565b60006020828403121561269657600080fd5b60006126a4848285016124c5565b91505092915050565b60006126b983836128b1565b60208301905092915050565b60006126d183836128c0565b60208301905092915050565b60006126e98383612bdb565b905092915050565b6126fa8161312c565b82525050565b6127098161312c565b82525050565b61272061271b8261312c565b6132e0565b82525050565b600061273182612fa6565b61273b818561301b565b935061274683612f76565b8060005b8381101561277757815161275e88826126ad565b975061276983612fd2565b92505060018101905061274a565b5085935050505092915050565b600061278f82612fb1565b6127998185612ff9565b93506127a483612f86565b8060005b838110156127d55781516127bc88826126c5565b97506127c783612fdf565b9250506001810190506127a8565b5085935050505092915050565b60006127ed82612fbc565b6127f7818561300a565b93508360208202850161280985612f96565b8060005b85811015612845578484038952815161282685826126dd565b945061283183612fec565b925060208a0199505060018101905061280d565b50829750879550505050505092915050565b6128608161313e565b82525050565b61286f8161313e565b82525050565b61287e8161314a565b82525050565b61288d8161314a565b82525050565b61289c81613204565b82525050565b6128ab81613216565b82525050565b6128ba81613228565b82525050565b6128c9816131b9565b82525050565b60006128da82612fc7565b6128e4818561302c565b93506128f481856020860161323a565b6128fd8161339b565b840191505092915050565b600061291382612fc7565b61291d818561303d565b935061292d81856020860161323a565b80840191505092915050565b600061294660208361302c565b91507f537472696e67733a20686578206c656e67746820696e73756666696369656e746000830152602082019050919050565b6000612986602d8361302c565b91507f41206365727469666963617465206d757374206265207265676973746572656460008301527f20746f6265207265766f6b6564000000000000000000000000000000000000006020830152604082019050919050565b60006129ec60178361303d565b91507f416363657373436f6e74726f6c3a206163636f756e74200000000000000000006000830152601782019050919050565b6000612a2c60268361302c565b91507f5468697320636572746966696361746520697320616c7265616479207265676960008301527f73746572656400000000000000000000000000000000000000000000000000006020830152604082019050919050565b6000612a9260118361303d565b91507f206973206d697373696e6720726f6c65200000000000000000000000000000006000830152601182019050919050565b6000612ad2602f8361302c565b91507f416363657373436f6e74726f6c3a2063616e206f6e6c792072656e6f756e636560008301527f20726f6c657320666f722073656c6600000000000000000000000000000000006020830152604082019050919050565b600061010083016000830151612b4460008601826126f1565b506020830151612b5760208601826126f1565b5060408301518482036040860152612b6f82826127e2565b9150506060830151612b846060860182612875565b506080830151612b976080860182612ce2565b5060a0830151612baa60a0860182612ce2565b5060c0830151612bbd60c0860182612857565b5060e0830151612bd060e0860182612857565b508091505092915050565b600061014083016000830151612bf46000860182612875565b5060208301518482036020860152612c0c8282612726565b91505060408301518482036040860152612c268282612784565b9150506060830151612c3b6060860182612893565b506080830151612c4e6080860182612875565b5060a0830151612c6160a0860182612875565b5060c0830151612c7460c08601826128a2565b5060e0830151612c8760e0860182612875565b50610100830151612c9c610100860182612875565b50610120830151612cb16101208601826128a2565b508091505092915050565b612cc5816131e6565b82525050565b612cdc612cd7826131e6565b613304565b82525050565b612ceb816131f0565b82525050565b6000612cfd828661270f565b601482019150612d0d828561270f565b601482019150612d1d8284612ccb565b602082019150819050949350505050565b6000612d39826129df565b9150612d458285612908565b9150612d5082612a85565b9150612d5c8284612908565b91508190509392505050565b6000602082019050612d7d6000830184612700565b92915050565b6000604082019050612d986000830185612700565b612da56020830184612884565b9392505050565b6000602082019050612dc16000830184612866565b92915050565b6000602082019050612ddc6000830184612884565b92915050565b60006020820190508181036000830152612dfc81846128cf565b905092915050565b60006020820190508181036000830152612e1d81612939565b9050919050565b60006020820190508181036000830152612e3d81612979565b9050919050565b60006020820190508181036000830152612e5d81612a1f565b9050919050565b60006020820190508181036000830152612e7d81612ac5565b9050919050565b60006020820190508181036000830152612e9e8184612b2b565b905092915050565b6000602082019050612ebb6000830184612cbc565b92915050565b6000604051905081810181811067ffffffffffffffff82111715612ee857612ee761336c565b5b8060405250919050565b600067ffffffffffffffff821115612f0d57612f0c61336c565b5b602082029050602081019050919050565b600067ffffffffffffffff821115612f3957612f3861336c565b5b602082029050602081019050919050565b600067ffffffffffffffff821115612f6557612f6461336c565b5b602082029050602081019050919050565b6000819050602082019050919050565b6000819050602082019050919050565b6000819050602082019050919050565b600081519050919050565b600081519050919050565b600081519050919050565b600081519050919050565b6000602082019050919050565b6000602082019050919050565b6000602082019050919050565b600082825260208201905092915050565b600082825260208201905092915050565b600082825260208201905092915050565b600082825260208201905092915050565b600081905092915050565b6000613053826131e6565b915061305e836131e6565b9250827fffffffffffffffffffffffffffffffffffffffffffffffffffffffffffffffff038211156130935761309261330e565b5b828201905092915050565b60006130a9826131e6565b91506130b4836131e6565b9250817fffffffffffffffffffffffffffffffffffffffffffffffffffffffffffffffff04831182151516156130ed576130ec61330e565b5b828202905092915050565b6000613103826131e6565b915061310e836131e6565b9250828210156131215761312061330e565b5b828203905092915050565b6000613137826131c6565b9050919050565b60008115159050919050565b6000819050919050565b60007fffffffff0000000000000000000000000000000000000000000000000000000082169050919050565b600081905061318e826133b9565b919050565b60008190506131a1826133cd565b919050565b60008190506131b4826133e1565b919050565b60008160030b9050919050565b600073ffffffffffffffffffffffffffffffffffffffff82169050919050565b6000819050919050565b600067ffffffffffffffff82169050919050565b600061320f82613180565b9050919050565b600061322182613193565b9050919050565b6000613233826131a6565b9050919050565b60005b8381101561325857808201518184015260208101905061323d565b83811115613267576000848401525b50505050565b6000613278826131e6565b9150600082141561328c5761328b61330e565b5b600182039050919050565b60006132a2826131e6565b91507fffffffffffffffffffffffffffffffffffffffffffffffffffffffffffffffff8214156132d5576132d461330e565b5b600182019050919050565b60006132eb826132f2565b9050919050565b60006132fd826133ac565b9050919050565b6000819050919050565b7f4e487b7100000000000000000000000000000000000000000000000000000000600052601160045260246000fd5b7f4e487b7100000000000000000000000000000000000000000000000000000000600052602160045260246000fd5b7f4e487b7100000000000000000000000000000000000000000000000000000000600052604160045260246000fd5b6000601f19601f8301169050919050565b60008160601b9050919050565b600281106133ca576133c961333d565b5b50565b601481106133de576133dd61333d565b5b50565b600781106133f2576133f161333d565b5b50565b6133fe8161312c565b811461340957600080fd5b50565b6134158161314a565b811461342057600080fd5b50565b61342c81613154565b811461343757600080fd5b50565b6002811061344757600080fd5b50565b6014811061345757600080fd5b50565b6007811061346757600080fd5b50565b613473816131b9565b811461347e57600080fd5b50565b61348a816131e6565b811461349557600080fd5b50565b6134a1816131f0565b81146134ac57600080fd5b5056fea264697066735822122067557290d812f9f1302381e458395edc473502f38e94ce9838be60880cefff5464736f6c63430008000033a26469706673582212206b24e008eb1bfb2a96a0045f4befd88f076c51f15c26ea2493093ca132033a5e64736f6c63430008000033",
  "linkReferences": {},
  "deployedLinkReferences": {}
}